{
  "_format": "hh-sol-artifact-1",
  "contractName": "L2PublicResolver",
  "sourceName": "contracts/l2/L2PublicResolver.sol",
  "abi": [
    {
      "anonymous": false,
      "inputs": [
        {
          "indexed": false,
          "internalType": "bytes",
          "name": "context",
          "type": "bytes"
        },
        {
          "indexed": false,
          "internalType": "bytes",
          "name": "name",
          "type": "bytes"
        },
        {
          "indexed": true,
          "internalType": "bytes32",
          "name": "node",
          "type": "bytes32"
        },
        {
          "indexed": true,
          "internalType": "uint256",
          "name": "contentType",
          "type": "uint256"
        }
      ],
      "name": "ABIChanged",
      "type": "event"
    },
    {
      "anonymous": false,
      "inputs": [
        {
          "indexed": false,
          "internalType": "bytes",
          "name": "context",
          "type": "bytes"
        },
        {
          "indexed": false,
          "internalType": "bytes",
          "name": "name",
          "type": "bytes"
        },
        {
          "indexed": true,
          "internalType": "bytes32",
          "name": "node",
          "type": "bytes32"
        },
        {
          "indexed": false,
          "internalType": "address",
          "name": "a",
          "type": "address"
        }
      ],
      "name": "AddrChanged",
      "type": "event"
    },
    {
      "anonymous": false,
      "inputs": [
        {
          "indexed": false,
          "internalType": "bytes",
          "name": "context",
          "type": "bytes"
        },
        {
          "indexed": false,
          "internalType": "bytes",
          "name": "name",
          "type": "bytes"
        },
        {
          "indexed": true,
          "internalType": "bytes32",
          "name": "node",
          "type": "bytes32"
        },
        {
          "indexed": false,
          "internalType": "uint256",
          "name": "coinType",
          "type": "uint256"
        },
        {
          "indexed": false,
          "internalType": "bytes",
          "name": "newAddress",
          "type": "bytes"
        }
      ],
      "name": "AddressChanged",
      "type": "event"
    },
    {
      "anonymous": false,
      "inputs": [
        {
          "indexed": false,
          "internalType": "bytes",
          "name": "context",
          "type": "bytes"
        },
        {
          "indexed": false,
          "internalType": "bytes",
          "name": "name",
          "type": "bytes"
        },
        {
          "indexed": true,
          "internalType": "address",
          "name": "delegate",
          "type": "address"
        },
        {
          "indexed": true,
          "internalType": "bool",
          "name": "approved",
          "type": "bool"
        }
      ],
      "name": "Approved",
      "type": "event"
    },
    {
      "anonymous": false,
      "inputs": [
        {
          "indexed": false,
          "internalType": "bytes",
          "name": "context",
          "type": "bytes"
        },
        {
          "indexed": false,
          "internalType": "bytes",
          "name": "name",
          "type": "bytes"
        },
        {
          "indexed": true,
          "internalType": "bytes32",
          "name": "node",
          "type": "bytes32"
        },
        {
          "indexed": false,
          "internalType": "bytes",
          "name": "hash",
          "type": "bytes"
        }
      ],
      "name": "ContenthashChanged",
      "type": "event"
    },
    {
      "anonymous": false,
      "inputs": [
        {
          "indexed": false,
          "internalType": "bytes",
          "name": "context",
          "type": "bytes"
        },
        {
          "indexed": true,
          "internalType": "bytes32",
          "name": "node",
          "type": "bytes32"
        },
        {
          "indexed": false,
          "internalType": "bytes",
          "name": "name",
          "type": "bytes"
        },
        {
          "indexed": false,
          "internalType": "uint16",
          "name": "resource",
          "type": "uint16"
        },
        {
          "indexed": false,
          "internalType": "bytes",
          "name": "record",
          "type": "bytes"
        }
      ],
      "name": "DNSRecordChanged",
      "type": "event"
    },
    {
      "anonymous": false,
      "inputs": [
        {
          "indexed": false,
          "internalType": "bytes",
          "name": "context",
          "type": "bytes"
        },
        {
          "indexed": true,
          "internalType": "bytes32",
          "name": "node",
          "type": "bytes32"
        },
        {
          "indexed": false,
          "internalType": "bytes",
          "name": "name",
          "type": "bytes"
        },
        {
          "indexed": false,
          "internalType": "uint16",
          "name": "resource",
          "type": "uint16"
        }
      ],
      "name": "DNSRecordDeleted",
      "type": "event"
    },
    {
      "anonymous": false,
      "inputs": [
        {
          "indexed": false,
          "internalType": "bytes",
          "name": "context",
          "type": "bytes"
        },
        {
          "indexed": true,
          "internalType": "bytes32",
          "name": "node",
          "type": "bytes32"
        },
        {
          "indexed": false,
          "internalType": "bytes",
          "name": "lastzonehash",
          "type": "bytes"
        },
        {
          "indexed": false,
          "internalType": "bytes",
          "name": "zonehash",
          "type": "bytes"
        }
      ],
      "name": "DNSZonehashChanged",
      "type": "event"
    },
    {
      "anonymous": false,
      "inputs": [
        {
          "indexed": false,
          "internalType": "bytes",
          "name": "context",
          "type": "bytes"
        },
        {
          "indexed": false,
          "internalType": "bytes",
          "name": "name",
          "type": "bytes"
        },
        {
          "indexed": true,
          "internalType": "bytes32",
          "name": "node",
          "type": "bytes32"
        },
        {
          "indexed": true,
          "internalType": "string",
          "name": "indexedKey",
          "type": "string"
        },
        {
          "indexed": false,
          "internalType": "string",
          "name": "key",
          "type": "string"
        },
        {
          "indexed": false,
          "internalType": "string",
          "name": "value",
          "type": "string"
        }
      ],
      "name": "TextChanged",
      "type": "event"
    },
    {
      "anonymous": false,
      "inputs": [
        {
          "indexed": false,
          "internalType": "bytes",
          "name": "context",
          "type": "bytes"
        },
        {
          "indexed": false,
          "internalType": "bytes",
          "name": "name",
          "type": "bytes"
        },
        {
          "indexed": true,
          "internalType": "bytes32",
          "name": "node",
          "type": "bytes32"
        },
        {
          "indexed": false,
          "internalType": "uint64",
          "name": "newVersion",
          "type": "uint64"
        }
      ],
      "name": "VersionChanged",
      "type": "event"
    },
    {
      "inputs": [
        {
          "internalType": "bytes",
          "name": "context",
          "type": "bytes"
        },
        {
          "internalType": "bytes32",
          "name": "node",
          "type": "bytes32"
        },
        {
          "internalType": "uint256",
          "name": "contentTypes",
          "type": "uint256"
        }
      ],
      "name": "ABI",
      "outputs": [
        {
          "internalType": "uint256",
          "name": "",
          "type": "uint256"
        },
        {
          "internalType": "bytes",
          "name": "",
          "type": "bytes"
        }
      ],
      "stateMutability": "view",
      "type": "function"
    },
    {
      "inputs": [
        {
          "internalType": "bytes",
          "name": "context",
          "type": "bytes"
        },
        {
          "internalType": "bytes32",
          "name": "node",
          "type": "bytes32"
        },
        {
          "internalType": "uint256",
          "name": "coinType",
          "type": "uint256"
        }
      ],
      "name": "addr",
      "outputs": [
        {
          "internalType": "bytes",
          "name": "",
          "type": "bytes"
        }
      ],
      "stateMutability": "view",
      "type": "function"
    },
    {
      "inputs": [
        {
          "internalType": "bytes",
          "name": "context",
          "type": "bytes"
        },
        {
          "internalType": "bytes32",
          "name": "node",
          "type": "bytes32"
        }
      ],
      "name": "addr",
      "outputs": [
        {
          "internalType": "address payable",
          "name": "",
          "type": "address"
        }
      ],
      "stateMutability": "view",
      "type": "function"
    },
    {
      "inputs": [
        {
          "internalType": "uint64",
          "name": "",
          "type": "uint64"
        },
        {
          "internalType": "bytes",
          "name": "",
          "type": "bytes"
        },
        {
          "internalType": "bytes32",
          "name": "",
          "type": "bytes32"
        },
        {
          "internalType": "uint256",
          "name": "",
          "type": "uint256"
        }
      ],
      "name": "addresses_with_context",
      "outputs": [
        {
          "internalType": "bytes",
          "name": "",
          "type": "bytes"
        }
      ],
      "stateMutability": "view",
      "type": "function"
    },
    {
      "inputs": [
        {
          "internalType": "bytes",
          "name": "name",
          "type": "bytes"
        },
        {
          "internalType": "address",
          "name": "delegate",
          "type": "address"
        },
        {
          "internalType": "bool",
          "name": "approved",
          "type": "bool"
        }
      ],
      "name": "approve",
      "outputs": [],
      "stateMutability": "nonpayable",
      "type": "function"
    },
    {
      "inputs": [
        {
          "internalType": "bytes",
          "name": "name",
          "type": "bytes"
        }
      ],
      "name": "clearRecords",
      "outputs": [],
      "stateMutability": "nonpayable",
      "type": "function"
    },
    {
      "inputs": [
        {
          "internalType": "bytes",
          "name": "context",
          "type": "bytes"
        },
        {
          "internalType": "bytes32",
          "name": "node",
          "type": "bytes32"
        }
      ],
      "name": "contenthash",
      "outputs": [
        {
          "internalType": "bytes",
          "name": "",
          "type": "bytes"
        }
      ],
      "stateMutability": "view",
      "type": "function"
    },
    {
      "inputs": [
        {
          "internalType": "bytes",
          "name": "context",
          "type": "bytes"
        },
        {
          "internalType": "bytes32",
          "name": "node",
          "type": "bytes32"
        },
        {
          "internalType": "bytes32",
          "name": "name",
          "type": "bytes32"
        },
        {
          "internalType": "uint16",
          "name": "resource",
          "type": "uint16"
        }
      ],
      "name": "dnsRecord",
      "outputs": [
        {
          "internalType": "bytes",
          "name": "",
          "type": "bytes"
        }
      ],
      "stateMutability": "view",
      "type": "function"
    },
    {
      "inputs": [
        {
          "internalType": "bytes",
          "name": "context",
          "type": "bytes"
        },
        {
          "internalType": "bytes32",
          "name": "node",
          "type": "bytes32"
        },
        {
          "internalType": "bytes32",
          "name": "name",
          "type": "bytes32"
        }
      ],
      "name": "hasDNSRecords",
      "outputs": [
        {
          "internalType": "bool",
          "name": "",
          "type": "bool"
        }
      ],
      "stateMutability": "view",
      "type": "function"
    },
    {
      "inputs": [
        {
          "internalType": "bytes",
          "name": "context",
          "type": "bytes"
        },
        {
          "internalType": "bytes",
          "name": "name",
          "type": "bytes"
        },
        {
          "internalType": "address",
          "name": "delegate",
          "type": "address"
        }
      ],
      "name": "isApprovedFor",
      "outputs": [
        {
          "internalType": "bool",
          "name": "",
          "type": "bool"
        }
      ],
      "stateMutability": "view",
      "type": "function"
    },
    {
      "inputs": [
        {
          "internalType": "bytes[]",
          "name": "data",
          "type": "bytes[]"
        }
      ],
      "name": "multicall",
      "outputs": [
        {
          "internalType": "bytes[]",
          "name": "results",
          "type": "bytes[]"
        }
      ],
      "stateMutability": "nonpayable",
      "type": "function"
    },
    {
      "inputs": [
        {
          "internalType": "bytes32",
          "name": "nodehash",
          "type": "bytes32"
        },
        {
          "internalType": "bytes[]",
          "name": "data",
          "type": "bytes[]"
        }
      ],
      "name": "multicallWithNodeCheck",
      "outputs": [
        {
          "internalType": "bytes[]",
          "name": "results",
          "type": "bytes[]"
        }
      ],
      "stateMutability": "nonpayable",
      "type": "function"
    },
    {
      "inputs": [
        {
          "internalType": "bytes",
          "name": "",
          "type": "bytes"
        },
        {
          "internalType": "bytes32",
          "name": "",
          "type": "bytes32"
        }
      ],
      "name": "recordVersions",
      "outputs": [
        {
          "internalType": "uint64",
          "name": "",
          "type": "uint64"
        }
      ],
      "stateMutability": "view",
      "type": "function"
    },
    {
      "inputs": [
        {
          "internalType": "bytes",
          "name": "name",
          "type": "bytes"
        },
        {
          "internalType": "uint256",
          "name": "contentType",
          "type": "uint256"
        },
        {
          "internalType": "bytes",
          "name": "data",
          "type": "bytes"
        }
      ],
      "name": "setABI",
      "outputs": [],
      "stateMutability": "nonpayable",
      "type": "function"
    },
    {
      "inputs": [
        {
          "internalType": "bytes",
          "name": "context",
          "type": "bytes"
        },
        {
          "internalType": "bytes",
          "name": "name",
          "type": "bytes"
        },
        {
          "internalType": "uint256",
          "name": "contentType",
          "type": "uint256"
        },
        {
          "internalType": "bytes",
          "name": "data",
          "type": "bytes"
        }
      ],
      "name": "setABIFor",
      "outputs": [],
      "stateMutability": "nonpayable",
      "type": "function"
    },
    {
      "inputs": [
        {
          "internalType": "bytes",
          "name": "name",
          "type": "bytes"
        },
        {
          "internalType": "uint256",
          "name": "coinType",
          "type": "uint256"
        },
        {
          "internalType": "bytes",
          "name": "a",
          "type": "bytes"
        }
      ],
      "name": "setAddr",
      "outputs": [],
      "stateMutability": "nonpayable",
      "type": "function"
    },
    {
      "inputs": [
        {
          "internalType": "bytes",
          "name": "name",
          "type": "bytes"
        },
        {
          "internalType": "address",
          "name": "a",
          "type": "address"
        }
      ],
      "name": "setAddr",
      "outputs": [],
      "stateMutability": "nonpayable",
      "type": "function"
    },
    {
      "inputs": [
        {
          "internalType": "bytes",
          "name": "context",
          "type": "bytes"
        },
        {
          "internalType": "bytes",
          "name": "name",
          "type": "bytes"
        },
        {
          "internalType": "address",
          "name": "a",
          "type": "address"
        }
      ],
      "name": "setAddrFor",
      "outputs": [],
      "stateMutability": "nonpayable",
      "type": "function"
    },
    {
      "inputs": [
        {
          "internalType": "bytes",
          "name": "context",
          "type": "bytes"
        },
        {
          "internalType": "bytes",
          "name": "name",
          "type": "bytes"
        },
        {
          "internalType": "uint256",
          "name": "coinType",
          "type": "uint256"
        },
        {
          "internalType": "bytes",
          "name": "a",
          "type": "bytes"
        }
      ],
      "name": "setAddrFor",
      "outputs": [],
      "stateMutability": "nonpayable",
      "type": "function"
    },
    {
      "inputs": [
        {
          "internalType": "bytes",
          "name": "name",
          "type": "bytes"
        },
        {
          "internalType": "bytes",
          "name": "hash",
          "type": "bytes"
        }
      ],
      "name": "setContenthash",
      "outputs": [],
      "stateMutability": "nonpayable",
      "type": "function"
    },
    {
      "inputs": [
        {
          "internalType": "bytes",
          "name": "context",
          "type": "bytes"
        },
        {
          "internalType": "bytes",
          "name": "name",
          "type": "bytes"
        },
        {
          "internalType": "bytes",
          "name": "hash",
          "type": "bytes"
        }
      ],
      "name": "setContenthashFor",
      "outputs": [],
      "stateMutability": "nonpayable",
      "type": "function"
    },
    {
      "inputs": [
        {
          "internalType": "bytes",
          "name": "ensName",
          "type": "bytes"
        },
        {
          "internalType": "bytes",
          "name": "data",
          "type": "bytes"
        }
      ],
      "name": "setDNSRecords",
      "outputs": [],
      "stateMutability": "nonpayable",
      "type": "function"
    },
    {
      "inputs": [
        {
          "internalType": "bytes",
          "name": "context",
          "type": "bytes"
        },
        {
          "internalType": "bytes",
          "name": "ensName",
          "type": "bytes"
        },
        {
          "internalType": "bytes",
          "name": "data",
          "type": "bytes"
        }
      ],
      "name": "setDNSRecordsFor",
      "outputs": [],
      "stateMutability": "nonpayable",
      "type": "function"
    },
    {
      "inputs": [
        {
          "internalType": "bytes",
          "name": "name",
          "type": "bytes"
        },
        {
          "internalType": "string",
          "name": "key",
          "type": "string"
        },
        {
          "internalType": "string",
          "name": "value",
          "type": "string"
        }
      ],
      "name": "setText",
      "outputs": [],
      "stateMutability": "nonpayable",
      "type": "function"
    },
    {
      "inputs": [
        {
          "internalType": "bytes",
          "name": "context",
          "type": "bytes"
        },
        {
          "internalType": "bytes",
          "name": "name",
          "type": "bytes"
        },
        {
          "internalType": "string",
          "name": "key",
          "type": "string"
        },
        {
          "internalType": "string",
          "name": "value",
          "type": "string"
        }
      ],
      "name": "setTextFor",
      "outputs": [],
      "stateMutability": "nonpayable",
      "type": "function"
    },
    {
      "inputs": [
        {
          "internalType": "bytes",
          "name": "name",
          "type": "bytes"
        },
        {
          "internalType": "bytes",
          "name": "hash",
          "type": "bytes"
        }
      ],
      "name": "setZonehash",
      "outputs": [],
      "stateMutability": "nonpayable",
      "type": "function"
    },
    {
      "inputs": [
        {
          "internalType": "bytes",
          "name": "context",
          "type": "bytes"
        },
        {
          "internalType": "bytes",
          "name": "name",
          "type": "bytes"
        },
        {
          "internalType": "bytes",
          "name": "hash",
          "type": "bytes"
        }
      ],
      "name": "setZonehashFor",
      "outputs": [],
      "stateMutability": "nonpayable",
      "type": "function"
    },
    {
      "inputs": [
        {
          "internalType": "bytes4",
          "name": "interfaceID",
          "type": "bytes4"
        }
      ],
      "name": "supportsInterface",
      "outputs": [
        {
          "internalType": "bool",
          "name": "",
          "type": "bool"
        }
      ],
      "stateMutability": "view",
      "type": "function"
    },
    {
      "inputs": [
        {
          "internalType": "bytes",
          "name": "context",
          "type": "bytes"
        },
        {
          "internalType": "bytes32",
          "name": "node",
          "type": "bytes32"
        },
        {
          "internalType": "string",
          "name": "key",
          "type": "string"
        }
      ],
      "name": "text",
      "outputs": [
        {
          "internalType": "string",
          "name": "",
          "type": "string"
        }
      ],
      "stateMutability": "view",
      "type": "function"
    },
    {
      "inputs": [
        {
          "internalType": "uint64",
          "name": "",
          "type": "uint64"
        },
        {
          "internalType": "bytes",
          "name": "",
          "type": "bytes"
        },
        {
          "internalType": "bytes32",
          "name": "",
          "type": "bytes32"
        },
        {
          "internalType": "string",
          "name": "",
          "type": "string"
        }
      ],
      "name": "texts_with_context",
      "outputs": [
        {
          "internalType": "string",
          "name": "",
          "type": "string"
        }
      ],
      "stateMutability": "view",
      "type": "function"
    },
    {
      "inputs": [
        {
          "internalType": "bytes",
          "name": "context",
          "type": "bytes"
        },
        {
          "internalType": "bytes32",
          "name": "node",
          "type": "bytes32"
        }
      ],
      "name": "zonehash",
      "outputs": [
        {
          "internalType": "bytes",
          "name": "",
          "type": "bytes"
        }
      ],
      "stateMutability": "view",
      "type": "function"
    }
  ],
  "bytecode": "0x60806040523461001c575b6040516139f56200002a82396139f590f35b610024600080fd5b61000a56fe60806040526004361015610018575b610016600080fd5b005b60003560e01c8062493bd814610282578062bf40011461027957806301ffc9a71461027057806306daa68c1461026757806309cb26871461025e5780630e4fb8931461025557806313e4ae6a1461024c578063183f516b1461024357806328bb7ae31461023a5780632a666d9e146102315780633aaeecc0146102285780634821b72c1461021f5780636061a32b1461021657806367c2eae51461020d578063780a54ba146102045780637d4d5ed2146101fb57806398b36c7c146101f2578063a54e349d146101e9578063ac9650d8146101e0578063b745cb0e146101d7578063bbf0d758146101ce578063c4b82906146101c5578063c5d7badd146101bc578063c7279f88146101b3578063d26f550e146101aa578063d79e32fc146101a1578063da87094514610198578063dd1f458c1461018f578063df41ebf514610186578063e32954eb1461017d5763f00eebf40361000e57610178611661565b61000e565b506101786115f4565b50610178611589565b50610178611527565b506101786114fc565b506101786114d1565b506101786114a6565b50610178611415565b50610178611393565b50610178611368565b50610178611323565b506101786112f8565b506101786112c1565b5061017861117f565b50610178611151565b506101786110a2565b5061017861101e565b50610178610ff0565b50610178610e8c565b50610178610df3565b50610178610d45565b50610178610c85565b50610178610be6565b50610178610b25565b50610178610a85565b506101786109f7565b50610178610966565b506101786108ea565b50610178610526565b506101786104ab565b5061017861038e565b600080fd5b909182601f830112156102d5575b60208235926001600160401b0384116102c8575b0192828401116102be57565b6102c6600080fd5b565b6102d0600080fd5b6102b2565b6102dd600080fd5b61029e565b6001600160a01b031690565b90565b6001600160a01b0381165b0361028b57565b905035906102c6826102f1565b606081830312610381575b6103378282356001600160401b038111610374575b8301610290565b9290936102ee61035c8360208601356001600160401b038111610367575b8601610290565b939094604001610303565b61036f600080fd5b610355565b61037c600080fd5b610330565b610389600080fd5b61031b565b50346103b5575b6103ac6103a3366004610310565b939290926124aa565b604051005b0390f35b6103bd600080fd5b610395565b806102fc565b905035906102c6826103c2565b6102ee9192606082850312610427575b6104018483356001600160401b03811161041a575b8401610290565b93909461041181602086016103c8565b936040016103c8565b610422600080fd5b6103fa565b61042f600080fd5b6103e5565b9052565b60005b83811061044b5750506000910152565b818101518382015260200161043b565b601f01601f191690565b61048661045b60209361048f9361047a815190565b80835293849260200190565b95869101610438565b0190565b9081526040602082018190526102ee92910190610465565b50346104df575b6104c96104c03660046103d5565b9291909161236f565b906103b16104d660405190565b92839283610493565b6104e7600080fd5b6104b2565b6001600160e01b031981166102fc565b905035906102c6826104ec565b906102ee91602081830312156104fc57610521600080fd5b6104fc565b5034610555575b6103b161054361053e366004610509565b611c36565b60405191829182901515815260200190565b61055d600080fd5b61052d565b6001600160401b0381166102fc565b905035906102c682610562565b50634e487b7160e01b600052604160045260246000fd5b90601f01601f191681019081106001600160401b038211176105b657604052565b6105be61057e565b604052565b906102c66105d060405190565b9283610595565b61048f6020916001600160401b0381116105f557601f01601f191690565b61045b61057e565b90826000939282370152565b9291906102c69161062161061c836105d7565b6105c3565b94828652602086019183820111156105fd5761063b600080fd5b6105fd565b906102ee9181601f8201121561065c575b602081359101610609565b610664600080fd5b610651565b6080818303126106e5575b61067e8282610571565b926102ee6106a18460208501356001600160401b0381116106d8575b8501610640565b936106af81604086016103c8565b936060810135906001600160401b0382116106cb575b01610640565b6106d3600080fd5b6106c5565b6106e0600080fd5b61069a565b6106ed600080fd5b610674565b6107086102ee6102ee926001600160401b031690565b6001600160401b031690565b9061071e906106f2565b600052602052604060002090565b61048f6107449260209261073e815190565b94859290565b93849101610438565b61075d61048f916020949361072c565b918252565b61077761076e60405190565b9283928361074d565b03902090565b6102ee91610762565b9061071e565b50634e487b7160e01b600052600060045260246000fd5b50634e487b7160e01b600052602260045260246000fd5b90600160028304921680156107dd575b60208310146107d557565b6102c66107a3565b91607f16916107ca565b805460009392916108046107fa836107ba565b8085529360200190565b9160018116908115610856575060011461081d57505050565b6108309192939450600052602060002090565b916000925b8184106108425750500190565b805484840152602090930192600101610835565b92949550505060ff1916825215156020020190565b906102ee916107e7565b906102c661088f9261088660405190565b9384809261086b565b0383610595565b6102ee9115610875576108a761078c565b610875565b91926108ca6102ee946108cf6108d4946108ca600297600098610714565b61077d565b610786565b610896565b60208082526102ee92910190610465565b5034610917575b6103b161090b610902366004610669565b929190916108ac565b604051918291826108d9565b61091f600080fd5b6108f1565b91604083830312610959575b6102ee61094e8385356001600160401b038111610367578601610290565b9390946020016103c8565b610961600080fd5b610930565b5034610984575b6103b161090b61097e366004610924565b916131c4565b61098c600080fd5b61096d565b8015156102fc565b905035906102c682610991565b6102ee91926060828503126109ea575b6109d18483356001600160401b03811161041a578401610290565b9390946109e18160208601610303565b93604001610999565b6109f2600080fd5b6109b6565b5034610a15575b6103ac610a0c3660046109a6565b92919091611b45565b610a1d600080fd5b6109fe565b6102ee9192606082850312610a78575b610a4d8483356001600160401b03811161041a578401610290565b939094610a5d81602086016103c8565b936040810135906001600160401b0382116106cb5701610640565b610a80600080fd5b610a32565b5034610aa3575b6103ac610a9a366004610a22565b92919091612491565b610aab600080fd5b610a8c565b61ffff81166102fc565b905035906102c682610ab0565b90608082820312610b18575b610aee8183356001600160401b03811161041a578401610290565b9290936102ee610b0184602085016103c8565b93610b0f81604086016103c8565b93606001610aba565b610b20600080fd5b610ad3565b5034610b46575b6103b161090b610b3d366004610ac7565b93929092612fcc565b610b4e600080fd5b610b2c565b90606082820312610bd9575b610b7b8183356001600160401b038111610bcc575b8401610640565b92610bbb610b9d8360208601356001600160401b038111610367578601610290565b9390946040810135906001600160401b038211610bbf575b01610290565b9091565b610bc7600080fd5b610bb5565b610bd4600080fd5b610b74565b610be1600080fd5b610b5f565b5034610c04575b6103ac610bfb366004610b53565b939290926131b7565b610c0c600080fd5b610bed565b6102ee90608081840312610c78575b610c3c8382356001600160401b038111610c6b575b8301610640565b93610c5b8460208401356001600160401b03811161041a578401610290565b9390946106af81604086016103c8565b610c73600080fd5b610c35565b610c80600080fd5b610c20565b5034610ca3575b6103ac610c9a366004610c11565b9392909261271c565b610cab600080fd5b610c8c565b9190608083820312610d38575b610cd88184356001600160401b0381116106d8578501610640565b92610cf78260208301356001600160401b038111610374578301610290565b929093610bbb610d1b8360408601356001600160401b038111610367578601610290565b9390946060810135906001600160401b038211610bbf5701610290565b610d40600080fd5b610cbd565b5034610d66575b6103ac610d5a366004610cb0565b959490949391936138a4565b610d6e600080fd5b610d4c565b91906102ee90604084820312610db6575b610da08185356001600160401b038111610da9575b8601610640565b936020016103c8565b610db1600080fd5b610d99565b610dbe600080fd5b610d84565b6102ee916008021c610708565b906102ee9154610dc3565b610dee6102ee926108cf6000938461077d565b610dd0565b5034610e2b575b6103b1610e11610e0b366004610d73565b90610ddb565b604051918291826001600160401b03909116815260200190565b610e33600080fd5b610dfa565b91604083830312610e7f575b610bbb610e628385356001600160401b038111610367578601610290565b9390946020810135906001600160401b038211610bbf5701610290565b610e87600080fd5b610e44565b5034610eaa575b6103ac610ea1366004610e38565b92919091613083565b610eb2600080fd5b610e93565b608081830312610f05575b610ecc8282610571565b926102ee610eee8460208501356001600160401b0381116106d8578501610640565b93610efc81604086016103c8565b936060016103c8565b610f0d600080fd5b610ec2565b6102ee6102ee6102ee9290565b9061071e90610f12565b80546000939291610f3c6107fa836107ba565b91600181169081156108565750600114610f5557505050565b610f689192939450600052602060002090565b916000925b818410610f7a5750500190565b805484840152602090930192600101610f6d565b906102ee91610f29565b906102c661088f92610fa960405190565b93848092610f8e565b6102ee9115610f9857610fc361078c565b610f98565b9192610fe66102ee946108cf610feb946108ca600197600098610714565b610f1f565b610fb2565b5034611011575b6103b161090b611008366004610eb7565b92919091610fc8565b611019600080fd5b610ff7565b503461103f575b6103b161090b6110363660046103d5565b9291909161277d565b611047600080fd5b611025565b90606082820312611095575b6110738183356001600160401b038111610bcc578401610640565b926102ee61035c8360208601356001600160401b038111610367578601610290565b61109d600080fd5b611058565b50346110c3575b6103b16105436110ba36600461104c565b92919091611c11565b6110cb600080fd5b6110a9565b610bbb90608081840312611144575b6110fa8382356001600160401b038111610c6b578301610640565b936111198460208401356001600160401b03811161041a578401610290565b93909461112981604086016103c8565b936060810135906001600160401b038211610bbf5701610290565b61114c600080fd5b6110df565b5034611172575b6103ac6111663660046110d0565b949390939291926122bf565b61117a600080fd5b611158565b50346111a0575b6103b16105436111973660046103d5565b92919091613019565b6111a8600080fd5b611186565b909182601f830112156111eb575b60208235926001600160401b0384116111de575b0192602083028401116102be57565b6111e6600080fd5b6111cf565b6111f3600080fd5b6111bb565b90610bbb9160208183031261122d575b8035906001600160401b038211611220575b016111ad565b611228600080fd5b61121a565b611235600080fd5b611208565b906102ee91610465565b9061125a611250835190565b8083529160200190565b908161126c6020830284019460200190565b926000915b83831061128057505050505090565b909192939460206112a361129c8385600195038752895161123a565b9760200190565b9301930191939290611271565b60208082526102ee92910190611244565b50346112eb575b6103b16112df6112d93660046111f8565b90611a15565b604051918291826112b0565b6112f3600080fd5b6112c8565b5034611316575b6103ac61130d366004610e38565b92919091612f98565b61131e600080fd5b6112ff565b503461135b575b6103b161134161133b366004610924565b9161273f565b604051918291826001600160a01b03909116815260200190565b611363600080fd5b61132a565b5034611386575b6103b161090b611380366004610924565b91612916565b61138e600080fd5b61136f565b50346113b1575b6103ac6113a8366004610e38565b9291909161281e565b6113b9600080fd5b61139a565b606081830312611408575b6113e48282356001600160401b038111610374578301610290565b929093610bbb610b9d8360208601356001600160401b038111610367578601610290565b611410600080fd5b6113c9565b5034611436575b6103ac61142a3660046113be565b949390939291926136a3565b61143e600080fd5b61141c565b610bbb9192606082850312611499575b61146e8483356001600160401b03811161041a578401610290565b93909461147e81602086016103c8565b936040810135906001600160401b038211610bbf5701610290565b6114a1600080fd5b611453565b50346114c4575b6103ac6114bb366004611443565b93929092612009565b6114cc600080fd5b6114ad565b50346114ef575b6103ac6114e6366004610b53565b93929092612966565b6114f7600080fd5b6114d8565b503461151a575b6103ac611511366004610b53565b93929092612909565b611522600080fd5b611503565b5034611548575b6103b161090b61153f366004611443565b939290926138bc565b611550600080fd5b61152e565b90610bbb9160208183031261157c575b8035906001600160401b038211610bbf5701610290565b611584600080fd5b611565565b50346115a4575b6103ac61159e366004611555565b90611ce2565b6115ac600080fd5b611590565b9190610bbb906040848203126115e7575b6115cc81856103c8565b936020810135906001600160401b03821161122057016111ad565b6115ef600080fd5b6115c2565b5034611612575b6103b16112df61160c3660046115b1565b91611689565b61161a600080fd5b6115fb565b91604083830312611654575b6102ee6116498385356001600160401b038111610367578601610290565b939094602001610303565b61165c600080fd5b61162b565b503461167c575b6103ac61167636600461161f565b9161244a565b611684600080fd5b611668565b6102ee929190611921565b602080916001600160401b0381116116ab57020190565b6116b361057e565b020190565b9061075d61061c83611694565b60005b8281106116d457505050565b6060828201526020016116c8565b906102c66116f86116f2846116b8565b93611694565b601f1901602084016116c5565b50634e487b7160e01b600052601160045260246000fd5b600190600019811461172c570190565b61048f611705565b50634e487b7160e01b600052603260045260246000fd5b903590601e19368290030182121561178e575b0160208135916001600160401b038311611781575b01913682900383136102be57565b611789600080fd5b611773565b611796600080fd5b61175e565b90610bbb926020918110156117b4575b0281019061174b565b6117bc611734565b6117ab565b909392938483116117e8575b84116117db575b8101920390565b6117e3600080fd5b6117d4565b6117f0600080fd5b6117cd565b359060208110611803575090565b61181590600019906020036008021b90565b1690565b1561182057565b60405162461bcd60e51b815260206004820152603460248201527f6d756c746963616c6c3a20416c6c207265636f726473206d7573742068617665604482015273040c240dac2e8c6d0d2dcce40dcc2dacad0c2e6d60631b6064820152608490fd5b0390fd5b6102ee906102e2906001600160a01b031682565b6102ee90611886565b6102ee9061189a565b909161048f90839080936105fd565b90916102ee926118ac565b9061075d61061c836105d7565b3d156118ed576118e23d6118c6565b903d6000602084013e565b606090565b1561028b57565b9060208091611906845190565b811015611914575b02010190565b61191c611734565b61190e565b92908261192d846116e2565b9460009361193a85610f12565b865b811015611a0c576119b961193c916119566102ee89610f12565b85036119c0575b8780611968306118a3565b611973848a8c61179b565b9061198961198060405190565b928392836118bb565b03915af461199e6119986118d3565b916118f2565b6119a8828c6118f9565b526119b3818b6118f9565b5061171c565b905061193a565b611a076119f66119f06119d4848a8c61179b565b6024906119ea6119e46004610f12565b92610f12565b926117c1565b906117f5565b8690611a01565b9190565b14611819565b61195d565b50945050505050565b6102ee9190611a246000610f12565b611921565b15611a3057565b60405162461bcd60e51b815280611882600482016020808252818101527f53657474696e672064656c65676174652073746174757320666f722073656c66604082015260600190565b610434906001600160a01b031660601b90565b61048f81601493611a79565b61075d906020949361048f936118ac565b909161077790611ab860405190565b93849384611a98565b90916102ee92611aa9565b9061071e906118a3565b9060ff905b9181191691161790565b90611af56102ee611afc92151590565b8254611ad6565b9055565b919061045b81611b178161048f9560209181520190565b80956105fd565b60408082526102ee9491939192611b3791850190610465565b926020818503910152611b00565b9092919033611b5f6001600160a01b038416821415611a29565b611b87611b6b60405190565b8092611b7b602083019182611a8c565b90810382520382610595565b611bae84611ba985611ba48987611b9f88600861077d565b611ac1565b611acc565b611ae5565b611bf7611be4611bde7fa4cc3c5ae84b2bca50a3d4d1fcb37abe53c0bcf70aface89a8d975c1d33d2575956118a3565b95151590565b95611bee60405190565b93849384611b1e565b0390a3565b6102ee905b60ff1690565b6102ee9054611bfc565b611c31926102ee9492611b9f611ba493611c29600090565b50600861077d565b611c07565b6102ee906131f1565b6102ee913691610609565b6102ee90610708565b6102ee9054611c4a565b6001906001600160401b03166001600160401b03811461172c570190565b906001600160401b0390611adb565b90611c9a6102ee611afc926106f2565b8254611c7b565b949391611cd2906102c694611cc460409460608a01908a820360008c0152610465565b9188830360208a0152611b00565b9401906001600160401b03169052565b6108cf90611d3d611d9f611d6a611d65611cfc8786611c3f565b611d11600091611d0b83610f12565b90611e0b565b9687913390611d1f60405190565b97888093611d31602083019182611a8c565b90810382520383610595565b6108ca611d4e856108cf858561077d565b611d5f611d5a82611c53565b611c5d565b90611c8a565b611c53565b7f66b50d7625dfb6f087c9fbbb0b7094393200578cef60691f59652d47c3df9c979495611d9660405190565b94859485611ca1565b0390a2565b91908203918211611db157565b6102c6611705565b15611dc057565b60405162461bcd60e51b815260206004820152601d60248201527f6e616d65686173683a204a756e6b20617420656e64206f66206e616d650000006044820152606490fd5b01918252565b611e158282611f37565b9091611e216000610f12565b93848414611e765750611e35929350611e0b565b611b7b91611e6091611e4660405190565b938492602084019283602081611e0561048f938396959052565b611e72611e6b825190565b9160200190565b2090565b91506102ee92506119fd6102ee611e8e611e9e935190565b611e986001610f12565b90611da4565b14611db9565b15611eab57565b60405162461bcd60e51b815260206004820152601e60248201527f726561644c6162656c3a20496e646578206f7574206f6620626f756e647300006044820152606490fd5b906001602091611906845190565b611c016102ee6102ee9260ff1690565b6102ee9060f81c611efe565b6102ee6102ee6102ee9260ff1690565b91908201809211611db157565b611fc36102ee91939293611f49600090565b50611f5f611f586102ee835190565b8610611ea4565b611f8a611f85611f80611f728885611ef0565b516001600160f81b03191690565b611f0e565b611f1a565b9081600091611f9883610f12565b821115611fd357611fbd9250611fb7611fb16001610f12565b89611f2a565b90611fde565b94611f2a565b611fcd6001610f12565b90611f2a565b5050611fbd90610f12565b602090612003611fee8585611f2a565b611ffc6119fd6102ee855190565b11156118f2565b01012090565b906102c6949392913361201e611b6b60405190565b6122bf565b1561202a57565b60405162461bcd60e51b815260206004820152600e60248201526d139bdd08185d5d1a1bdc9a5cd95960921b6044820152606490fd5b906102c6959493929161207c6120778484846122cd565b612023565b61220f565b9160001960089290920291821b911b611adb565b91906120a66102ee611afc93610f12565b908354612081565b6102c691600091612095565b8181106120c5575050565b806120d360006001936120ae565b016120ba565b9190601f81116120e857505050565b6120fa6102c693600052602060002090565b906020601f84018190048301931061211d575b6020601f909101045b01906120ba565b909150819061210d565b600019600883021c1916906002021790565b91906001600160401b0382116121f7575b61215e8261215885546107ba565b856120d9565b600090601f831160011461218c57611afc929160009183612181575b5050612127565b01359050388061217a565b601f198316916121a185600052602060002090565b92815b8181106121df575091600293918560019694106121c5575b50505002019055565b0135600019601f84166008021c19165b90553880806121bc565b919360206001819287870135815501950192016121a4565b6121ff61057e565b61214a565b906102c69291612139565b90919461228b906108ca949561228687610fe68a6108cf8861226a6122618661224161223b6001610f12565b82611da4565b169461225b6000966122556119fd89610f12565b146118f2565b8d611c3f565b611d0b85610f12565b9b8c93612280611d65866108cf8660039561077d565b90610714565b612204565b611bf7611be46122b97f333d7bb34009761f4ff7f659a8b796ef6821c2f09927affab6adc5505be116bd9590565b95610f12565b906102c69594939291612060565b9133916122d960405190565b6122eb8160208101611b7b8782611a8c565b6122f6611e6b825190565b2061230d6119fd612305875190565b602088012090565b1461231b576102ee93611c11565b50505050600190565b611c016102ee6102ee9290565b6102ee906123456119fd6102ee9460ff1690565b901b90565b6102ee90546107ba565b6102ee90610f98565b6102ee60006118c6565b6102ee61235d565b9392916108cf61239c92612381600090565b5086611b9f6003612280611d65876108cf8760009e8f611ac1565b600191826123a981610f12565b905b6123bf575b505050506119fd6119e4612367565b81811161243b578181166123d56119fd88610f12565b141580612416575b6123ff57906123f78493926123f185612324565b90612331565b9091926123ab565b9450506102ee91508361241191610f1f565b612354565b506124296124248285610f1f565b61234a565b6124356119fd88610f12565b116123dd565b6123b0565b6102ee603c610f12565b90916102c692339261247a61245e60405190565b809561246e602083019182611a8c565b90810382520385610595565b61248b612485612440565b936127fc565b9361271c565b906102c6939291336124a5611b6b60405190565b61271c565b9290916124a56102c695936124c66124c0612440565b956127fc565b95611c3f565b906102c6949392916124e26120778484846122cd565b612631565b91612518906102ee969461250a6125209460808701908782036000890152610465565b918583036020870152611b00565b936040830152565b6060818403910152610465565b610434906118a3565b949391612559906102c694611cc460409460608a01908a820360008c0152610465565b94019061252d565b9061256a815190565b906001600160401b03821161261a575b6125888261215885546107ba565b602090601f83116001146125b557611afc9291600091836125aa575050612127565b01519050388061217a565b601f198316916125ca85600052602060002090565b9260005b818110612602575091600293918560019694106125ee5750505002019055565b01516000196008601f8516021c19166121d5565b919360206001819287870151815501950192016125ce565b61262261057e565b61257a565b906102c691612561565b6126ca926108cf610fe6926108ca6102c6989795886126508683611c3f565b91612660600093611d0b85610f12565b96897ff0b0d242ffa10d1d4bb43131f0c89418f026695502198978526a83cac3600c00838861269f8c9788958761269660405190565b958695866124e7565b0390a26126ad6102ee612440565b8a146126cf575b505050612280611d65866108cf8660019561077d565b612627565b6126d88c6127ae565b916127117fe164bbb35123c72b5d5b113601481520e2e915105077f173771b7a7a31ac07839361270760405190565b9384938a85612536565b0390a23880806126b4565b906102c6949392916124cc565b6102e26102ee6102ee9290565b6102ee90612729565b61275392909161274d612440565b9261277d565b80516000906127646119fd83610f12565b1461277357506102ee906127ae565b6102ee9150612736565b612411926108cf6102ee9593610fe693612795606090565b50611b9f6001612280611d65876108cf87876000611ac1565b6127c66127b9825190565b6122556119fd6014610f12565b60200151600160601b900490565b369037565b906102c66127ef6127e9846118c6565b936105d7565b601f1901602084016127d4565b9061280f61280a6014610f12565b6127d9565b600160601b9092026020830152565b906102c693929133612832611b6b60405190565b612909565b906102c69493929161284d6120778484846122cd565b61288e565b93916102ee959361287261288093606088019088820360008a0152610465565b918683036020880152611b00565b926040818503910152611b00565b909193611d9f906108ca946128d482826122866128ab8b8a611c3f565b6108cf896128be600093611d0b85610f12565b9c8d93612280611d65866108cf8660049561077d565b7f36280a525d16c174ebc8e2cefaa0ee2772cba19e1762480e5a97a4f36b369fee959661290060405190565b95869586612852565b906102c694939291612837565b916108cf612411926102ee9461292a606090565b50611b9f6004612280611d65876108cf87876000611ac1565b906102c6949392916129596120778484846122cd565b906102c694939291612990565b906102c694939291612943565b6129806102ee6102ee9290565b61ffff1690565b6102ee9161072c565b90926129a28193612a00979695611c3f565b9360006129b86129b182610f12565b8097611e0b565b6129c182612973565b87929086606091612a046129f98c6129f48a6129ee611d658b6108cf8b9a6129e7600090565b508d61077d565b9c611c3f565b612c5e565b9d8e612c80565b1590565b15612b505790839291612a198e979695612973565b61ffff821603612a8c57505050604084015161ffff1690612a3985612e87565b9a8b612a57612a4760405190565b8092611b7b602083019182612987565b612a62611e6b825190565b2050612a04612a00612a7388612f6f565b975b612a7e81612cb3565b9d94929d9793959697612c80565b92919b9095612a9a81612e87565b604082018e82612aaf612980845161ffff1690565b61ffff89161415918215612b39575b5050612ad3575b5050612a00612a0491612a75565b92969482988b929f8f8f938f96928e958c9360208d96019c612af38e5190565b90612afd91611da4565b96511496612b0a91611c3f565b92612b1498613503565b5161ffff169151938b612b25815190565b50612b31905086612f6f565b953880612ac5565b612b48925090612a0091612bb3565b8f8390612abe565b949699919392509694999a5080612b686102ee855190565b11612b7a575b50505050505050505050565b89612b9e91612b976102ee612b928a612ba49f611da4565b9a5190565b1498611c3f565b93613503565b38808080808080808080612b6e565b908151612bc46119fd6102ee845190565b149182612bd057505090565b6102ee9250600091612be9612be3835190565b93610f12565b809293612c1193612c0b826102ee946119fd9698612c05600090565b50611fde565b95611fde565b1490565b6102ee60e06105c3565b612c27612c15565b906060825260208080808080808801600081520160008152016000815201600081520160008152016000905250565b6102ee612c1f565b91906102c690612c7b612c6f612c56565b948552849160c0830152565b612cb3565b612c9d6119fd6102ee6000612c96602086015190565b9401515190565b101590565b6102ee6102ee6102ee9261ffff1690565b60c081018051612cc560208401918252565b80516000840190612cdb6119fd6102ee84515190565b1015612daa5760a0612d666102c695612da3612d53612d9d612d98612d90612d6b612d208a611fcd8d612d1a6104349f612d13905190565b9351915190565b90612e13565b612d39612d2e828d51612db0565b61ffff1660408a0152565b8a612d66612d5b612d4a6002610f12565b98898095611f2a565b809351612db0565b61ffff1660608b0152565b611f2a565b612d86612d79828c51612dd4565b63ffffffff166080890152565b611fcd6004610f12565b809851612db0565b612ca2565b95611f2a565b9283910152565b50505050565b61ffff9190600290612dcd611fee612dc784610f12565b85611f2a565b0101511690565b63ffffffff9190600490612dcd611fee612dc784610f12565b50634e487b7160e01b600052600160045260246000fd5b15612e0b57565b6102c6612ded565b90805b600190612e5190612e32612e2b6102ee875190565b8210612e04565b611fcd612e4b612e45611f858489612e6e565b94610f12565b84611f2a565b90612e5f6119fd6000610f12565b03612e16576102ee9250611da4565b611f726102ee92611f8092612e81600090565b50611ef0565b6102ee90805190612ea060208201612d1a612d13825190565b915b90916102ee91612eb5611fee8386611f2a565b612ebe826127d9565b93602080860192010190612ee4565b0390565b90612edf6119fd6102ee9390565b900a90565b9190915b6020612ef381610f12565b8310612f2957612f2291611fbd612f10612f179387518452610f12565b8092611f2a565b91611e986020610f12565b9091612ee8565b509190612f52612f6191612f4d612f4761010092612ecd6020610f12565b91610f12565b612ed1565b612f5c6001610f12565b900390565b905182518216911916179052565b6102ee90805190612ea060a08201611e98612f9360c0612f8d845190565b95015190565b915190565b906102c693929133612fac611b6b60405190565b612966565b6129806102ee6102ee9261ffff1690565b9061071e90612fb1565b926108cf6102ee95936108cf6130019461241197612fe8606090565b50611b9f6006612280611d65876108cf87876000611ac1565b612fc2565b6102ee90612980565b6102ee9054613006565b600093929160078361302c838589611ac1565b9061303691610786565b61303f90611c53565b61304891610714565b9161305292611ac1565b9061305c91610786565b9061306691610786565b61306f9061300f565b9061307990612973565b9061ffff16141590565b906102c693929133613097611b6b60405190565b6131b7565b906102c6949392916130b26120778484846122cd565b6130e5565b92906102ee94926130d76128809260608701908782036000890152610465565b908582036020870152610465565b92916130f091611c3f565b91806000936130fe85610f12565b61310791611e0b565b9384916131139161077d565b9061311d91610786565b61312690611c53565b9082858583600582826131398984610714565b906131439161077d565b9061314d91610786565b61315690612354565b9661316091610714565b9061316a9161077d565b9061317491610786565b9161317e92612204565b7fcedc400dcc193ec15f5b42021efe54dea2804ea59d09bac1519f640caf68bf4f93946131aa60405190565b938493611d9f93856130b7565b906102c69493929161309c565b916108cf612411926102ee946131d8606090565b50611b9f6005612280611d65876108cf87876000611ac1565b63183f516b60e01b6001600160e01b0319821614908115613221575b8115613217575090565b6102ee915061323c565b6001600160e01b031981166309cb268760e01b14915061320d565b63625c148360e11b6001600160e01b031982161490811561325b575090565b6102ee915062bf400160e01b6001600160e01b031982161490811561327e575090565b6102ee91506138f3565b60019061ffff1661ffff811461172c570190565b9061ffff90611adb565b906132b66102ee611afc92612fb1565b825461329c565b906132ed6102ee95936132df6125209360808601908682036000880152610465565b908482036020860152610465565b61ffff9094166040830152565b60019061ffff16801561330b570390565b612ecd611705565b9061332690600019906020036008021c90565b8154169055565b9060009161334b61334382600052602060002090565b928354612127565b905555565b91929060208210156133a857601f841160011461337257611afc929350612127565b50906133a36102c693600161339a61338f85600052602060002090565b92601f602091010490565b820191016120ba565b61332d565b506133e182936133bf600194600052602060002090565b6121166020601f860104820192601f8616806133e9575b50601f602091010490565b600202179055565b6133f590888603613313565b386133d6565b929091602090680100000000000000008311613455575b101561344957602081101561342a57611afc91612127565b60019160ff191661344084600052602060002090565b55600202019055565b60019150600202019055565b61345d61057e565b613412565b90815461346e816107ba565b90818311613496575b8183106134845750505050565b61348d93613350565b38808080612daa565b6134a2838383876133fb565b613477565b60006102c691613462565b6102c691156134a7576134c361078c565b6134a7565b9392906134f86102c6936134ea604093606089019089820360008b0152610465565b908782036020890152610465565b94019061ffff169052565b9497819761352387939498869b6135188b5190565b60208c012098612ea2565b90156135f2575061357e946108cf613579946108cf6119fd97956108ca6130019660066135636124248b6130018b6108cf8b6108cf8b6108ca8b8b610714565b61356f60009d8e610f12565b036135bc57610714565b6134b2565b611d9f6135a97fd657e270b9c31ed4b6f845e4e1846fea336de4559633bd886bb4b6c7700f272b9490565b946135b360405190565b938493846134c8565b6135ed6135d6896108cf896108cf896108ca896007610714565b6135e76135e28261300f565b6132fa565b906132a6565b610714565b93613001611d9f966108cf613643966108cf89976108ca6126ca98600661362c6124248b6130018b6108cf8b6108cf8b6108ca8b8b610714565b6136396119fd6000610f12565b1461367857610714565b7f3a30e582a6a4515ff923d80aae09c39c75c64bd8c2b127c72c6a3a864665041d949561366f60405190565b948594856132bd565b6135ed613692896108cf896108cf896108ca896007610714565b6135e761369e8261300f565b613288565b906102c69594939291336136b9611b6b60405190565b6138a4565b906102c69695949392916136d66120778484846122cd565b6137e0565b91906001600160401b03821161376c575b6136fa8261215885546107ba565b600090601f831160011461371c57611afc929160009183612181575050612127565b601f1983169161373185600052602060002090565b92815b818110613754575091600293918560019694106121c55750505002019055565b91936020600181928787013581550195019201613734565b61377461057e565b6136ec565b906102c692916136db565b61077761198060405190565b9593916137c4906137d2946137b66102ee9a989460808b01908b820360008d0152610465565b9189830360208b0152611b00565b918683036040880152611b00565b926060818503910152611b00565b9394958491929396808289896137f68989611c3f565b8760009161380383610f12565b61380c91611e0b565b9b8c809360029261381c9161077d565b9061382691610786565b61382f90611c53565b61383891610714565b906138429161077d565b9061384c91610786565b9161385692611ac1565b9161386092613779565b7faba60e8c32ab4ec8e4da108fb0927d3bd435d955f0d7f1613ad1c034dc55a1de959661388d818a613784565b9861389760405190565b968796611bf79688613790565b906102c69695949392916136be565b6102ee90610875565b6102ee94926108cf6138ee9593611b9f936138d5606090565b50611b9f6002612280611d65876108cf87876000611ac1565b6138b3565b633747d16360e21b6001600160e01b0319821614908115613912575090565b6102ee915063177e1aeb60e31b6001600160e01b0319821614908115613947575b811561393d575090565b6102ee9150613962565b6001600160e01b03198116633c052a5d60e11b149150613933565b6312086dcb60e21b6001600160e01b0319821614908115613981575090565b6102ee9150634fbf043360e01b6001600160e01b03198216149081156139a5575090565b6001600160e01b0319166301ffc9a760e01b1490506102ee56fea26469706673582212205a5b019b2df28f4a868d3557f3eaae036171a4738d718d3b91bd7b2c54c34a2964736f6c63430008110033",
  "linkReferences": {},
  "deployedLinkReferences": {}
}