{
  "_format": "hh-sol-artifact-1",
  "contractName": "L2PublicResolver",
  "sourceName": "contracts/L2PublicResolver.sol",
  "abi": [
    {
      "anonymous": false,
      "inputs": [
        {
          "indexed": true,
          "internalType": "bytes32",
          "name": "node",
          "type": "bytes32"
        },
        {
          "indexed": true,
          "internalType": "bytes32",
          "name": "ownedNode",
          "type": "bytes32"
        },
        {
          "indexed": true,
          "internalType": "uint256",
          "name": "contentType",
          "type": "uint256"
        }
      ],
      "name": "ABIChanged",
      "type": "event"
    },
    {
      "anonymous": false,
      "inputs": [
        {
          "indexed": true,
          "internalType": "bytes32",
          "name": "node",
          "type": "bytes32"
        },
        {
          "indexed": true,
          "internalType": "uint256",
          "name": "contentType",
          "type": "uint256"
        }
      ],
      "name": "ABIChanged",
      "type": "event"
    },
    {
      "anonymous": false,
      "inputs": [
        {
          "indexed": true,
          "internalType": "bytes32",
          "name": "node",
          "type": "bytes32"
        },
        {
          "indexed": true,
          "internalType": "bytes32",
          "name": "ownedNode",
          "type": "bytes32"
        },
        {
          "indexed": false,
          "internalType": "address",
          "name": "a",
          "type": "address"
        }
      ],
      "name": "AddrChanged",
      "type": "event"
    },
    {
      "anonymous": false,
      "inputs": [
        {
          "indexed": true,
          "internalType": "bytes32",
          "name": "node",
          "type": "bytes32"
        },
        {
          "indexed": false,
          "internalType": "address",
          "name": "a",
          "type": "address"
        }
      ],
      "name": "AddrChanged",
      "type": "event"
    },
    {
      "anonymous": false,
      "inputs": [
        {
          "indexed": true,
          "internalType": "bytes32",
          "name": "node",
          "type": "bytes32"
        },
        {
          "indexed": true,
          "internalType": "bytes32",
          "name": "ownedNode",
          "type": "bytes32"
        },
        {
          "indexed": false,
          "internalType": "uint256",
          "name": "coinType",
          "type": "uint256"
        },
        {
          "indexed": false,
          "internalType": "bytes",
          "name": "newAddress",
          "type": "bytes"
        }
      ],
      "name": "AddressChanged",
      "type": "event"
    },
    {
      "anonymous": false,
      "inputs": [
        {
          "indexed": true,
          "internalType": "bytes32",
          "name": "node",
          "type": "bytes32"
        },
        {
          "indexed": false,
          "internalType": "uint256",
          "name": "coinType",
          "type": "uint256"
        },
        {
          "indexed": false,
          "internalType": "bytes",
          "name": "newAddress",
          "type": "bytes"
        }
      ],
      "name": "AddressChanged",
      "type": "event"
    },
    {
      "anonymous": false,
      "inputs": [
        {
          "indexed": true,
          "internalType": "bytes32",
          "name": "node",
          "type": "bytes32"
        },
        {
          "indexed": true,
          "internalType": "bytes32",
          "name": "ownedNode",
          "type": "bytes32"
        },
        {
          "indexed": false,
          "internalType": "bytes",
          "name": "hash",
          "type": "bytes"
        }
      ],
      "name": "ContenthashChanged",
      "type": "event"
    },
    {
      "anonymous": false,
      "inputs": [
        {
          "indexed": true,
          "internalType": "bytes32",
          "name": "node",
          "type": "bytes32"
        },
        {
          "indexed": false,
          "internalType": "bytes",
          "name": "hash",
          "type": "bytes"
        }
      ],
      "name": "ContenthashChanged",
      "type": "event"
    },
    {
      "anonymous": false,
      "inputs": [
        {
          "indexed": true,
          "internalType": "bytes32",
          "name": "node",
          "type": "bytes32"
        },
        {
          "indexed": true,
          "internalType": "bytes32",
          "name": "ownedNode",
          "type": "bytes32"
        },
        {
          "indexed": true,
          "internalType": "bytes4",
          "name": "interfaceID",
          "type": "bytes4"
        },
        {
          "indexed": false,
          "internalType": "address",
          "name": "implementer",
          "type": "address"
        }
      ],
      "name": "InterfaceChanged",
      "type": "event"
    },
    {
      "anonymous": false,
      "inputs": [
        {
          "indexed": true,
          "internalType": "bytes32",
          "name": "node",
          "type": "bytes32"
        },
        {
          "indexed": true,
          "internalType": "bytes4",
          "name": "interfaceID",
          "type": "bytes4"
        },
        {
          "indexed": false,
          "internalType": "address",
          "name": "implementer",
          "type": "address"
        }
      ],
      "name": "InterfaceChanged",
      "type": "event"
    },
    {
      "anonymous": false,
      "inputs": [
        {
          "indexed": true,
          "internalType": "bytes32",
          "name": "node",
          "type": "bytes32"
        },
        {
          "indexed": true,
          "internalType": "bytes32",
          "name": "ownedNode",
          "type": "bytes32"
        },
        {
          "indexed": false,
          "internalType": "string",
          "name": "name",
          "type": "string"
        }
      ],
      "name": "NameChanged",
      "type": "event"
    },
    {
      "anonymous": false,
      "inputs": [
        {
          "indexed": true,
          "internalType": "bytes32",
          "name": "node",
          "type": "bytes32"
        },
        {
          "indexed": false,
          "internalType": "string",
          "name": "name",
          "type": "string"
        }
      ],
      "name": "NameChanged",
      "type": "event"
    },
    {
      "anonymous": false,
      "inputs": [
        {
          "indexed": true,
          "internalType": "bytes32",
          "name": "node",
          "type": "bytes32"
        },
        {
          "indexed": true,
          "internalType": "bytes32",
          "name": "ownedNode",
          "type": "bytes32"
        },
        {
          "indexed": false,
          "internalType": "bytes32",
          "name": "x",
          "type": "bytes32"
        },
        {
          "indexed": false,
          "internalType": "bytes32",
          "name": "y",
          "type": "bytes32"
        }
      ],
      "name": "PubkeyChanged",
      "type": "event"
    },
    {
      "anonymous": false,
      "inputs": [
        {
          "indexed": true,
          "internalType": "bytes32",
          "name": "node",
          "type": "bytes32"
        },
        {
          "indexed": false,
          "internalType": "bytes32",
          "name": "x",
          "type": "bytes32"
        },
        {
          "indexed": false,
          "internalType": "bytes32",
          "name": "y",
          "type": "bytes32"
        }
      ],
      "name": "PubkeyChanged",
      "type": "event"
    },
    {
      "anonymous": false,
      "inputs": [
        {
          "indexed": true,
          "internalType": "bytes32",
          "name": "node",
          "type": "bytes32"
        },
        {
          "indexed": true,
          "internalType": "bytes32",
          "name": "ownedNode",
          "type": "bytes32"
        },
        {
          "indexed": true,
          "internalType": "string",
          "name": "indexedKey",
          "type": "string"
        },
        {
          "indexed": false,
          "internalType": "string",
          "name": "key",
          "type": "string"
        },
        {
          "indexed": false,
          "internalType": "string",
          "name": "value",
          "type": "string"
        }
      ],
      "name": "TextChanged",
      "type": "event"
    },
    {
      "anonymous": false,
      "inputs": [
        {
          "indexed": true,
          "internalType": "bytes32",
          "name": "node",
          "type": "bytes32"
        },
        {
          "indexed": true,
          "internalType": "string",
          "name": "indexedKey",
          "type": "string"
        },
        {
          "indexed": false,
          "internalType": "string",
          "name": "key",
          "type": "string"
        },
        {
          "indexed": false,
          "internalType": "string",
          "name": "value",
          "type": "string"
        }
      ],
      "name": "TextChanged",
      "type": "event"
    },
    {
      "anonymous": false,
      "inputs": [
        {
          "indexed": true,
          "internalType": "bytes32",
          "name": "node",
          "type": "bytes32"
        },
        {
          "indexed": false,
          "internalType": "uint64",
          "name": "newVersion",
          "type": "uint64"
        }
      ],
      "name": "VersionChanged",
      "type": "event"
    },
    {
      "inputs": [
        {
          "internalType": "bytes32",
          "name": "node",
          "type": "bytes32"
        },
        {
          "internalType": "uint256",
          "name": "contentTypes",
          "type": "uint256"
        }
      ],
      "name": "ABI",
      "outputs": [
        {
          "internalType": "uint256",
          "name": "",
          "type": "uint256"
        },
        {
          "internalType": "bytes",
          "name": "",
          "type": "bytes"
        }
      ],
      "stateMutability": "view",
      "type": "function"
    },
    {
      "inputs": [
        {
          "internalType": "bytes32",
          "name": "node",
          "type": "bytes32"
        }
      ],
      "name": "addr",
      "outputs": [
        {
          "internalType": "address payable",
          "name": "",
          "type": "address"
        }
      ],
      "stateMutability": "view",
      "type": "function"
    },
    {
      "inputs": [
        {
          "internalType": "bytes32",
          "name": "node",
          "type": "bytes32"
        },
        {
          "internalType": "uint256",
          "name": "coinType",
          "type": "uint256"
        }
      ],
      "name": "addr",
      "outputs": [
        {
          "internalType": "bytes",
          "name": "",
          "type": "bytes"
        }
      ],
      "stateMutability": "view",
      "type": "function"
    },
    {
      "inputs": [
        {
          "internalType": "bytes32",
          "name": "node",
          "type": "bytes32"
        }
      ],
      "name": "clearRecords",
      "outputs": [],
      "stateMutability": "nonpayable",
      "type": "function"
    },
    {
      "inputs": [
        {
          "internalType": "bytes32",
          "name": "node",
          "type": "bytes32"
        }
      ],
      "name": "contenthash",
      "outputs": [
        {
          "internalType": "bytes",
          "name": "",
          "type": "bytes"
        }
      ],
      "stateMutability": "view",
      "type": "function"
    },
    {
      "inputs": [
        {
          "internalType": "bytes32",
          "name": "node",
          "type": "bytes32"
        },
        {
          "internalType": "bytes4",
          "name": "interfaceID",
          "type": "bytes4"
        }
      ],
      "name": "interfaceImplementer",
      "outputs": [
        {
          "internalType": "address",
          "name": "",
          "type": "address"
        }
      ],
      "stateMutability": "view",
      "type": "function"
    },
    {
      "inputs": [
        {
          "internalType": "bytes[]",
          "name": "data",
          "type": "bytes[]"
        }
      ],
      "name": "multicall",
      "outputs": [
        {
          "internalType": "bytes[]",
          "name": "results",
          "type": "bytes[]"
        }
      ],
      "stateMutability": "nonpayable",
      "type": "function"
    },
    {
      "inputs": [
        {
          "internalType": "bytes32",
          "name": "nodehash",
          "type": "bytes32"
        },
        {
          "internalType": "bytes[]",
          "name": "data",
          "type": "bytes[]"
        }
      ],
      "name": "multicallWithNodeCheck",
      "outputs": [
        {
          "internalType": "bytes[]",
          "name": "results",
          "type": "bytes[]"
        }
      ],
      "stateMutability": "nonpayable",
      "type": "function"
    },
    {
      "inputs": [
        {
          "internalType": "bytes32",
          "name": "node",
          "type": "bytes32"
        }
      ],
      "name": "name",
      "outputs": [
        {
          "internalType": "string",
          "name": "",
          "type": "string"
        }
      ],
      "stateMutability": "view",
      "type": "function"
    },
    {
      "inputs": [
        {
          "internalType": "bytes32",
          "name": "node",
          "type": "bytes32"
        }
      ],
      "name": "pubkey",
      "outputs": [
        {
          "internalType": "bytes32",
          "name": "x",
          "type": "bytes32"
        },
        {
          "internalType": "bytes32",
          "name": "y",
          "type": "bytes32"
        }
      ],
      "stateMutability": "view",
      "type": "function"
    },
    {
      "inputs": [
        {
          "internalType": "bytes32",
          "name": "",
          "type": "bytes32"
        }
      ],
      "name": "recordVersions",
      "outputs": [
        {
          "internalType": "uint64",
          "name": "",
          "type": "uint64"
        }
      ],
      "stateMutability": "view",
      "type": "function"
    },
    {
      "inputs": [
        {
          "internalType": "bytes",
          "name": "",
          "type": "bytes"
        },
        {
          "internalType": "bytes",
          "name": "data",
          "type": "bytes"
        }
      ],
      "name": "resolve",
      "outputs": [
        {
          "internalType": "bytes",
          "name": "",
          "type": "bytes"
        }
      ],
      "stateMutability": "view",
      "type": "function"
    },
    {
      "inputs": [
        {
          "internalType": "bytes32",
          "name": "node",
          "type": "bytes32"
        },
        {
          "internalType": "uint256",
          "name": "contentType",
          "type": "uint256"
        },
        {
          "internalType": "bytes",
          "name": "data",
          "type": "bytes"
        }
      ],
      "name": "setABI",
      "outputs": [],
      "stateMutability": "nonpayable",
      "type": "function"
    },
    {
      "inputs": [
        {
          "internalType": "bytes32",
          "name": "node",
          "type": "bytes32"
        },
        {
          "internalType": "uint256",
          "name": "coinType",
          "type": "uint256"
        },
        {
          "internalType": "bytes",
          "name": "a",
          "type": "bytes"
        }
      ],
      "name": "setAddr",
      "outputs": [],
      "stateMutability": "nonpayable",
      "type": "function"
    },
    {
      "inputs": [
        {
          "internalType": "bytes32",
          "name": "node",
          "type": "bytes32"
        },
        {
          "internalType": "address",
          "name": "a",
          "type": "address"
        }
      ],
      "name": "setAddr",
      "outputs": [],
      "stateMutability": "nonpayable",
      "type": "function"
    },
    {
      "inputs": [
        {
          "internalType": "bytes32",
          "name": "node",
          "type": "bytes32"
        },
        {
          "internalType": "bytes",
          "name": "hash",
          "type": "bytes"
        }
      ],
      "name": "setContenthash",
      "outputs": [],
      "stateMutability": "nonpayable",
      "type": "function"
    },
    {
      "inputs": [
        {
          "internalType": "bytes32",
          "name": "node",
          "type": "bytes32"
        },
        {
          "internalType": "bytes4",
          "name": "interfaceID",
          "type": "bytes4"
        },
        {
          "internalType": "address",
          "name": "implementer",
          "type": "address"
        }
      ],
      "name": "setInterface",
      "outputs": [],
      "stateMutability": "nonpayable",
      "type": "function"
    },
    {
      "inputs": [
        {
          "internalType": "bytes32",
          "name": "node",
          "type": "bytes32"
        },
        {
          "internalType": "string",
          "name": "newName",
          "type": "string"
        }
      ],
      "name": "setName",
      "outputs": [],
      "stateMutability": "nonpayable",
      "type": "function"
    },
    {
      "inputs": [
        {
          "internalType": "bytes32",
          "name": "node",
          "type": "bytes32"
        },
        {
          "internalType": "bytes32",
          "name": "x",
          "type": "bytes32"
        },
        {
          "internalType": "bytes32",
          "name": "y",
          "type": "bytes32"
        }
      ],
      "name": "setPubkey",
      "outputs": [],
      "stateMutability": "nonpayable",
      "type": "function"
    },
    {
      "inputs": [
        {
          "internalType": "bytes32",
          "name": "node",
          "type": "bytes32"
        },
        {
          "internalType": "string",
          "name": "key",
          "type": "string"
        },
        {
          "internalType": "string",
          "name": "value",
          "type": "string"
        }
      ],
      "name": "setText",
      "outputs": [],
      "stateMutability": "nonpayable",
      "type": "function"
    },
    {
      "inputs": [
        {
          "internalType": "bytes4",
          "name": "interfaceID",
          "type": "bytes4"
        }
      ],
      "name": "supportsInterface",
      "outputs": [
        {
          "internalType": "bool",
          "name": "",
          "type": "bool"
        }
      ],
      "stateMutability": "view",
      "type": "function"
    },
    {
      "inputs": [
        {
          "internalType": "bytes32",
          "name": "node",
          "type": "bytes32"
        },
        {
          "internalType": "string",
          "name": "key",
          "type": "string"
        }
      ],
      "name": "text",
      "outputs": [
        {
          "internalType": "string",
          "name": "",
          "type": "string"
        }
      ],
      "stateMutability": "view",
      "type": "function"
    }
  ],
  "bytecode": "0x608060405234801561001057600080fd5b506136b9806100206000396000f3fe608060405234801561001057600080fd5b50600436106101425760003560e01c806377372213116100b8578063c86902331161007c578063c8690233146103bc578063d5fa2b00146103ed578063d700ff3314610409578063e32954eb14610439578063e59d895d14610469578063f1cb7e061461048557610142565b806377372213146102f45780638b95dd71146103105780639061b9231461032c578063ac9650d81461035c578063bc1c58d11461038c57610142565b8063304e6ade1161010a578063304e6ade146102105780633603d7581461022c5780633b3b57de1461024857806359d1d43c14610278578063623195b0146102a8578063691f3431146102c457610142565b806301ffc9a71461014757806310f13a8c14610177578063124a319c146101935780632203ab56146101c357806329cd62ea146101f4575b600080fd5b610161600480360381019061015c919061202c565b6104b5565b60405161016e9190612074565b60405180910390f35b610191600480360381019061018c919061212a565b6104c7565b005b6101ad60048036038101906101a891906121bf565b6105c0565b6040516101ba9190612240565b60405180910390f35b6101dd60048036038101906101d89190612291565b610a1b565b6040516101eb929190612370565b60405180910390f35b61020e600480360381019061020991906123a0565b610b9b565b005b61022a60048036038101906102259190612449565b610c74565b005b610246600480360381019061024191906124a9565b610d31565b005b610262600480360381019061025d91906124a9565b610e03565b60405161026f91906124f7565b60405180910390f35b610292600480360381019061028d9190612512565b610e38565b60405161029f91906125c7565b60405180910390f35b6102c260048036038101906102bd91906125e9565b610f48565b005b6102de60048036038101906102d991906124a9565b61105c565b6040516102eb91906125c7565b60405180910390f35b61030e60048036038101906103099190612512565b61114c565b005b61032a6004803603810190610325919061278d565b611209565b005b610346600480360381019061034191906127fc565b61131f565b6040516103539190612874565b60405180910390f35b610376600480360381019061037191906128ec565b6113ac565b6040516103839190612a45565b60405180910390f35b6103a660048036038101906103a191906124a9565b6113c4565b6040516103b39190612874565b60405180910390f35b6103d660048036038101906103d191906124a9565b6114b4565b6040516103e4929190612a76565b60405180910390f35b61040760048036038101906104029190612acb565b611564565b005b610423600480360381019061041e91906124a9565b61157c565b6040516104309190612b2e565b60405180910390f35b610453600480360381019061044e9190612b49565b6115a3565b6040516104609190612a45565b60405180910390f35b610483600480360381019061047e9190612ba9565b6115b9565b005b61049f600480360381019061049a9190612291565b611712565b6040516104ac9190612874565b60405180910390f35b60006104c082611814565b9050919050565b60006104d3863361188e565b905082826007600080600086815260200190815260200160002060009054906101000a900467ffffffffffffffff1667ffffffffffffffff1667ffffffffffffffff16815260200190815260200160002060008481526020019081526020016000208787604051610545929190612c2c565b90815260200160405180910390209182610560929190612e5c565b508484604051610571929190612c2c565b604051809103902081877fcefe17812d4ed695d621aea4c66b337785c3e22761d211181b2aaf89b4286000888888886040516105b09493929190612f59565b60405180910390a4505050505050565b6000806004600080600087815260200190815260200160002060009054906101000a900467ffffffffffffffff1667ffffffffffffffff1667ffffffffffffffff16815260200190815260200160002060008581526020019081526020016000206000847bffffffffffffffffffffffffffffffffffffffffffffffffffffffff19167bffffffffffffffffffffffffffffffffffffffffffffffffffffffff1916815260200190815260200160002060009054906101000a900473ffffffffffffffffffffffffffffffffffffffff169050600073ffffffffffffffffffffffffffffffffffffffff168173ffffffffffffffffffffffffffffffffffffffff16146106d05780915050610a15565b60006106db85610e03565b9050600073ffffffffffffffffffffffffffffffffffffffff168173ffffffffffffffffffffffffffffffffffffffff160361071c57600092505050610a15565b6000808273ffffffffffffffffffffffffffffffffffffffff167f01ffc9a7000000000000000000000000000000000000000000000000000000006040516024016107679190612fa3565b6040516020818303038152906040527f01ffc9a7000000000000000000000000000000000000000000000000000000007bffffffffffffffffffffffffffffffffffffffffffffffffffffffff19166020820180517bffffffffffffffffffffffffffffffffffffffffffffffffffffffff83818316178352505050506040516107f19190612ffa565b600060405180830381855afa9150503d806000811461082c576040519150601f19603f3d011682016040523d82523d6000602084013e610831565b606091505b5091509150811580610844575060208151105b806108925750600060f81b81601f8151811061086357610862613011565b5b602001015160f81c60f81b7effffffffffffffffffffffffffffffffffffffffffffffffffffffffffffff1916145b156108a4576000945050505050610a15565b8273ffffffffffffffffffffffffffffffffffffffff16866040516024016108cc9190612fa3565b6040516020818303038152906040527f01ffc9a7000000000000000000000000000000000000000000000000000000007bffffffffffffffffffffffffffffffffffffffffffffffffffffffff19166020820180517bffffffffffffffffffffffffffffffffffffffffffffffffffffffff83818316178352505050506040516109569190612ffa565b600060405180830381855afa9150503d8060008114610991576040519150601f19603f3d011682016040523d82523d6000602084013e610996565b606091505b5080925081935050508115806109ad575060208151105b806109fb5750600060f81b81601f815181106109cc576109cb613011565b5b602001015160f81c60f81b7effffffffffffffffffffffffffffffffffffffffffffffffffffffffffffff1916145b15610a0d576000945050505050610a15565b829450505050505b92915050565b6000606060006001600080600088815260200190815260200160002060009054906101000a900467ffffffffffffffff1667ffffffffffffffff1667ffffffffffffffff168152602001908152602001600020600086815260200190815260200160002090506000600190505b848111610b7b57600085821614158015610ac0575060008260008381526020019081526020016000208054610abc90612c7f565b9050115b15610b6f5780826000838152602001908152602001600020808054610ae490612c7f565b80601f0160208091040260200160405190810160405280929190818152602001828054610b1090612c7f565b8015610b5d5780601f10610b3257610100808354040283529160200191610b5d565b820191906000526020600020905b815481529060010190602001808311610b4057829003601f168201915b50505050509050935093505050610b94565b600181901b9050610a88565b5060006040518060200160405280600081525092509250505b9250929050565b6000610ba7843361188e565b90506040518060400160405280848152602001838152506006600080600085815260200190815260200160002060009054906101000a900467ffffffffffffffff1667ffffffffffffffff1667ffffffffffffffff1681526020019081526020016000206000838152602001908152602001600020600082015181600001556020820151816001015590505080847fac51b70d026ee1f6f37d0e66b888ec98d380783a333e709115c0114dda9fe2028585604051610c66929190612a76565b60405180910390a350505050565b6000610c80843361188e565b905082826003600080600086815260200190815260200160002060009054906101000a900467ffffffffffffffff1667ffffffffffffffff1667ffffffffffffffff16815260200190815260200160002060008481526020019081526020016000209182610cef9291906130a6565b5080847fbb6523661ea6684e226cb3bf71a7327f333276d02dcb58e85b81864cb9cea4df8585604051610d239291906131a3565b60405180910390a350505050565b80610d3b816118c1565b610d4457600080fd5b600080838152602001908152602001600020600081819054906101000a900467ffffffffffffffff1680929190610d7a906131f6565b91906101000a81548167ffffffffffffffff021916908367ffffffffffffffff16021790555050817fc6621ccb8f3f5a04bb6502154b2caf6adf5983fe76dfef1cfc9c42e3579db44460008085815260200190815260200160002060009054906101000a900467ffffffffffffffff16604051610df79190612b2e565b60405180910390a25050565b600080610e1183603c611712565b90506000815103610e26576000915050610e33565b610e2f816118c8565b9150505b919050565b60606007600080600087815260200190815260200160002060009054906101000a900467ffffffffffffffff1667ffffffffffffffff1667ffffffffffffffff16815260200190815260200160002060008581526020019081526020016000208383604051610ea8929190612c2c565b90815260200160405180910390208054610ec190612c7f565b80601f0160208091040260200160405190810160405280929190818152602001828054610eed90612c7f565b8015610f3a5780601f10610f0f57610100808354040283529160200191610f3a565b820191906000526020600020905b815481529060010190602001808311610f1d57829003601f168201915b505050505090509392505050565b600083600185610f589190613226565b1614610f99576040517f08c379a0000000000000000000000000000000000000000000000000000000008152600401610f90906132a6565b60405180910390fd5b6000610fa5853361188e565b905082826001600080600086815260200190815260200160002060009054906101000a900467ffffffffffffffff1667ffffffffffffffff1667ffffffffffffffff1681526020019081526020016000206000848152602001908152602001600020600087815260200190815260200160002091826110259291906130a6565b508381867ffd8dd7948772358afbc8db7ca43db6ea52260276b8fe2080a13208eceb9d96c560405160405180910390a45050505050565b60606005600080600085815260200190815260200160002060009054906101000a900467ffffffffffffffff1667ffffffffffffffff1667ffffffffffffffff168152602001908152602001600020600083815260200190815260200160002080546110c790612c7f565b80601f01602080910402602001604051908101604052809291908181526020018280546110f390612c7f565b80156111405780601f1061111557610100808354040283529160200191611140565b820191906000526020600020905b81548152906001019060200180831161112357829003601f168201915b50505050509050919050565b6000611158843361188e565b905082826005600080600086815260200190815260200160002060009054906101000a900467ffffffffffffffff1667ffffffffffffffff1667ffffffffffffffff168152602001908152602001600020600084815260200190815260200160002091826111c7929190612e5c565b5080847f2639d6a754e663f33fa37122cb0b1ecfd4994404c428974de9658ff11277a0c185856040516111fb9291906132c6565b60405180910390a350505050565b6000611215843361188e565b905080847fc6462a6245d1daf0a70dd8ea9c65495bb68ef5d3ddef46751e3e925b142a974b858560405161124a929190612370565b60405180910390a3603c830361129c5780847f5ed0598a4cd81b674e14da28790d8ac3909ab1a513feb4583f6388f713c4ba9e611286856118c8565b604051611293919061333f565b60405180910390a35b816002600080600085815260200190815260200160002060009054906101000a900467ffffffffffffffff1667ffffffffffffffff1667ffffffffffffffff168152602001908152602001600020600083815260200190815260200160002060008581526020019081526020016000209081611318919061335a565b5050505050565b60606000803073ffffffffffffffffffffffffffffffffffffffff16846040516113499190612ffa565b600060405180830381855afa9150503d8060008114611384576040519150601f19603f3d011682016040523d82523d6000602084013e611389565b606091505b5091509150811561139e5780925050506113a6565b805160208201fd5b92915050565b60606113bc6000801b84846118eb565b905092915050565b60606003600080600085815260200190815260200160002060009054906101000a900467ffffffffffffffff1667ffffffffffffffff1667ffffffffffffffff1681526020019081526020016000206000838152602001908152602001600020805461142f90612c7f565b80601f016020809104026020016040519081016040528092919081815260200182805461145b90612c7f565b80156114a85780601f1061147d576101008083540402835291602001916114a8565b820191906000526020600020905b81548152906001019060200180831161148b57829003601f168201915b50505050509050919050565b600080600080600085815260200190815260200160002060009054906101000a900467ffffffffffffffff169050600660008267ffffffffffffffff1667ffffffffffffffff168152602001908152602001600020600085815260200190815260200160002060000154600660008367ffffffffffffffff1667ffffffffffffffff1681526020019081526020016000206000868152602001908152602001600020600101549250925050915091565b61157882603c61157384611aba565b611209565b5050565b60006020528060005260406000206000915054906101000a900467ffffffffffffffff1681565b60606115b08484846118eb565b90509392505050565b60006115c5843361188e565b9050816004600080600085815260200190815260200160002060009054906101000a900467ffffffffffffffff1667ffffffffffffffff1667ffffffffffffffff16815260200190815260200160002060008381526020019081526020016000206000857bffffffffffffffffffffffffffffffffffffffffffffffffffffffff19167bffffffffffffffffffffffffffffffffffffffffffffffffffffffff1916815260200190815260200160002060006101000a81548173ffffffffffffffffffffffffffffffffffffffff021916908373ffffffffffffffffffffffffffffffffffffffff160217905550827bffffffffffffffffffffffffffffffffffffffffffffffffffffffff191681857f14824e8ba843c4fd7adbf745d85fedff5a741185d12e2de1bb15773196ca367c856040516117049190612240565b60405180910390a450505050565b60606002600080600086815260200190815260200160002060009054906101000a900467ffffffffffffffff1667ffffffffffffffff1667ffffffffffffffff16815260200190815260200160002060008481526020019081526020016000206000838152602001908152602001600020805461178e90612c7f565b80601f01602080910402602001604051908101604052809291908181526020018280546117ba90612c7f565b80156118075780601f106117dc57610100808354040283529160200191611807565b820191906000526020600020905b8154815290600101906020018083116117ea57829003601f168201915b5050505050905092915050565b60007f59d1d43c000000000000000000000000000000000000000000000000000000007bffffffffffffffffffffffffffffffffffffffffffffffffffffffff1916827bffffffffffffffffffffffffffffffffffffffffffffffffffffffff19161480611887575061188682611b1e565b5b9050919050565b600082826040516020016118a392919061342c565b60405160208183030381529060405280519060200120905092915050565b6000919050565b600060148251146118d857600080fd5b600c6101000a6020830151049050919050565b60608282905067ffffffffffffffff81111561190a57611909612662565b5b60405190808252806020026020018201604052801561193d57816020015b60608152602001906001900390816119285790505b50905060005b83839050811015611ab2576000801b85146119e257600084848381811061196d5761196c613011565b5b905060200281019061197f9190613464565b600490602492611991939291906134d1565b9061199c919061350c565b90508581146119e0576040517f08c379a00000000000000000000000000000000000000000000000000000000081526004016119d7906135dd565b60405180910390fd5b505b6000803073ffffffffffffffffffffffffffffffffffffffff16868685818110611a0f57611a0e613011565b5b9050602002810190611a219190613464565b604051611a2f929190613622565b600060405180830381855af49150503d8060008114611a6a576040519150601f19603f3d011682016040523d82523d6000602084013e611a6f565b606091505b509150915081611a7e57600080fd5b80848481518110611a9257611a91613011565b5b602002602001018190525050508080611aaa9061363b565b915050611943565b509392505050565b6060601467ffffffffffffffff811115611ad757611ad6612662565b5b6040519080825280601f01601f191660200182016040528015611b095781602001600182028036833780820191505090505b509050600c6101000a82026020820152919050565b60007fc8690233000000000000000000000000000000000000000000000000000000007bffffffffffffffffffffffffffffffffffffffffffffffffffffffff1916827bffffffffffffffffffffffffffffffffffffffffffffffffffffffff19161480611b915750611b9082611b98565b5b9050919050565b60007f691f3431000000000000000000000000000000000000000000000000000000007bffffffffffffffffffffffffffffffffffffffffffffffffffffffff1916827bffffffffffffffffffffffffffffffffffffffffffffffffffffffff19161480611c0b5750611c0a82611c12565b5b9050919050565b60007f124a319c000000000000000000000000000000000000000000000000000000007bffffffffffffffffffffffffffffffffffffffffffffffffffffffff1916827bffffffffffffffffffffffffffffffffffffffffffffffffffffffff19161480611c855750611c8482611c8c565b5b9050919050565b60007fbc1c58d1000000000000000000000000000000000000000000000000000000007bffffffffffffffffffffffffffffffffffffffffffffffffffffffff1916827bffffffffffffffffffffffffffffffffffffffffffffffffffffffff19161480611cff5750611cfe82611d06565b5b9050919050565b60007f3b3b57de000000000000000000000000000000000000000000000000000000007bffffffffffffffffffffffffffffffffffffffffffffffffffffffff1916827bffffffffffffffffffffffffffffffffffffffffffffffffffffffff19161480611dd157507ff1cb7e06000000000000000000000000000000000000000000000000000000007bffffffffffffffffffffffffffffffffffffffffffffffffffffffff1916827bffffffffffffffffffffffffffffffffffffffffffffffffffffffff1916145b80611de15750611de082611de8565b5b9050919050565b60007f2203ab56000000000000000000000000000000000000000000000000000000007bffffffffffffffffffffffffffffffffffffffffffffffffffffffff1916827bffffffffffffffffffffffffffffffffffffffffffffffffffffffff19161480611e5b5750611e5a82611e62565b5b9050919050565b60007fd700ff33000000000000000000000000000000000000000000000000000000007bffffffffffffffffffffffffffffffffffffffffffffffffffffffff1916827bffffffffffffffffffffffffffffffffffffffffffffffffffffffff19161480611ed55750611ed482611edc565b5b9050919050565b60007f4fbf0433000000000000000000000000000000000000000000000000000000007bffffffffffffffffffffffffffffffffffffffffffffffffffffffff1916827bffffffffffffffffffffffffffffffffffffffffffffffffffffffff19161480611f4f5750611f4e82611f56565b5b9050919050565b60007f01ffc9a7000000000000000000000000000000000000000000000000000000007bffffffffffffffffffffffffffffffffffffffffffffffffffffffff1916827bffffffffffffffffffffffffffffffffffffffffffffffffffffffff1916149050919050565b6000604051905090565b600080fd5b600080fd5b60007fffffffff0000000000000000000000000000000000000000000000000000000082169050919050565b61200981611fd4565b811461201457600080fd5b50565b60008135905061202681612000565b92915050565b60006020828403121561204257612041611fca565b5b600061205084828501612017565b91505092915050565b60008115159050919050565b61206e81612059565b82525050565b60006020820190506120896000830184612065565b92915050565b6000819050919050565b6120a28161208f565b81146120ad57600080fd5b50565b6000813590506120bf81612099565b92915050565b600080fd5b600080fd5b600080fd5b60008083601f8401126120ea576120e96120c5565b5b8235905067ffffffffffffffff811115612107576121066120ca565b5b602083019150836001820283011115612123576121226120cf565b5b9250929050565b60008060008060006060868803121561214657612145611fca565b5b6000612154888289016120b0565b955050602086013567ffffffffffffffff81111561217557612174611fcf565b5b612181888289016120d4565b9450945050604086013567ffffffffffffffff8111156121a4576121a3611fcf565b5b6121b0888289016120d4565b92509250509295509295909350565b600080604083850312156121d6576121d5611fca565b5b60006121e4858286016120b0565b92505060206121f585828601612017565b9150509250929050565b600073ffffffffffffffffffffffffffffffffffffffff82169050919050565b600061222a826121ff565b9050919050565b61223a8161221f565b82525050565b60006020820190506122556000830184612231565b92915050565b6000819050919050565b61226e8161225b565b811461227957600080fd5b50565b60008135905061228b81612265565b92915050565b600080604083850312156122a8576122a7611fca565b5b60006122b6858286016120b0565b92505060206122c78582860161227c565b9150509250929050565b6122da8161225b565b82525050565b600081519050919050565b600082825260208201905092915050565b60005b8381101561231a5780820151818401526020810190506122ff565b60008484015250505050565b6000601f19601f8301169050919050565b6000612342826122e0565b61234c81856122eb565b935061235c8185602086016122fc565b61236581612326565b840191505092915050565b600060408201905061238560008301856122d1565b81810360208301526123978184612337565b90509392505050565b6000806000606084860312156123b9576123b8611fca565b5b60006123c7868287016120b0565b93505060206123d8868287016120b0565b92505060406123e9868287016120b0565b9150509250925092565b60008083601f840112612409576124086120c5565b5b8235905067ffffffffffffffff811115612426576124256120ca565b5b602083019150836001820283011115612442576124416120cf565b5b9250929050565b60008060006040848603121561246257612461611fca565b5b6000612470868287016120b0565b935050602084013567ffffffffffffffff81111561249157612490611fcf565b5b61249d868287016123f3565b92509250509250925092565b6000602082840312156124bf576124be611fca565b5b60006124cd848285016120b0565b91505092915050565b60006124e1826121ff565b9050919050565b6124f1816124d6565b82525050565b600060208201905061250c60008301846124e8565b92915050565b60008060006040848603121561252b5761252a611fca565b5b6000612539868287016120b0565b935050602084013567ffffffffffffffff81111561255a57612559611fcf565b5b612566868287016120d4565b92509250509250925092565b600081519050919050565b600082825260208201905092915050565b600061259982612572565b6125a3818561257d565b93506125b38185602086016122fc565b6125bc81612326565b840191505092915050565b600060208201905081810360008301526125e1818461258e565b905092915050565b6000806000806060858703121561260357612602611fca565b5b6000612611878288016120b0565b94505060206126228782880161227c565b935050604085013567ffffffffffffffff81111561264357612642611fcf565b5b61264f878288016123f3565b925092505092959194509250565b600080fd5b7f4e487b7100000000000000000000000000000000000000000000000000000000600052604160045260246000fd5b61269a82612326565b810181811067ffffffffffffffff821117156126b9576126b8612662565b5b80604052505050565b60006126cc611fc0565b90506126d88282612691565b919050565b600067ffffffffffffffff8211156126f8576126f7612662565b5b61270182612326565b9050602081019050919050565b82818337600083830152505050565b600061273061272b846126dd565b6126c2565b90508281526020810184848401111561274c5761274b61265d565b5b61275784828561270e565b509392505050565b600082601f830112612774576127736120c5565b5b813561278484826020860161271d565b91505092915050565b6000806000606084860312156127a6576127a5611fca565b5b60006127b4868287016120b0565b93505060206127c58682870161227c565b925050604084013567ffffffffffffffff8111156127e6576127e5611fcf565b5b6127f28682870161275f565b9150509250925092565b6000806040838503121561281357612812611fca565b5b600083013567ffffffffffffffff81111561283157612830611fcf565b5b61283d8582860161275f565b925050602083013567ffffffffffffffff81111561285e5761285d611fcf565b5b61286a8582860161275f565b9150509250929050565b6000602082019050818103600083015261288e8184612337565b905092915050565b60008083601f8401126128ac576128ab6120c5565b5b8235905067ffffffffffffffff8111156128c9576128c86120ca565b5b6020830191508360208202830111156128e5576128e46120cf565b5b9250929050565b6000806020838503121561290357612902611fca565b5b600083013567ffffffffffffffff81111561292157612920611fcf565b5b61292d85828601612896565b92509250509250929050565b600081519050919050565b600082825260208201905092915050565b6000819050602082019050919050565b600082825260208201905092915050565b6000612981826122e0565b61298b8185612965565b935061299b8185602086016122fc565b6129a481612326565b840191505092915050565b60006129bb8383612976565b905092915050565b6000602082019050919050565b60006129db82612939565b6129e58185612944565b9350836020820285016129f785612955565b8060005b85811015612a335784840389528151612a1485826129af565b9450612a1f836129c3565b925060208a019950506001810190506129fb565b50829750879550505050505092915050565b60006020820190508181036000830152612a5f81846129d0565b905092915050565b612a708161208f565b82525050565b6000604082019050612a8b6000830185612a67565b612a986020830184612a67565b9392505050565b612aa88161221f565b8114612ab357600080fd5b50565b600081359050612ac581612a9f565b92915050565b60008060408385031215612ae257612ae1611fca565b5b6000612af0858286016120b0565b9250506020612b0185828601612ab6565b9150509250929050565b600067ffffffffffffffff82169050919050565b612b2881612b0b565b82525050565b6000602082019050612b436000830184612b1f565b92915050565b600080600060408486031215612b6257612b61611fca565b5b6000612b70868287016120b0565b935050602084013567ffffffffffffffff811115612b9157612b90611fcf565b5b612b9d86828701612896565b92509250509250925092565b600080600060608486031215612bc257612bc1611fca565b5b6000612bd0868287016120b0565b9350506020612be186828701612017565b9250506040612bf286828701612ab6565b9150509250925092565b600081905092915050565b6000612c138385612bfc565b9350612c2083858461270e565b82840190509392505050565b6000612c39828486612c07565b91508190509392505050565b600082905092915050565b7f4e487b7100000000000000000000000000000000000000000000000000000000600052602260045260246000fd5b60006002820490506001821680612c9757607f821691505b602082108103612caa57612ca9612c50565b5b50919050565b60008190508160005260206000209050919050565b60006020601f8301049050919050565b600082821b905092915050565b600060088302612d127fffffffffffffffffffffffffffffffffffffffffffffffffffffffffffffffff82612cd5565b612d1c8683612cd5565b95508019841693508086168417925050509392505050565b6000819050919050565b6000612d59612d54612d4f8461225b565b612d34565b61225b565b9050919050565b6000819050919050565b612d7383612d3e565b612d87612d7f82612d60565b848454612ce2565b825550505050565b600090565b612d9c612d8f565b612da7818484612d6a565b505050565b5b81811015612dcb57612dc0600082612d94565b600181019050612dad565b5050565b601f821115612e1057612de181612cb0565b612dea84612cc5565b81016020851015612df9578190505b612e0d612e0585612cc5565b830182612dac565b50505b505050565b600082821c905092915050565b6000612e3360001984600802612e15565b1980831691505092915050565b6000612e4c8383612e22565b9150826002028217905092915050565b612e668383612c45565b67ffffffffffffffff811115612e7f57612e7e612662565b5b612e898254612c7f565b612e94828285612dcf565b6000601f831160018114612ec35760008415612eb1578287013590505b612ebb8582612e40565b865550612f23565b601f198416612ed186612cb0565b60005b82811015612ef957848901358255600182019150602085019450602081019050612ed4565b86831015612f165784890135612f12601f891682612e22565b8355505b6001600288020188555050505b50505050505050565b6000612f38838561257d565b9350612f4583858461270e565b612f4e83612326565b840190509392505050565b60006040820190508181036000830152612f74818688612f2c565b90508181036020830152612f89818486612f2c565b905095945050505050565b612f9d81611fd4565b82525050565b6000602082019050612fb86000830184612f94565b92915050565b600081905092915050565b6000612fd4826122e0565b612fde8185612fbe565b9350612fee8185602086016122fc565b80840191505092915050565b60006130068284612fc9565b915081905092915050565b7f4e487b7100000000000000000000000000000000000000000000000000000000600052603260045260246000fd5b600082905092915050565b60008190508160005260206000209050919050565b601f8211156130a1576130728161304b565b61307b84612cc5565b8101602085101561308a578190505b61309e61309685612cc5565b830182612dac565b50505b505050565b6130b08383613040565b67ffffffffffffffff8111156130c9576130c8612662565b5b6130d38254612c7f565b6130de828285613060565b6000601f83116001811461310d57600084156130fb578287013590505b6131058582612e40565b86555061316d565b601f19841661311b8661304b565b60005b828110156131435784890135825560018201915060208501945060208101905061311e565b86831015613160578489013561315c601f891682612e22565b8355505b6001600288020188555050505b50505050505050565b600061318283856122eb565b935061318f83858461270e565b61319883612326565b840190509392505050565b600060208201905081810360008301526131be818486613176565b90509392505050565b7f4e487b7100000000000000000000000000000000000000000000000000000000600052601160045260246000fd5b600061320182612b0b565b915067ffffffffffffffff820361321b5761321a6131c7565b5b600182019050919050565b60006132318261225b565b915061323c8361225b565b9250828203905081811115613254576132536131c7565b5b92915050565b7f636f6e74656e745479706520756e737570706f72746564000000000000000000600082015250565b600061329060178361257d565b915061329b8261325a565b602082019050919050565b600060208201905081810360008301526132bf81613283565b9050919050565b600060208201905081810360008301526132e1818486612f2c565b90509392505050565b60006133056133006132fb846121ff565b612d34565b6121ff565b9050919050565b6000613317826132ea565b9050919050565b60006133298261330c565b9050919050565b6133398161331e565b82525050565b60006020820190506133546000830184613330565b92915050565b613363826122e0565b67ffffffffffffffff81111561337c5761337b612662565b5b6133868254612c7f565b613391828285613060565b600060209050601f8311600181146133c457600084156133b2578287015190505b6133bc8582612e40565b865550613424565b601f1984166133d28661304b565b60005b828110156133fa578489015182556001820191506020850194506020810190506133d5565b868310156134175784890151613413601f891682612e22565b8355505b6001600288020188555050505b505050505050565b60006040820190506134416000830185612a67565b61344e6020830184612231565b9392505050565b600080fd5b600080fd5b600080fd5b6000808335600160200384360303811261348157613480613455565b5b80840192508235915067ffffffffffffffff8211156134a3576134a261345a565b5b6020830192506001820236038313156134bf576134be61345f565b5b509250929050565b600080fd5b600080fd5b600080858511156134e5576134e46134c7565b5b838611156134f6576134f56134cc565b5b6001850283019150848603905094509492505050565b60006135188383613040565b82613523813561208f565b925060208210156135635761355e7fffffffffffffffffffffffffffffffffffffffffffffffffffffffffffffffff83602003600802612cd5565b831692505b505092915050565b7f6d756c746963616c6c3a20416c6c207265636f726473206d757374206861766560008201527f2061206d61746368696e67206e616d6568617368000000000000000000000000602082015250565b60006135c760348361257d565b91506135d28261356b565b604082019050919050565b600060208201905081810360008301526135f6816135ba565b9050919050565b60006136098385612fbe565b935061361683858461270e565b82840190509392505050565b600061362f8284866135fd565b91508190509392505050565b60006136468261225b565b91507fffffffffffffffffffffffffffffffffffffffffffffffffffffffffffffffff8203613678576136776131c7565b5b60018201905091905056fea26469706673582212205f6dbb8e73f1664a310f337955d672962f7ce3904944d10ad73f0ded36a47d7464736f6c63430008120033",
  "linkReferences": {},
  "deployedLinkReferences": {}
}