{
  "_format": "hh-sol-artifact-1",
  "contractName": "L2PublicResolver",
  "sourceName": "contracts/L2PublicResolver.sol",
  "abi": [
    {
      "anonymous": false,
      "inputs": [
        {
          "indexed": true,
          "internalType": "bytes32",
          "name": "node",
          "type": "bytes32"
        },
        {
          "indexed": true,
          "internalType": "bytes32",
          "name": "ownedNode",
          "type": "bytes32"
        },
        {
          "indexed": true,
          "internalType": "uint256",
          "name": "contentType",
          "type": "uint256"
        }
      ],
      "name": "ABIChanged",
      "type": "event"
    },
    {
      "anonymous": false,
      "inputs": [
        {
          "indexed": true,
          "internalType": "bytes32",
          "name": "node",
          "type": "bytes32"
        },
        {
          "indexed": true,
          "internalType": "uint256",
          "name": "contentType",
          "type": "uint256"
        }
      ],
      "name": "ABIChanged",
      "type": "event"
    },
    {
      "anonymous": false,
      "inputs": [
        {
          "indexed": true,
          "internalType": "bytes32",
          "name": "node",
          "type": "bytes32"
        },
        {
          "indexed": true,
          "internalType": "bytes32",
          "name": "ownedNode",
          "type": "bytes32"
        },
        {
          "indexed": false,
          "internalType": "address",
          "name": "a",
          "type": "address"
        }
      ],
      "name": "AddrChanged",
      "type": "event"
    },
    {
      "anonymous": false,
      "inputs": [
        {
          "indexed": true,
          "internalType": "bytes32",
          "name": "node",
          "type": "bytes32"
        },
        {
          "indexed": false,
          "internalType": "address",
          "name": "a",
          "type": "address"
        }
      ],
      "name": "AddrChanged",
      "type": "event"
    },
    {
      "anonymous": false,
      "inputs": [
        {
          "indexed": true,
          "internalType": "bytes32",
          "name": "node",
          "type": "bytes32"
        },
        {
          "indexed": true,
          "internalType": "bytes32",
          "name": "ownedNode",
          "type": "bytes32"
        },
        {
          "indexed": false,
          "internalType": "uint256",
          "name": "coinType",
          "type": "uint256"
        },
        {
          "indexed": false,
          "internalType": "bytes",
          "name": "newAddress",
          "type": "bytes"
        }
      ],
      "name": "AddressChanged",
      "type": "event"
    },
    {
      "anonymous": false,
      "inputs": [
        {
          "indexed": true,
          "internalType": "bytes32",
          "name": "node",
          "type": "bytes32"
        },
        {
          "indexed": false,
          "internalType": "uint256",
          "name": "coinType",
          "type": "uint256"
        },
        {
          "indexed": false,
          "internalType": "bytes",
          "name": "newAddress",
          "type": "bytes"
        }
      ],
      "name": "AddressChanged",
      "type": "event"
    },
    {
      "anonymous": false,
      "inputs": [
        {
          "indexed": true,
          "internalType": "bytes32",
          "name": "node",
          "type": "bytes32"
        },
        {
          "indexed": true,
          "internalType": "bytes32",
          "name": "ownedNode",
          "type": "bytes32"
        },
        {
          "indexed": false,
          "internalType": "bytes",
          "name": "hash",
          "type": "bytes"
        }
      ],
      "name": "ContenthashChanged",
      "type": "event"
    },
    {
      "anonymous": false,
      "inputs": [
        {
          "indexed": true,
          "internalType": "bytes32",
          "name": "node",
          "type": "bytes32"
        },
        {
          "indexed": false,
          "internalType": "bytes",
          "name": "hash",
          "type": "bytes"
        }
      ],
      "name": "ContenthashChanged",
      "type": "event"
    },
    {
      "anonymous": false,
      "inputs": [
        {
          "indexed": true,
          "internalType": "bytes32",
          "name": "node",
          "type": "bytes32"
        },
        {
          "indexed": true,
          "internalType": "bytes32",
          "name": "ownedNode",
          "type": "bytes32"
        },
        {
          "indexed": true,
          "internalType": "bytes4",
          "name": "interfaceID",
          "type": "bytes4"
        },
        {
          "indexed": false,
          "internalType": "address",
          "name": "implementer",
          "type": "address"
        }
      ],
      "name": "InterfaceChanged",
      "type": "event"
    },
    {
      "anonymous": false,
      "inputs": [
        {
          "indexed": true,
          "internalType": "bytes32",
          "name": "node",
          "type": "bytes32"
        },
        {
          "indexed": true,
          "internalType": "bytes4",
          "name": "interfaceID",
          "type": "bytes4"
        },
        {
          "indexed": false,
          "internalType": "address",
          "name": "implementer",
          "type": "address"
        }
      ],
      "name": "InterfaceChanged",
      "type": "event"
    },
    {
      "anonymous": false,
      "inputs": [
        {
          "indexed": true,
          "internalType": "bytes32",
          "name": "node",
          "type": "bytes32"
        },
        {
          "indexed": true,
          "internalType": "bytes32",
          "name": "ownedNode",
          "type": "bytes32"
        },
        {
          "indexed": false,
          "internalType": "string",
          "name": "name",
          "type": "string"
        }
      ],
      "name": "NameChanged",
      "type": "event"
    },
    {
      "anonymous": false,
      "inputs": [
        {
          "indexed": true,
          "internalType": "bytes32",
          "name": "node",
          "type": "bytes32"
        },
        {
          "indexed": false,
          "internalType": "string",
          "name": "name",
          "type": "string"
        }
      ],
      "name": "NameChanged",
      "type": "event"
    },
    {
      "anonymous": false,
      "inputs": [
        {
          "indexed": false,
          "internalType": "bytes",
          "name": "name",
          "type": "bytes"
        },
        {
          "indexed": true,
          "internalType": "bytes32",
          "name": "node",
          "type": "bytes32"
        }
      ],
      "name": "NameSet",
      "type": "event"
    },
    {
      "anonymous": false,
      "inputs": [
        {
          "indexed": true,
          "internalType": "bytes32",
          "name": "node",
          "type": "bytes32"
        },
        {
          "indexed": true,
          "internalType": "bytes32",
          "name": "ownedNode",
          "type": "bytes32"
        },
        {
          "indexed": false,
          "internalType": "bytes32",
          "name": "x",
          "type": "bytes32"
        },
        {
          "indexed": false,
          "internalType": "bytes32",
          "name": "y",
          "type": "bytes32"
        }
      ],
      "name": "PubkeyChanged",
      "type": "event"
    },
    {
      "anonymous": false,
      "inputs": [
        {
          "indexed": true,
          "internalType": "bytes32",
          "name": "node",
          "type": "bytes32"
        },
        {
          "indexed": false,
          "internalType": "bytes32",
          "name": "x",
          "type": "bytes32"
        },
        {
          "indexed": false,
          "internalType": "bytes32",
          "name": "y",
          "type": "bytes32"
        }
      ],
      "name": "PubkeyChanged",
      "type": "event"
    },
    {
      "anonymous": false,
      "inputs": [
        {
          "indexed": true,
          "internalType": "bytes32",
          "name": "node",
          "type": "bytes32"
        },
        {
          "indexed": true,
          "internalType": "bytes32",
          "name": "ownedNode",
          "type": "bytes32"
        },
        {
          "indexed": true,
          "internalType": "string",
          "name": "indexedKey",
          "type": "string"
        },
        {
          "indexed": false,
          "internalType": "string",
          "name": "key",
          "type": "string"
        },
        {
          "indexed": false,
          "internalType": "string",
          "name": "value",
          "type": "string"
        }
      ],
      "name": "TextChanged",
      "type": "event"
    },
    {
      "anonymous": false,
      "inputs": [
        {
          "indexed": true,
          "internalType": "bytes32",
          "name": "node",
          "type": "bytes32"
        },
        {
          "indexed": true,
          "internalType": "string",
          "name": "indexedKey",
          "type": "string"
        },
        {
          "indexed": false,
          "internalType": "string",
          "name": "key",
          "type": "string"
        },
        {
          "indexed": false,
          "internalType": "string",
          "name": "value",
          "type": "string"
        }
      ],
      "name": "TextChanged",
      "type": "event"
    },
    {
      "anonymous": false,
      "inputs": [
        {
          "indexed": true,
          "internalType": "bytes32",
          "name": "node",
          "type": "bytes32"
        },
        {
          "indexed": false,
          "internalType": "uint64",
          "name": "newVersion",
          "type": "uint64"
        }
      ],
      "name": "VersionChanged",
      "type": "event"
    },
    {
      "inputs": [
        {
          "internalType": "bytes32",
          "name": "node",
          "type": "bytes32"
        },
        {
          "internalType": "uint256",
          "name": "contentTypes",
          "type": "uint256"
        }
      ],
      "name": "ABI",
      "outputs": [
        {
          "internalType": "uint256",
          "name": "",
          "type": "uint256"
        },
        {
          "internalType": "bytes",
          "name": "",
          "type": "bytes"
        }
      ],
      "stateMutability": "view",
      "type": "function"
    },
    {
      "inputs": [
        {
          "internalType": "bytes32",
          "name": "node",
          "type": "bytes32"
        }
      ],
      "name": "addr",
      "outputs": [
        {
          "internalType": "address payable",
          "name": "",
          "type": "address"
        }
      ],
      "stateMutability": "view",
      "type": "function"
    },
    {
      "inputs": [
        {
          "internalType": "bytes32",
          "name": "node",
          "type": "bytes32"
        },
        {
          "internalType": "uint256",
          "name": "coinType",
          "type": "uint256"
        }
      ],
      "name": "addr",
      "outputs": [
        {
          "internalType": "bytes",
          "name": "",
          "type": "bytes"
        }
      ],
      "stateMutability": "view",
      "type": "function"
    },
    {
      "inputs": [
        {
          "internalType": "bytes32",
          "name": "node",
          "type": "bytes32"
        }
      ],
      "name": "clearRecords",
      "outputs": [],
      "stateMutability": "nonpayable",
      "type": "function"
    },
    {
      "inputs": [
        {
          "internalType": "bytes32",
          "name": "node",
          "type": "bytes32"
        }
      ],
      "name": "contenthash",
      "outputs": [
        {
          "internalType": "bytes",
          "name": "",
          "type": "bytes"
        }
      ],
      "stateMutability": "view",
      "type": "function"
    },
    {
      "inputs": [
        {
          "internalType": "bytes32",
          "name": "node",
          "type": "bytes32"
        },
        {
          "internalType": "bytes4",
          "name": "interfaceID",
          "type": "bytes4"
        }
      ],
      "name": "interfaceImplementer",
      "outputs": [
        {
          "internalType": "address",
          "name": "",
          "type": "address"
        }
      ],
      "stateMutability": "view",
      "type": "function"
    },
    {
      "inputs": [
        {
          "internalType": "bytes[]",
          "name": "data",
          "type": "bytes[]"
        }
      ],
      "name": "multicall",
      "outputs": [
        {
          "internalType": "bytes[]",
          "name": "results",
          "type": "bytes[]"
        }
      ],
      "stateMutability": "nonpayable",
      "type": "function"
    },
    {
      "inputs": [
        {
          "internalType": "bytes32",
          "name": "nodehash",
          "type": "bytes32"
        },
        {
          "internalType": "bytes[]",
          "name": "data",
          "type": "bytes[]"
        }
      ],
      "name": "multicallWithNodeCheck",
      "outputs": [
        {
          "internalType": "bytes[]",
          "name": "results",
          "type": "bytes[]"
        }
      ],
      "stateMutability": "nonpayable",
      "type": "function"
    },
    {
      "inputs": [
        {
          "internalType": "bytes32",
          "name": "node",
          "type": "bytes32"
        }
      ],
      "name": "name",
      "outputs": [
        {
          "internalType": "string",
          "name": "",
          "type": "string"
        }
      ],
      "stateMutability": "view",
      "type": "function"
    },
    {
      "inputs": [
        {
          "internalType": "bytes32",
          "name": "node",
          "type": "bytes32"
        }
      ],
      "name": "pubkey",
      "outputs": [
        {
          "internalType": "bytes32",
          "name": "x",
          "type": "bytes32"
        },
        {
          "internalType": "bytes32",
          "name": "y",
          "type": "bytes32"
        }
      ],
      "stateMutability": "view",
      "type": "function"
    },
    {
      "inputs": [
        {
          "internalType": "bytes32",
          "name": "",
          "type": "bytes32"
        }
      ],
      "name": "recordVersions",
      "outputs": [
        {
          "internalType": "uint64",
          "name": "",
          "type": "uint64"
        }
      ],
      "stateMutability": "view",
      "type": "function"
    },
    {
      "inputs": [
        {
          "internalType": "bytes",
          "name": "",
          "type": "bytes"
        },
        {
          "internalType": "bytes",
          "name": "data",
          "type": "bytes"
        }
      ],
      "name": "resolve",
      "outputs": [
        {
          "internalType": "bytes",
          "name": "",
          "type": "bytes"
        }
      ],
      "stateMutability": "view",
      "type": "function"
    },
    {
      "inputs": [
        {
          "internalType": "bytes32",
          "name": "node",
          "type": "bytes32"
        },
        {
          "internalType": "uint256",
          "name": "contentType",
          "type": "uint256"
        },
        {
          "internalType": "bytes",
          "name": "data",
          "type": "bytes"
        }
      ],
      "name": "setABI",
      "outputs": [],
      "stateMutability": "nonpayable",
      "type": "function"
    },
    {
      "inputs": [
        {
          "internalType": "bytes32",
          "name": "node",
          "type": "bytes32"
        },
        {
          "internalType": "uint256",
          "name": "coinType",
          "type": "uint256"
        },
        {
          "internalType": "bytes",
          "name": "a",
          "type": "bytes"
        }
      ],
      "name": "setAddr",
      "outputs": [],
      "stateMutability": "nonpayable",
      "type": "function"
    },
    {
      "inputs": [
        {
          "internalType": "bytes32",
          "name": "node",
          "type": "bytes32"
        },
        {
          "internalType": "address",
          "name": "a",
          "type": "address"
        }
      ],
      "name": "setAddr",
      "outputs": [],
      "stateMutability": "nonpayable",
      "type": "function"
    },
    {
      "inputs": [
        {
          "internalType": "bytes",
          "name": "name",
          "type": "bytes"
        },
        {
          "internalType": "address",
          "name": "a",
          "type": "address"
        }
      ],
      "name": "setAddrWithName",
      "outputs": [],
      "stateMutability": "nonpayable",
      "type": "function"
    },
    {
      "inputs": [
        {
          "internalType": "bytes32",
          "name": "node",
          "type": "bytes32"
        },
        {
          "internalType": "bytes",
          "name": "hash",
          "type": "bytes"
        }
      ],
      "name": "setContenthash",
      "outputs": [],
      "stateMutability": "nonpayable",
      "type": "function"
    },
    {
      "inputs": [
        {
          "internalType": "bytes32",
          "name": "node",
          "type": "bytes32"
        },
        {
          "internalType": "bytes4",
          "name": "interfaceID",
          "type": "bytes4"
        },
        {
          "internalType": "address",
          "name": "implementer",
          "type": "address"
        }
      ],
      "name": "setInterface",
      "outputs": [],
      "stateMutability": "nonpayable",
      "type": "function"
    },
    {
      "inputs": [
        {
          "internalType": "bytes32",
          "name": "node",
          "type": "bytes32"
        },
        {
          "internalType": "string",
          "name": "newName",
          "type": "string"
        }
      ],
      "name": "setName",
      "outputs": [],
      "stateMutability": "nonpayable",
      "type": "function"
    },
    {
      "inputs": [
        {
          "internalType": "bytes32",
          "name": "node",
          "type": "bytes32"
        },
        {
          "internalType": "bytes32",
          "name": "x",
          "type": "bytes32"
        },
        {
          "internalType": "bytes32",
          "name": "y",
          "type": "bytes32"
        }
      ],
      "name": "setPubkey",
      "outputs": [],
      "stateMutability": "nonpayable",
      "type": "function"
    },
    {
      "inputs": [
        {
          "internalType": "bytes32",
          "name": "node",
          "type": "bytes32"
        },
        {
          "internalType": "string",
          "name": "key",
          "type": "string"
        },
        {
          "internalType": "string",
          "name": "value",
          "type": "string"
        }
      ],
      "name": "setText",
      "outputs": [],
      "stateMutability": "nonpayable",
      "type": "function"
    },
    {
      "inputs": [
        {
          "internalType": "bytes4",
          "name": "interfaceID",
          "type": "bytes4"
        }
      ],
      "name": "supportsInterface",
      "outputs": [
        {
          "internalType": "bool",
          "name": "",
          "type": "bool"
        }
      ],
      "stateMutability": "view",
      "type": "function"
    },
    {
      "inputs": [
        {
          "internalType": "bytes32",
          "name": "node",
          "type": "bytes32"
        },
        {
          "internalType": "string",
          "name": "key",
          "type": "string"
        }
      ],
      "name": "text",
      "outputs": [
        {
          "internalType": "string",
          "name": "",
          "type": "string"
        }
      ],
      "stateMutability": "view",
      "type": "function"
    }
  ],
  "bytecode": "0x608060405234801561001057600080fd5b50613f79806100206000396000f3fe608060405234801561001057600080fd5b506004361061014d5760003560e01c8063691f3431116100c3578063c86902331161007c578063c8690233146103e3578063d5fa2b0014610414578063d700ff3314610430578063e32954eb14610460578063e59d895d14610490578063f1cb7e06146104ac5761014d565b8063691f3431146102eb578063773722131461031b5780638b95dd71146103375780639061b92314610353578063ac9650d814610383578063bc1c58d1146103b35761014d565b8063304e6ade11610115578063304e6ade1461021b5780633603d758146102375780633b3b57de1461025357806359d1d43c146102835780635f1187e1146102b3578063623195b0146102cf5761014d565b806301ffc9a71461015257806310f13a8c14610182578063124a319c1461019e5780632203ab56146101ce57806329cd62ea146101ff575b600080fd5b61016c600480360381019061016791906126ec565b6104dc565b6040516101799190612734565b60405180910390f35b61019c600480360381019061019791906127ea565b6104ee565b005b6101b860048036038101906101b3919061287f565b6105e7565b6040516101c59190612900565b60405180910390f35b6101e860048036038101906101e39190612951565b610a42565b6040516101f6929190612a30565b60405180910390f35b61021960048036038101906102149190612a60565b610bc2565b005b61023560048036038101906102309190612b09565b610c9b565b005b610251600480360381019061024c9190612b69565b610d58565b005b61026d60048036038101906102689190612b69565b610e2a565b60405161027a9190612bb7565b60405180910390f35b61029d60048036038101906102989190612bd2565b610e5f565b6040516102aa9190612c87565b60405180910390f35b6102cd60048036038101906102c89190612e05565b610f6f565b005b6102e960048036038101906102e49190612e61565b6111a5565b005b61030560048036038101906103009190612b69565b6112b9565b6040516103129190612c87565b60405180910390f35b61033560048036038101906103309190612bd2565b6113a9565b005b610351600480360381019061034c9190612ed5565b611466565b005b61036d60048036038101906103689190612f44565b61157c565b60405161037a9190612fbc565b60405180910390f35b61039d60048036038101906103989190613034565b611609565b6040516103aa919061318d565b60405180910390f35b6103cd60048036038101906103c89190612b69565b611621565b6040516103da9190612fbc565b60405180910390f35b6103fd60048036038101906103f89190612b69565b611711565b60405161040b9291906131be565b60405180910390f35b61042e600480360381019061042991906131e7565b6117c1565b005b61044a60048036038101906104459190612b69565b6117d9565b604051610457919061324a565b60405180910390f35b61047a60048036038101906104759190613265565b611800565b604051610487919061318d565b60405180910390f35b6104aa60048036038101906104a591906132c5565b611816565b005b6104c660048036038101906104c19190612951565b61196f565b6040516104d39190612fbc565b60405180910390f35b60006104e782611a71565b9050919050565b60006104fa8633611aeb565b905082826007600080600086815260200190815260200160002060009054906101000a900467ffffffffffffffff1667ffffffffffffffff1667ffffffffffffffff1681526020019081526020016000206000848152602001908152602001600020878760405161056c929190613348565b90815260200160405180910390209182610587929190613578565b508484604051610598929190613348565b604051809103902081877fcefe17812d4ed695d621aea4c66b337785c3e22761d211181b2aaf89b4286000888888886040516105d79493929190613675565b60405180910390a4505050505050565b6000806004600080600087815260200190815260200160002060009054906101000a900467ffffffffffffffff1667ffffffffffffffff1667ffffffffffffffff16815260200190815260200160002060008581526020019081526020016000206000847bffffffffffffffffffffffffffffffffffffffffffffffffffffffff19167bffffffffffffffffffffffffffffffffffffffffffffffffffffffff1916815260200190815260200160002060009054906101000a900473ffffffffffffffffffffffffffffffffffffffff169050600073ffffffffffffffffffffffffffffffffffffffff168173ffffffffffffffffffffffffffffffffffffffff16146106f75780915050610a3c565b600061070285610e2a565b9050600073ffffffffffffffffffffffffffffffffffffffff168173ffffffffffffffffffffffffffffffffffffffff160361074357600092505050610a3c565b6000808273ffffffffffffffffffffffffffffffffffffffff167f01ffc9a70000000000000000000000000000000000000000000000000000000060405160240161078e91906136bf565b6040516020818303038152906040527f01ffc9a7000000000000000000000000000000000000000000000000000000007bffffffffffffffffffffffffffffffffffffffffffffffffffffffff19166020820180517bffffffffffffffffffffffffffffffffffffffffffffffffffffffff83818316178352505050506040516108189190613716565b600060405180830381855afa9150503d8060008114610853576040519150601f19603f3d011682016040523d82523d6000602084013e610858565b606091505b509150915081158061086b575060208151105b806108b95750600060f81b81601f8151811061088a5761088961372d565b5b602001015160f81c60f81b7effffffffffffffffffffffffffffffffffffffffffffffffffffffffffffff1916145b156108cb576000945050505050610a3c565b8273ffffffffffffffffffffffffffffffffffffffff16866040516024016108f391906136bf565b6040516020818303038152906040527f01ffc9a7000000000000000000000000000000000000000000000000000000007bffffffffffffffffffffffffffffffffffffffffffffffffffffffff19166020820180517bffffffffffffffffffffffffffffffffffffffffffffffffffffffff838183161783525050505060405161097d9190613716565b600060405180830381855afa9150503d80600081146109b8576040519150601f19603f3d011682016040523d82523d6000602084013e6109bd565b606091505b5080925081935050508115806109d4575060208151105b80610a225750600060f81b81601f815181106109f3576109f261372d565b5b602001015160f81c60f81b7effffffffffffffffffffffffffffffffffffffffffffffffffffffffffffff1916145b15610a34576000945050505050610a3c565b829450505050505b92915050565b6000606060006001600080600088815260200190815260200160002060009054906101000a900467ffffffffffffffff1667ffffffffffffffff1667ffffffffffffffff168152602001908152602001600020600086815260200190815260200160002090506000600190505b848111610ba257600085821614158015610ae7575060008260008381526020019081526020016000208054610ae39061339b565b9050115b15610b965780826000838152602001908152602001600020808054610b0b9061339b565b80601f0160208091040260200160405190810160405280929190818152602001828054610b379061339b565b8015610b845780601f10610b5957610100808354040283529160200191610b84565b820191906000526020600020905b815481529060010190602001808311610b6757829003601f168201915b50505050509050935093505050610bbb565b600181901b9050610aaf565b5060006040518060200160405280600081525092509250505b9250929050565b6000610bce8433611aeb565b90506040518060400160405280848152602001838152506006600080600085815260200190815260200160002060009054906101000a900467ffffffffffffffff1667ffffffffffffffff1667ffffffffffffffff1681526020019081526020016000206000838152602001908152602001600020600082015181600001556020820151816001015590505080847fac51b70d026ee1f6f37d0e66b888ec98d380783a333e709115c0114dda9fe2028585604051610c8d9291906131be565b60405180910390a350505050565b6000610ca78433611aeb565b905082826003600080600086815260200190815260200160002060009054906101000a900467ffffffffffffffff1667ffffffffffffffff1667ffffffffffffffff16815260200190815260200160002060008481526020019081526020016000209182610d169291906137c2565b5080847fbb6523661ea6684e226cb3bf71a7327f333276d02dcb58e85b81864cb9cea4df8585604051610d4a9291906138bf565b60405180910390a350505050565b80610d6281611b1e565b610d6b57600080fd5b600080838152602001908152602001600020600081819054906101000a900467ffffffffffffffff1680929190610da190613912565b91906101000a81548167ffffffffffffffff021916908367ffffffffffffffff16021790555050817fc6621ccb8f3f5a04bb6502154b2caf6adf5983fe76dfef1cfc9c42e3579db44460008085815260200190815260200160002060009054906101000a900467ffffffffffffffff16604051610e1e919061324a565b60405180910390a25050565b600080610e3883603c61196f565b90506000815103610e4d576000915050610e5a565b610e5681611b25565b9150505b919050565b60606007600080600087815260200190815260200160002060009054906101000a900467ffffffffffffffff1667ffffffffffffffff1667ffffffffffffffff16815260200190815260200160002060008581526020019081526020016000208383604051610ecf929190613348565b90815260200160405180910390208054610ee89061339b565b80601f0160208091040260200160405190810160405280929190818152602001828054610f149061339b565b8015610f615780601f10610f3657610100808354040283529160200191610f61565b820191906000526020600020905b815481529060010190602001808311610f4457829003601f168201915b505050505090509392505050565b610fad6040518060400160405280601481526020017f2a2a2a2a73657441646472576974684e616d6531000000000000000000000000815250611b48565b610fb682611be1565b610ff56040518060400160405280601481526020017f2a2a2a2a73657441646472576974684e616d653200000000000000000000000081525082611c7a565b60008061100c600085611d1690919063ffffffff16565b9150915061104e6040518060400160405280601e81526020017f2a2a2a2a73657441646472576974684e616d65333a6c6162656c686173680000815250611b48565b61105782611dd4565b600061106c8286611e6d90919063ffffffff16565b90506110ac6040518060400160405280601f81526020017f2a2a2a2a73657441646472576974684e616d65343a706172656e744e6f646500815250611b48565b6110b581611dd4565b60006110c18285611f23565b90506111016040518060400160405280601981526020017f2a2a2a2a73657441646472576974684e616d65353a6e6f646500000000000000815250611b48565b61110a81611dd4565b6111486040518060400160405280601981526020017f2a2a2a2a73657441646472576974684e616d65363a6e616d6500000000000000815250611b48565b61115186611be1565b807f76f269ef8c9e7a74355ff324bc6ee97f548760b93b5066328ede7d6592b3c16c876040516111819190612fbc565b60405180910390a261119d81603c61119888611f56565b611466565b505050505050565b6000836001856111b59190613942565b16146111f6576040517f08c379a00000000000000000000000000000000000000000000000000000000081526004016111ed906139c2565b60405180910390fd5b60006112028533611aeb565b905082826001600080600086815260200190815260200160002060009054906101000a900467ffffffffffffffff1667ffffffffffffffff1667ffffffffffffffff1681526020019081526020016000206000848152602001908152602001600020600087815260200190815260200160002091826112829291906137c2565b508381867ffd8dd7948772358afbc8db7ca43db6ea52260276b8fe2080a13208eceb9d96c560405160405180910390a45050505050565b60606005600080600085815260200190815260200160002060009054906101000a900467ffffffffffffffff1667ffffffffffffffff1667ffffffffffffffff168152602001908152602001600020600083815260200190815260200160002080546113249061339b565b80601f01602080910402602001604051908101604052809291908181526020018280546113509061339b565b801561139d5780601f106113725761010080835404028352916020019161139d565b820191906000526020600020905b81548152906001019060200180831161138057829003601f168201915b50505050509050919050565b60006113b58433611aeb565b905082826005600080600086815260200190815260200160002060009054906101000a900467ffffffffffffffff1667ffffffffffffffff1667ffffffffffffffff16815260200190815260200160002060008481526020019081526020016000209182611424929190613578565b5080847f2639d6a754e663f33fa37122cb0b1ecfd4994404c428974de9658ff11277a0c185856040516114589291906139e2565b60405180910390a350505050565b60006114728433611aeb565b905080847fc6462a6245d1daf0a70dd8ea9c65495bb68ef5d3ddef46751e3e925b142a974b85856040516114a7929190612a30565b60405180910390a3603c83036114f95780847f5ed0598a4cd81b674e14da28790d8ac3909ab1a513feb4583f6388f713c4ba9e6114e385611b25565b6040516114f09190613a5b565b60405180910390a35b816002600080600085815260200190815260200160002060009054906101000a900467ffffffffffffffff1667ffffffffffffffff1667ffffffffffffffff1681526020019081526020016000206000838152602001908152602001600020600085815260200190815260200160002090816115759190613a76565b5050505050565b60606000803073ffffffffffffffffffffffffffffffffffffffff16846040516115a69190613716565b600060405180830381855afa9150503d80600081146115e1576040519150601f19603f3d011682016040523d82523d6000602084013e6115e6565b606091505b509150915081156115fb578092505050611603565b805160208201fd5b92915050565b60606116196000801b8484611fba565b905092915050565b60606003600080600085815260200190815260200160002060009054906101000a900467ffffffffffffffff1667ffffffffffffffff1667ffffffffffffffff1681526020019081526020016000206000838152602001908152602001600020805461168c9061339b565b80601f01602080910402602001604051908101604052809291908181526020018280546116b89061339b565b80156117055780601f106116da57610100808354040283529160200191611705565b820191906000526020600020905b8154815290600101906020018083116116e857829003601f168201915b50505050509050919050565b600080600080600085815260200190815260200160002060009054906101000a900467ffffffffffffffff169050600660008267ffffffffffffffff1667ffffffffffffffff168152602001908152602001600020600085815260200190815260200160002060000154600660008367ffffffffffffffff1667ffffffffffffffff1681526020019081526020016000206000868152602001908152602001600020600101549250925050915091565b6117d582603c6117d084611f56565b611466565b5050565b60006020528060005260406000206000915054906101000a900467ffffffffffffffff1681565b606061180d848484611fba565b90509392505050565b60006118228433611aeb565b9050816004600080600085815260200190815260200160002060009054906101000a900467ffffffffffffffff1667ffffffffffffffff1667ffffffffffffffff16815260200190815260200160002060008381526020019081526020016000206000857bffffffffffffffffffffffffffffffffffffffffffffffffffffffff19167bffffffffffffffffffffffffffffffffffffffffffffffffffffffff1916815260200190815260200160002060006101000a81548173ffffffffffffffffffffffffffffffffffffffff021916908373ffffffffffffffffffffffffffffffffffffffff160217905550827bffffffffffffffffffffffffffffffffffffffffffffffffffffffff191681857f14824e8ba843c4fd7adbf745d85fedff5a741185d12e2de1bb15773196ca367c856040516119619190612900565b60405180910390a450505050565b60606002600080600086815260200190815260200160002060009054906101000a900467ffffffffffffffff1667ffffffffffffffff1667ffffffffffffffff1681526020019081526020016000206000848152602001908152602001600020600083815260200190815260200160002080546119eb9061339b565b80601f0160208091040260200160405190810160405280929190818152602001828054611a179061339b565b8015611a645780601f10611a3957610100808354040283529160200191611a64565b820191906000526020600020905b815481529060010190602001808311611a4757829003601f168201915b5050505050905092915050565b60007f59d1d43c000000000000000000000000000000000000000000000000000000007bffffffffffffffffffffffffffffffffffffffffffffffffffffffff1916827bffffffffffffffffffffffffffffffffffffffffffffffffffffffff19161480611ae45750611ae382612189565b5b9050919050565b60008282604051602001611b00929190613b48565b60405160208183030381529060405280519060200120905092915050565b6000919050565b60006014825114611b3557600080fd5b600c6101000a6020830151049050919050565b611bde81604051602401611b5c9190612c87565b6040516020818303038152906040527f41304fac000000000000000000000000000000000000000000000000000000007bffffffffffffffffffffffffffffffffffffffffffffffffffffffff19166020820180517bffffffffffffffffffffffffffffffffffffffffffffffffffffffff8381831617835250505050612203565b50565b611c7781604051602401611bf59190612fbc565b6040516020818303038152906040527f0be77f56000000000000000000000000000000000000000000000000000000007bffffffffffffffffffffffffffffffffffffffffffffffffffffffff19166020820180517bffffffffffffffffffffffffffffffffffffffffffffffffffffffff8381831617835250505050612203565b50565b611d128282604051602401611c90929190613b71565b6040516020818303038152906040527f319af333000000000000000000000000000000000000000000000000000000007bffffffffffffffffffffffffffffffffffffffffffffffffffffffff19166020820180517bffffffffffffffffffffffffffffffffffffffffffffffffffffffff8381831617835250505050612203565b5050565b60008083518310611d5c576040517f08c379a0000000000000000000000000000000000000000000000000000000008152600401611d5390613bed565b60405180910390fd5b6000848481518110611d7157611d7061372d565b5b602001015160f81c60f81b60f81c60ff1690506000811115611dab57611da485600186611d9e9190613c0d565b8361222c565b9250611db2565b6000801b92505b60018185611dc09190613c0d565b611dca9190613c0d565b9150509250929050565b611e6a81604051602401611de89190613c41565b6040516020818303038152906040527f27b7cf85000000000000000000000000000000000000000000000000000000007bffffffffffffffffffffffffffffffffffffffffffffffffffffffff19166020820180517bffffffffffffffffffffffffffffffffffffffffffffffffffffffff8381831617835250505050612203565b50565b6000806000611e7c8585611d16565b915091506000801b8203611ee65760018551611e989190613942565b8414611ed9576040517f08c379a0000000000000000000000000000000000000000000000000000000008152600401611ed090613ca8565b60405180910390fd5b6000801b92505050611f1d565b611ef08582611e6d565b82604051602001611f02929190613ce9565b60405160208183030381529060405280519060200120925050505b92915050565b60008282604051602001611f38929190613ce9565b60405160208183030381529060405280519060200120905092915050565b6060601467ffffffffffffffff811115611f7357611f72612cae565b5b6040519080825280601f01601f191660200182016040528015611fa55781602001600182028036833780820191505090505b509050600c6101000a82026020820152919050565b60608282905067ffffffffffffffff811115611fd957611fd8612cae565b5b60405190808252806020026020018201604052801561200c57816020015b6060815260200190600190039081611ff75790505b50905060005b83839050811015612181576000801b85146120b157600084848381811061203c5761203b61372d565b5b905060200281019061204e9190613d24565b60049060249261206093929190613d91565b9061206b9190613dcc565b90508581146120af576040517f08c379a00000000000000000000000000000000000000000000000000000000081526004016120a690613e9d565b60405180910390fd5b505b6000803073ffffffffffffffffffffffffffffffffffffffff168686858181106120de576120dd61372d565b5b90506020028101906120f09190613d24565b6040516120fe929190613ee2565b600060405180830381855af49150503d8060008114612139576040519150601f19603f3d011682016040523d82523d6000602084013e61213e565b606091505b50915091508161214d57600080fd5b808484815181106121615761216061372d565b5b60200260200101819052505050808061217990613efb565b915050612012565b509392505050565b60007fc8690233000000000000000000000000000000000000000000000000000000007bffffffffffffffffffffffffffffffffffffffffffffffffffffffff1916827bffffffffffffffffffffffffffffffffffffffffffffffffffffffff191614806121fc57506121fb82612258565b5b9050919050565b60008151905060006a636f6e736f6c652e6c6f679050602083016000808483855afa5050505050565b60008351828461223c9190613c0d565b111561224757600080fd5b818360208601012090509392505050565b60007f691f3431000000000000000000000000000000000000000000000000000000007bffffffffffffffffffffffffffffffffffffffffffffffffffffffff1916827bffffffffffffffffffffffffffffffffffffffffffffffffffffffff191614806122cb57506122ca826122d2565b5b9050919050565b60007f124a319c000000000000000000000000000000000000000000000000000000007bffffffffffffffffffffffffffffffffffffffffffffffffffffffff1916827bffffffffffffffffffffffffffffffffffffffffffffffffffffffff1916148061234557506123448261234c565b5b9050919050565b60007fbc1c58d1000000000000000000000000000000000000000000000000000000007bffffffffffffffffffffffffffffffffffffffffffffffffffffffff1916827bffffffffffffffffffffffffffffffffffffffffffffffffffffffff191614806123bf57506123be826123c6565b5b9050919050565b60007f3b3b57de000000000000000000000000000000000000000000000000000000007bffffffffffffffffffffffffffffffffffffffffffffffffffffffff1916827bffffffffffffffffffffffffffffffffffffffffffffffffffffffff1916148061249157507ff1cb7e06000000000000000000000000000000000000000000000000000000007bffffffffffffffffffffffffffffffffffffffffffffffffffffffff1916827bffffffffffffffffffffffffffffffffffffffffffffffffffffffff1916145b806124a157506124a0826124a8565b5b9050919050565b60007f2203ab56000000000000000000000000000000000000000000000000000000007bffffffffffffffffffffffffffffffffffffffffffffffffffffffff1916827bffffffffffffffffffffffffffffffffffffffffffffffffffffffff1916148061251b575061251a82612522565b5b9050919050565b60007fd700ff33000000000000000000000000000000000000000000000000000000007bffffffffffffffffffffffffffffffffffffffffffffffffffffffff1916827bffffffffffffffffffffffffffffffffffffffffffffffffffffffff1916148061259557506125948261259c565b5b9050919050565b60007f4fbf0433000000000000000000000000000000000000000000000000000000007bffffffffffffffffffffffffffffffffffffffffffffffffffffffff1916827bffffffffffffffffffffffffffffffffffffffffffffffffffffffff1916148061260f575061260e82612616565b5b9050919050565b60007f01ffc9a7000000000000000000000000000000000000000000000000000000007bffffffffffffffffffffffffffffffffffffffffffffffffffffffff1916827bffffffffffffffffffffffffffffffffffffffffffffffffffffffff1916149050919050565b6000604051905090565b600080fd5b600080fd5b60007fffffffff0000000000000000000000000000000000000000000000000000000082169050919050565b6126c981612694565b81146126d457600080fd5b50565b6000813590506126e6816126c0565b92915050565b6000602082840312156127025761270161268a565b5b6000612710848285016126d7565b91505092915050565b60008115159050919050565b61272e81612719565b82525050565b60006020820190506127496000830184612725565b92915050565b6000819050919050565b6127628161274f565b811461276d57600080fd5b50565b60008135905061277f81612759565b92915050565b600080fd5b600080fd5b600080fd5b60008083601f8401126127aa576127a9612785565b5b8235905067ffffffffffffffff8111156127c7576127c661278a565b5b6020830191508360018202830111156127e3576127e261278f565b5b9250929050565b6000806000806000606086880312156128065761280561268a565b5b600061281488828901612770565b955050602086013567ffffffffffffffff8111156128355761283461268f565b5b61284188828901612794565b9450945050604086013567ffffffffffffffff8111156128645761286361268f565b5b61287088828901612794565b92509250509295509295909350565b600080604083850312156128965761289561268a565b5b60006128a485828601612770565b92505060206128b5858286016126d7565b9150509250929050565b600073ffffffffffffffffffffffffffffffffffffffff82169050919050565b60006128ea826128bf565b9050919050565b6128fa816128df565b82525050565b600060208201905061291560008301846128f1565b92915050565b6000819050919050565b61292e8161291b565b811461293957600080fd5b50565b60008135905061294b81612925565b92915050565b600080604083850312156129685761296761268a565b5b600061297685828601612770565b92505060206129878582860161293c565b9150509250929050565b61299a8161291b565b82525050565b600081519050919050565b600082825260208201905092915050565b60005b838110156129da5780820151818401526020810190506129bf565b60008484015250505050565b6000601f19601f8301169050919050565b6000612a02826129a0565b612a0c81856129ab565b9350612a1c8185602086016129bc565b612a25816129e6565b840191505092915050565b6000604082019050612a456000830185612991565b8181036020830152612a5781846129f7565b90509392505050565b600080600060608486031215612a7957612a7861268a565b5b6000612a8786828701612770565b9350506020612a9886828701612770565b9250506040612aa986828701612770565b9150509250925092565b60008083601f840112612ac957612ac8612785565b5b8235905067ffffffffffffffff811115612ae657612ae561278a565b5b602083019150836001820283011115612b0257612b0161278f565b5b9250929050565b600080600060408486031215612b2257612b2161268a565b5b6000612b3086828701612770565b935050602084013567ffffffffffffffff811115612b5157612b5061268f565b5b612b5d86828701612ab3565b92509250509250925092565b600060208284031215612b7f57612b7e61268a565b5b6000612b8d84828501612770565b91505092915050565b6000612ba1826128bf565b9050919050565b612bb181612b96565b82525050565b6000602082019050612bcc6000830184612ba8565b92915050565b600080600060408486031215612beb57612bea61268a565b5b6000612bf986828701612770565b935050602084013567ffffffffffffffff811115612c1a57612c1961268f565b5b612c2686828701612794565b92509250509250925092565b600081519050919050565b600082825260208201905092915050565b6000612c5982612c32565b612c638185612c3d565b9350612c738185602086016129bc565b612c7c816129e6565b840191505092915050565b60006020820190508181036000830152612ca18184612c4e565b905092915050565b600080fd5b7f4e487b7100000000000000000000000000000000000000000000000000000000600052604160045260246000fd5b612ce6826129e6565b810181811067ffffffffffffffff82111715612d0557612d04612cae565b5b80604052505050565b6000612d18612680565b9050612d248282612cdd565b919050565b600067ffffffffffffffff821115612d4457612d43612cae565b5b612d4d826129e6565b9050602081019050919050565b82818337600083830152505050565b6000612d7c612d7784612d29565b612d0e565b905082815260208101848484011115612d9857612d97612ca9565b5b612da3848285612d5a565b509392505050565b600082601f830112612dc057612dbf612785565b5b8135612dd0848260208601612d69565b91505092915050565b612de2816128df565b8114612ded57600080fd5b50565b600081359050612dff81612dd9565b92915050565b60008060408385031215612e1c57612e1b61268a565b5b600083013567ffffffffffffffff811115612e3a57612e3961268f565b5b612e4685828601612dab565b9250506020612e5785828601612df0565b9150509250929050565b60008060008060608587031215612e7b57612e7a61268a565b5b6000612e8987828801612770565b9450506020612e9a8782880161293c565b935050604085013567ffffffffffffffff811115612ebb57612eba61268f565b5b612ec787828801612ab3565b925092505092959194509250565b600080600060608486031215612eee57612eed61268a565b5b6000612efc86828701612770565b9350506020612f0d8682870161293c565b925050604084013567ffffffffffffffff811115612f2e57612f2d61268f565b5b612f3a86828701612dab565b9150509250925092565b60008060408385031215612f5b57612f5a61268a565b5b600083013567ffffffffffffffff811115612f7957612f7861268f565b5b612f8585828601612dab565b925050602083013567ffffffffffffffff811115612fa657612fa561268f565b5b612fb285828601612dab565b9150509250929050565b60006020820190508181036000830152612fd681846129f7565b905092915050565b60008083601f840112612ff457612ff3612785565b5b8235905067ffffffffffffffff8111156130115761301061278a565b5b60208301915083602082028301111561302d5761302c61278f565b5b9250929050565b6000806020838503121561304b5761304a61268a565b5b600083013567ffffffffffffffff8111156130695761306861268f565b5b61307585828601612fde565b92509250509250929050565b600081519050919050565b600082825260208201905092915050565b6000819050602082019050919050565b600082825260208201905092915050565b60006130c9826129a0565b6130d381856130ad565b93506130e38185602086016129bc565b6130ec816129e6565b840191505092915050565b600061310383836130be565b905092915050565b6000602082019050919050565b600061312382613081565b61312d818561308c565b93508360208202850161313f8561309d565b8060005b8581101561317b578484038952815161315c85826130f7565b94506131678361310b565b925060208a01995050600181019050613143565b50829750879550505050505092915050565b600060208201905081810360008301526131a78184613118565b905092915050565b6131b88161274f565b82525050565b60006040820190506131d360008301856131af565b6131e060208301846131af565b9392505050565b600080604083850312156131fe576131fd61268a565b5b600061320c85828601612770565b925050602061321d85828601612df0565b9150509250929050565b600067ffffffffffffffff82169050919050565b61324481613227565b82525050565b600060208201905061325f600083018461323b565b92915050565b60008060006040848603121561327e5761327d61268a565b5b600061328c86828701612770565b935050602084013567ffffffffffffffff8111156132ad576132ac61268f565b5b6132b986828701612fde565b92509250509250925092565b6000806000606084860312156132de576132dd61268a565b5b60006132ec86828701612770565b93505060206132fd868287016126d7565b925050604061330e86828701612df0565b9150509250925092565b600081905092915050565b600061332f8385613318565b935061333c838584612d5a565b82840190509392505050565b6000613355828486613323565b91508190509392505050565b600082905092915050565b7f4e487b7100000000000000000000000000000000000000000000000000000000600052602260045260246000fd5b600060028204905060018216806133b357607f821691505b6020821081036133c6576133c561336c565b5b50919050565b60008190508160005260206000209050919050565b60006020601f8301049050919050565b600082821b905092915050565b60006008830261342e7fffffffffffffffffffffffffffffffffffffffffffffffffffffffffffffffff826133f1565b61343886836133f1565b95508019841693508086168417925050509392505050565b6000819050919050565b600061347561347061346b8461291b565b613450565b61291b565b9050919050565b6000819050919050565b61348f8361345a565b6134a361349b8261347c565b8484546133fe565b825550505050565b600090565b6134b86134ab565b6134c3818484613486565b505050565b5b818110156134e7576134dc6000826134b0565b6001810190506134c9565b5050565b601f82111561352c576134fd816133cc565b613506846133e1565b81016020851015613515578190505b613529613521856133e1565b8301826134c8565b50505b505050565b600082821c905092915050565b600061354f60001984600802613531565b1980831691505092915050565b6000613568838361353e565b9150826002028217905092915050565b6135828383613361565b67ffffffffffffffff81111561359b5761359a612cae565b5b6135a5825461339b565b6135b08282856134eb565b6000601f8311600181146135df57600084156135cd578287013590505b6135d7858261355c565b86555061363f565b601f1984166135ed866133cc565b60005b82811015613615578489013582556001820191506020850194506020810190506135f0565b86831015613632578489013561362e601f89168261353e565b8355505b6001600288020188555050505b50505050505050565b60006136548385612c3d565b9350613661838584612d5a565b61366a836129e6565b840190509392505050565b60006040820190508181036000830152613690818688613648565b905081810360208301526136a5818486613648565b905095945050505050565b6136b981612694565b82525050565b60006020820190506136d460008301846136b0565b92915050565b600081905092915050565b60006136f0826129a0565b6136fa81856136da565b935061370a8185602086016129bc565b80840191505092915050565b600061372282846136e5565b915081905092915050565b7f4e487b7100000000000000000000000000000000000000000000000000000000600052603260045260246000fd5b600082905092915050565b60008190508160005260206000209050919050565b601f8211156137bd5761378e81613767565b613797846133e1565b810160208510156137a6578190505b6137ba6137b2856133e1565b8301826134c8565b50505b505050565b6137cc838361375c565b67ffffffffffffffff8111156137e5576137e4612cae565b5b6137ef825461339b565b6137fa82828561377c565b6000601f8311600181146138295760008415613817578287013590505b613821858261355c565b865550613889565b601f19841661383786613767565b60005b8281101561385f5784890135825560018201915060208501945060208101905061383a565b8683101561387c5784890135613878601f89168261353e565b8355505b6001600288020188555050505b50505050505050565b600061389e83856129ab565b93506138ab838584612d5a565b6138b4836129e6565b840190509392505050565b600060208201905081810360008301526138da818486613892565b90509392505050565b7f4e487b7100000000000000000000000000000000000000000000000000000000600052601160045260246000fd5b600061391d82613227565b915067ffffffffffffffff8203613937576139366138e3565b5b600182019050919050565b600061394d8261291b565b91506139588361291b565b92508282039050818111156139705761396f6138e3565b5b92915050565b7f636f6e74656e745479706520756e737570706f72746564000000000000000000600082015250565b60006139ac601783612c3d565b91506139b782613976565b602082019050919050565b600060208201905081810360008301526139db8161399f565b9050919050565b600060208201905081810360008301526139fd818486613648565b90509392505050565b6000613a21613a1c613a17846128bf565b613450565b6128bf565b9050919050565b6000613a3382613a06565b9050919050565b6000613a4582613a28565b9050919050565b613a5581613a3a565b82525050565b6000602082019050613a706000830184613a4c565b92915050565b613a7f826129a0565b67ffffffffffffffff811115613a9857613a97612cae565b5b613aa2825461339b565b613aad82828561377c565b600060209050601f831160018114613ae05760008415613ace578287015190505b613ad8858261355c565b865550613b40565b601f198416613aee86613767565b60005b82811015613b1657848901518255600182019150602085019450602081019050613af1565b86831015613b335784890151613b2f601f89168261353e565b8355505b6001600288020188555050505b505050505050565b6000604082019050613b5d60008301856131af565b613b6a60208301846128f1565b9392505050565b60006040820190508181036000830152613b8b8185612c4e565b9050613b9a60208301846128f1565b9392505050565b7f726561644c6162656c3a20496e646578206f7574206f6620626f756e64730000600082015250565b6000613bd7601e83612c3d565b9150613be282613ba1565b602082019050919050565b60006020820190508181036000830152613c0681613bca565b9050919050565b6000613c188261291b565b9150613c238361291b565b9250828201905080821115613c3b57613c3a6138e3565b5b92915050565b6000602082019050613c5660008301846131af565b92915050565b7f6e616d65686173683a204a756e6b20617420656e64206f66206e616d65000000600082015250565b6000613c92601d83612c3d565b9150613c9d82613c5c565b602082019050919050565b60006020820190508181036000830152613cc181613c85565b9050919050565b6000819050919050565b613ce3613cde8261274f565b613cc8565b82525050565b6000613cf58285613cd2565b602082019150613d058284613cd2565b6020820191508190509392505050565b600080fd5b600080fd5b600080fd5b60008083356001602003843603038112613d4157613d40613d15565b5b80840192508235915067ffffffffffffffff821115613d6357613d62613d1a565b5b602083019250600182023603831315613d7f57613d7e613d1f565b5b509250929050565b600080fd5b600080fd5b60008085851115613da557613da4613d87565b5b83861115613db657613db5613d8c565b5b6001850283019150848603905094509492505050565b6000613dd8838361375c565b82613de3813561274f565b92506020821015613e2357613e1e7fffffffffffffffffffffffffffffffffffffffffffffffffffffffffffffffff836020036008026133f1565b831692505b505092915050565b7f6d756c746963616c6c3a20416c6c207265636f726473206d757374206861766560008201527f2061206d61746368696e67206e616d6568617368000000000000000000000000602082015250565b6000613e87603483612c3d565b9150613e9282613e2b565b604082019050919050565b60006020820190508181036000830152613eb681613e7a565b9050919050565b6000613ec983856136da565b9350613ed6838584612d5a565b82840190509392505050565b6000613eef828486613ebd565b91508190509392505050565b6000613f068261291b565b91507fffffffffffffffffffffffffffffffffffffffffffffffffffffffffffffffff8203613f3857613f376138e3565b5b60018201905091905056fea2646970667358221220073b4d51531447e0f46a7a063d9a45a65a5b9d7b5c7154e18b2fb2c1daff4bf964736f6c63430008120033",
  "linkReferences": {},
  "deployedLinkReferences": {}
}