{
  "_format": "hh-sol-artifact-1",
  "contractName": "L2PublicResolver",
  "sourceName": "contracts/l2/L2PublicResolver.sol",
  "abi": [
    {
      "anonymous": false,
      "inputs": [
        {
          "indexed": false,
          "internalType": "bytes",
          "name": "context",
          "type": "bytes"
        },
        {
          "indexed": false,
          "internalType": "bytes",
          "name": "name",
          "type": "bytes"
        },
        {
          "indexed": true,
          "internalType": "bytes32",
          "name": "node",
          "type": "bytes32"
        },
        {
          "indexed": true,
          "internalType": "uint256",
          "name": "contentType",
          "type": "uint256"
        }
      ],
      "name": "ABIChanged",
      "type": "event"
    },
    {
      "anonymous": false,
      "inputs": [
        {
          "indexed": false,
          "internalType": "bytes",
          "name": "context",
          "type": "bytes"
        },
        {
          "indexed": false,
          "internalType": "bytes",
          "name": "name",
          "type": "bytes"
        },
        {
          "indexed": true,
          "internalType": "bytes32",
          "name": "node",
          "type": "bytes32"
        },
        {
          "indexed": false,
          "internalType": "address",
          "name": "a",
          "type": "address"
        }
      ],
      "name": "AddrChanged",
      "type": "event"
    },
    {
      "anonymous": false,
      "inputs": [
        {
          "indexed": false,
          "internalType": "bytes",
          "name": "context",
          "type": "bytes"
        },
        {
          "indexed": false,
          "internalType": "bytes",
          "name": "name",
          "type": "bytes"
        },
        {
          "indexed": true,
          "internalType": "bytes32",
          "name": "node",
          "type": "bytes32"
        },
        {
          "indexed": false,
          "internalType": "uint256",
          "name": "coinType",
          "type": "uint256"
        },
        {
          "indexed": false,
          "internalType": "bytes",
          "name": "newAddress",
          "type": "bytes"
        }
      ],
      "name": "AddressChanged",
      "type": "event"
    },
    {
      "anonymous": false,
      "inputs": [
        {
          "indexed": false,
          "internalType": "bytes",
          "name": "context",
          "type": "bytes"
        },
        {
          "indexed": false,
          "internalType": "bytes",
          "name": "name",
          "type": "bytes"
        },
        {
          "indexed": true,
          "internalType": "bytes32",
          "name": "node",
          "type": "bytes32"
        },
        {
          "indexed": false,
          "internalType": "bytes",
          "name": "hash",
          "type": "bytes"
        }
      ],
      "name": "ContenthashChanged",
      "type": "event"
    },
    {
      "anonymous": false,
      "inputs": [
        {
          "indexed": false,
          "internalType": "bytes",
          "name": "context",
          "type": "bytes"
        },
        {
          "indexed": true,
          "internalType": "bytes32",
          "name": "node",
          "type": "bytes32"
        },
        {
          "indexed": false,
          "internalType": "bytes",
          "name": "name",
          "type": "bytes"
        },
        {
          "indexed": false,
          "internalType": "uint16",
          "name": "resource",
          "type": "uint16"
        },
        {
          "indexed": false,
          "internalType": "bytes",
          "name": "record",
          "type": "bytes"
        }
      ],
      "name": "DNSRecordChanged",
      "type": "event"
    },
    {
      "anonymous": false,
      "inputs": [
        {
          "indexed": false,
          "internalType": "bytes",
          "name": "context",
          "type": "bytes"
        },
        {
          "indexed": true,
          "internalType": "bytes32",
          "name": "node",
          "type": "bytes32"
        },
        {
          "indexed": false,
          "internalType": "bytes",
          "name": "name",
          "type": "bytes"
        },
        {
          "indexed": false,
          "internalType": "uint16",
          "name": "resource",
          "type": "uint16"
        }
      ],
      "name": "DNSRecordDeleted",
      "type": "event"
    },
    {
      "anonymous": false,
      "inputs": [
        {
          "indexed": false,
          "internalType": "bytes",
          "name": "context",
          "type": "bytes"
        },
        {
          "indexed": true,
          "internalType": "bytes32",
          "name": "node",
          "type": "bytes32"
        },
        {
          "indexed": false,
          "internalType": "bytes",
          "name": "lastzonehash",
          "type": "bytes"
        },
        {
          "indexed": false,
          "internalType": "bytes",
          "name": "zonehash",
          "type": "bytes"
        }
      ],
      "name": "DNSZonehashChanged",
      "type": "event"
    },
    {
      "anonymous": false,
      "inputs": [
        {
          "indexed": false,
          "internalType": "bytes",
          "name": "context",
          "type": "bytes"
        },
        {
          "indexed": false,
          "internalType": "bytes",
          "name": "nodeName",
          "type": "bytes"
        },
        {
          "indexed": true,
          "internalType": "bytes32",
          "name": "node",
          "type": "bytes32"
        },
        {
          "indexed": false,
          "internalType": "string",
          "name": "name",
          "type": "string"
        }
      ],
      "name": "NameChanged",
      "type": "event"
    },
    {
      "anonymous": false,
      "inputs": [
        {
          "indexed": false,
          "internalType": "bytes",
          "name": "context",
          "type": "bytes"
        },
        {
          "indexed": false,
          "internalType": "bytes",
          "name": "name",
          "type": "bytes"
        },
        {
          "indexed": true,
          "internalType": "bytes32",
          "name": "node",
          "type": "bytes32"
        },
        {
          "indexed": true,
          "internalType": "string",
          "name": "indexedKey",
          "type": "string"
        },
        {
          "indexed": false,
          "internalType": "string",
          "name": "key",
          "type": "string"
        },
        {
          "indexed": false,
          "internalType": "string",
          "name": "value",
          "type": "string"
        }
      ],
      "name": "TextChanged",
      "type": "event"
    },
    {
      "anonymous": false,
      "inputs": [
        {
          "indexed": false,
          "internalType": "bytes",
          "name": "context",
          "type": "bytes"
        },
        {
          "indexed": false,
          "internalType": "bytes",
          "name": "name",
          "type": "bytes"
        },
        {
          "indexed": true,
          "internalType": "bytes32",
          "name": "node",
          "type": "bytes32"
        },
        {
          "indexed": false,
          "internalType": "uint64",
          "name": "newVersion",
          "type": "uint64"
        }
      ],
      "name": "VersionChanged",
      "type": "event"
    },
    {
      "inputs": [
        {
          "internalType": "bytes",
          "name": "context",
          "type": "bytes"
        },
        {
          "internalType": "bytes32",
          "name": "node",
          "type": "bytes32"
        },
        {
          "internalType": "uint256",
          "name": "contentTypes",
          "type": "uint256"
        }
      ],
      "name": "ABI",
      "outputs": [
        {
          "internalType": "uint256",
          "name": "",
          "type": "uint256"
        },
        {
          "internalType": "bytes",
          "name": "",
          "type": "bytes"
        }
      ],
      "stateMutability": "view",
      "type": "function"
    },
    {
      "inputs": [
        {
          "internalType": "bytes",
          "name": "context",
          "type": "bytes"
        },
        {
          "internalType": "bytes32",
          "name": "node",
          "type": "bytes32"
        },
        {
          "internalType": "uint256",
          "name": "coinType",
          "type": "uint256"
        }
      ],
      "name": "addr",
      "outputs": [
        {
          "internalType": "bytes",
          "name": "",
          "type": "bytes"
        }
      ],
      "stateMutability": "view",
      "type": "function"
    },
    {
      "inputs": [
        {
          "internalType": "bytes",
          "name": "context",
          "type": "bytes"
        },
        {
          "internalType": "bytes32",
          "name": "node",
          "type": "bytes32"
        }
      ],
      "name": "addr",
      "outputs": [
        {
          "internalType": "address payable",
          "name": "",
          "type": "address"
        }
      ],
      "stateMutability": "view",
      "type": "function"
    },
    {
      "inputs": [
        {
          "internalType": "bytes",
          "name": "name",
          "type": "bytes"
        }
      ],
      "name": "clearRecords",
      "outputs": [],
      "stateMutability": "nonpayable",
      "type": "function"
    },
    {
      "inputs": [
        {
          "internalType": "bytes",
          "name": "context",
          "type": "bytes"
        },
        {
          "internalType": "bytes32",
          "name": "node",
          "type": "bytes32"
        }
      ],
      "name": "contenthash",
      "outputs": [
        {
          "internalType": "bytes",
          "name": "",
          "type": "bytes"
        }
      ],
      "stateMutability": "view",
      "type": "function"
    },
    {
      "inputs": [
        {
          "internalType": "bytes",
          "name": "context",
          "type": "bytes"
        },
        {
          "internalType": "bytes32",
          "name": "node",
          "type": "bytes32"
        },
        {
          "internalType": "bytes32",
          "name": "name",
          "type": "bytes32"
        },
        {
          "internalType": "uint16",
          "name": "resource",
          "type": "uint16"
        }
      ],
      "name": "dnsRecord",
      "outputs": [
        {
          "internalType": "bytes",
          "name": "",
          "type": "bytes"
        }
      ],
      "stateMutability": "view",
      "type": "function"
    },
    {
      "inputs": [
        {
          "internalType": "bytes",
          "name": "context",
          "type": "bytes"
        },
        {
          "internalType": "bytes32",
          "name": "node",
          "type": "bytes32"
        },
        {
          "internalType": "bytes32",
          "name": "name",
          "type": "bytes32"
        }
      ],
      "name": "hasDNSRecords",
      "outputs": [
        {
          "internalType": "bool",
          "name": "",
          "type": "bool"
        }
      ],
      "stateMutability": "view",
      "type": "function"
    },
    {
      "inputs": [
        {
          "internalType": "bytes[]",
          "name": "data",
          "type": "bytes[]"
        }
      ],
      "name": "multicall",
      "outputs": [
        {
          "internalType": "bytes[]",
          "name": "results",
          "type": "bytes[]"
        }
      ],
      "stateMutability": "nonpayable",
      "type": "function"
    },
    {
      "inputs": [
        {
          "internalType": "bytes32",
          "name": "nodehash",
          "type": "bytes32"
        },
        {
          "internalType": "bytes[]",
          "name": "data",
          "type": "bytes[]"
        }
      ],
      "name": "multicallWithNodeCheck",
      "outputs": [
        {
          "internalType": "bytes[]",
          "name": "results",
          "type": "bytes[]"
        }
      ],
      "stateMutability": "nonpayable",
      "type": "function"
    },
    {
      "inputs": [
        {
          "internalType": "bytes",
          "name": "context",
          "type": "bytes"
        },
        {
          "internalType": "bytes32",
          "name": "node",
          "type": "bytes32"
        }
      ],
      "name": "name",
      "outputs": [
        {
          "internalType": "string",
          "name": "",
          "type": "string"
        }
      ],
      "stateMutability": "view",
      "type": "function"
    },
    {
      "inputs": [
        {
          "internalType": "bytes",
          "name": "",
          "type": "bytes"
        },
        {
          "internalType": "bytes32",
          "name": "",
          "type": "bytes32"
        }
      ],
      "name": "recordVersions",
      "outputs": [
        {
          "internalType": "uint64",
          "name": "",
          "type": "uint64"
        }
      ],
      "stateMutability": "view",
      "type": "function"
    },
    {
      "inputs": [
        {
          "internalType": "bytes",
          "name": "name",
          "type": "bytes"
        },
        {
          "internalType": "uint256",
          "name": "contentType",
          "type": "uint256"
        },
        {
          "internalType": "bytes",
          "name": "data",
          "type": "bytes"
        }
      ],
      "name": "setABI",
      "outputs": [],
      "stateMutability": "nonpayable",
      "type": "function"
    },
    {
      "inputs": [
        {
          "internalType": "bytes",
          "name": "name",
          "type": "bytes"
        },
        {
          "internalType": "uint256",
          "name": "coinType",
          "type": "uint256"
        },
        {
          "internalType": "bytes",
          "name": "a",
          "type": "bytes"
        }
      ],
      "name": "setAddr",
      "outputs": [],
      "stateMutability": "nonpayable",
      "type": "function"
    },
    {
      "inputs": [
        {
          "internalType": "bytes",
          "name": "name",
          "type": "bytes"
        },
        {
          "internalType": "address",
          "name": "a",
          "type": "address"
        }
      ],
      "name": "setAddr",
      "outputs": [],
      "stateMutability": "nonpayable",
      "type": "function"
    },
    {
      "inputs": [
        {
          "internalType": "bytes",
          "name": "name",
          "type": "bytes"
        },
        {
          "internalType": "bytes",
          "name": "hash",
          "type": "bytes"
        }
      ],
      "name": "setContenthash",
      "outputs": [],
      "stateMutability": "nonpayable",
      "type": "function"
    },
    {
      "inputs": [
        {
          "internalType": "bytes32",
          "name": "node",
          "type": "bytes32"
        },
        {
          "internalType": "bytes",
          "name": "data",
          "type": "bytes"
        }
      ],
      "name": "setDNSRecords",
      "outputs": [],
      "stateMutability": "nonpayable",
      "type": "function"
    },
    {
      "inputs": [
        {
          "internalType": "bytes",
          "name": "nodeName",
          "type": "bytes"
        },
        {
          "internalType": "string",
          "name": "newName",
          "type": "string"
        }
      ],
      "name": "setName",
      "outputs": [],
      "stateMutability": "nonpayable",
      "type": "function"
    },
    {
      "inputs": [
        {
          "internalType": "bytes",
          "name": "name",
          "type": "bytes"
        },
        {
          "internalType": "string",
          "name": "key",
          "type": "string"
        },
        {
          "internalType": "string",
          "name": "value",
          "type": "string"
        }
      ],
      "name": "setText",
      "outputs": [],
      "stateMutability": "nonpayable",
      "type": "function"
    },
    {
      "inputs": [
        {
          "internalType": "bytes32",
          "name": "node",
          "type": "bytes32"
        },
        {
          "internalType": "bytes",
          "name": "hash",
          "type": "bytes"
        }
      ],
      "name": "setZonehash",
      "outputs": [],
      "stateMutability": "nonpayable",
      "type": "function"
    },
    {
      "inputs": [
        {
          "internalType": "bytes4",
          "name": "interfaceID",
          "type": "bytes4"
        }
      ],
      "name": "supportsInterface",
      "outputs": [
        {
          "internalType": "bool",
          "name": "",
          "type": "bool"
        }
      ],
      "stateMutability": "view",
      "type": "function"
    },
    {
      "inputs": [
        {
          "internalType": "bytes",
          "name": "context",
          "type": "bytes"
        },
        {
          "internalType": "bytes32",
          "name": "node",
          "type": "bytes32"
        },
        {
          "internalType": "string",
          "name": "key",
          "type": "string"
        }
      ],
      "name": "text",
      "outputs": [
        {
          "internalType": "string",
          "name": "",
          "type": "string"
        }
      ],
      "stateMutability": "view",
      "type": "function"
    },
    {
      "inputs": [
        {
          "internalType": "uint64",
          "name": "",
          "type": "uint64"
        },
        {
          "internalType": "bytes",
          "name": "",
          "type": "bytes"
        },
        {
          "internalType": "bytes32",
          "name": "",
          "type": "bytes32"
        },
        {
          "internalType": "uint256",
          "name": "",
          "type": "uint256"
        }
      ],
      "name": "versionable_addresses",
      "outputs": [
        {
          "internalType": "bytes",
          "name": "",
          "type": "bytes"
        }
      ],
      "stateMutability": "view",
      "type": "function"
    },
    {
      "inputs": [
        {
          "internalType": "uint64",
          "name": "",
          "type": "uint64"
        },
        {
          "internalType": "bytes",
          "name": "",
          "type": "bytes"
        },
        {
          "internalType": "bytes32",
          "name": "",
          "type": "bytes32"
        }
      ],
      "name": "versionable_names",
      "outputs": [
        {
          "internalType": "string",
          "name": "",
          "type": "string"
        }
      ],
      "stateMutability": "view",
      "type": "function"
    },
    {
      "inputs": [
        {
          "internalType": "uint64",
          "name": "",
          "type": "uint64"
        },
        {
          "internalType": "bytes",
          "name": "",
          "type": "bytes"
        },
        {
          "internalType": "bytes32",
          "name": "",
          "type": "bytes32"
        },
        {
          "internalType": "string",
          "name": "",
          "type": "string"
        }
      ],
      "name": "versionable_texts",
      "outputs": [
        {
          "internalType": "string",
          "name": "",
          "type": "string"
        }
      ],
      "stateMutability": "view",
      "type": "function"
    },
    {
      "inputs": [
        {
          "internalType": "bytes",
          "name": "context",
          "type": "bytes"
        },
        {
          "internalType": "bytes32",
          "name": "node",
          "type": "bytes32"
        }
      ],
      "name": "zonehash",
      "outputs": [
        {
          "internalType": "bytes",
          "name": "",
          "type": "bytes"
        }
      ],
      "stateMutability": "view",
      "type": "function"
    }
  ],
  "bytecode": "0x608060405234801561001057600080fd5b506152e1806100206000396000f3fe608060405234801561001057600080fd5b50600436106101725760003560e01c8063ac9650d8116100de578063c7279f8811610097578063dd1f458c11610071578063dd1f458c146104dc578063df41ebf51461050c578063e32954eb14610528578063f00eebf41461055857610172565b8063c7279f8814610488578063ce3decdc146104a4578063d26f550e146104c057610172565b8063ac9650d81461037c578063b822b3c6146103ac578063bbf0d758146103dc578063c0f8c7781461040c578063c4b829061461043c578063c5d7badd1461046c57610172565b806313e4ae6a1161013057806313e4ae6a14610270578063183f516b1461028c5780634821b72c146102bc578063493cf94d146102ec578063780a54ba1461031c578063a54e349d1461034c57610172565b8062bf40011461017757806301ffc9a7146101a857806309cb2687146101d85780630af179d7146102085780630ce0112a146102245780630f54673f14610240575b600080fd5b610191600480360381019061018c919061342a565b610574565b60405161019f92919061353d565b60405180910390f35b6101c260048036038101906101bd91906135c5565b610732565b6040516101cf919061360d565b60405180910390f35b6101f260048036038101906101ed9190613628565b610744565b6040516101ff9190613688565b60405180910390f35b610222600480360381019061021d91906136aa565b610872565b005b61023e60048036038101906102399190613760565b610afe565b005b61025a600480360381019061025591906139f2565b610c6c565b6040516102679190613ae6565b60405180910390f35b61028a60048036038101906102859190613b08565b610d5f565b005b6102a660048036038101906102a19190613bd2565b610f2b565b6040516102b39190613688565b60405180910390f35b6102d660048036038101906102d19190613c5a565b611085565b6040516102e39190613cc5565b60405180910390f35b61030660048036038101906103019190613628565b6110d1565b6040516103139190613ae6565b60405180910390f35b6103366004803603810190610331919061342a565b6111ff565b6040516103439190613688565b60405180910390f35b61036660048036038101906103619190613ce0565b61133f565b604051610373919061360d565b60405180910390f35b61039660048036038101906103919190613daa565b61140c565b6040516103a39190613f03565b60405180910390f35b6103c660048036038101906103c19190613f25565b611424565b6040516103d39190613688565b60405180910390f35b6103f660048036038101906103f19190613628565b611501565b6040516104039190613fe9565b60405180910390f35b61042660048036038101906104219190614004565b61153a565b6040516104339190613ae6565b60405180910390f35b61045660048036038101906104519190613628565b61160a565b6040516104639190613688565b60405180910390f35b61048660048036038101906104819190614073565b611738565b005b6104a2600480360381019061049d91906140f4565b6118a6565b005b6104be60048036038101906104b991906136aa565b611a50565b005b6104da60048036038101906104d591906141a8565b611c46565b005b6104f660048036038101906104f1919061423d565b611dde565b6040516105039190613ae6565b60405180910390f35b610526600480360381019061052191906142d2565b611f2c565b005b610542600480360381019061053d919061431f565b6120ad565b60405161054f9190613f03565b60405180910390f35b610572600480360381019061056d91906143bd565b6120c3565b005b6000606060006003600080898960405161058f92919061444d565b9081526020016040518091039020600088815260200190815260200160002060009054906101000a900467ffffffffffffffff1667ffffffffffffffff1667ffffffffffffffff16815260200190815260200160002087876040516105f592919061444d565b9081526020016040518091039020600086815260200190815260200160002090506000600190505b8481116107105760008582161415801561065557506000826000838152602001908152602001600020805461065190614495565b9050115b15610704578082600083815260200190815260200160002080805461067990614495565b80601f01602080910402602001604051908101604052809291908181526020018280546106a590614495565b80156106f25780601f106106c7576101008083540402835291602001916106f2565b820191906000526020600020905b8154815290600101906020018083116106d557829003601f168201915b50505050509050935093505050610729565b600181901b905061061d565b5060006040518060200160405280600081525092509250505b94509492505050565b600061073d826120dd565b9050919050565b60606005600080868660405161075b92919061444d565b9081526020016040518091039020600085815260200190815260200160002060009054906101000a900467ffffffffffffffff1667ffffffffffffffff1667ffffffffffffffff16815260200190815260200160002084846040516107c192919061444d565b9081526020016040518091039020600083815260200190815260200160002080546107eb90614495565b80601f016020809104026020016040519081016040528092919081815260200182805461081790614495565b80156108645780601f1061083957610100808354040283529160200191610864565b820191906000526020600020905b81548152906001019060200180831161084757829003601f168201915b505050505090509392505050565b6000806060806000803360405160200161088c919061450e565b6040516020818303038152906040529050600080826040516108ae919061455a565b908152602001604051809103902060008b815260200190815260200160002060009054906101000a900467ffffffffffffffff169050600061093e60008b8b8080601f016020809104026020016040519081016040528093929190818152602001838380828437600081840152601f19601f8201169050808301925050505050505061215790919063ffffffff16565b90505b61094a81612181565b610a805760008861ffff16036109a5578060400151975061096a81612197565b95508560405160200161097d919061455a565b60405160208183030381529060405280519060200120935061099e816121ce565b9450610a72565b60006109b082612197565b9050816040015161ffff168961ffff161415806109dd57506109db818861220790919063ffffffff16565b155b15610a7057610a498c888b8e8e8080601f016020809104026020016040519081016040528093929190818152602001838380828437600081840152601f19601f820116905080830192505050505050508c8d8860200151610a3e91906145a0565b60008d51148a61222e565b816040015198508160200151975080965086805190602001209450610a6d826121ce565b95505b505b610a7b81612682565b610941565b50600085511115610af257610af18a86898c8c8080601f016020809104026020016040519081016040528093929190818152602001838380828437600081840152601f19601f820116905080830192505050505050508a8b8f8f9050610ae691906145a0565b60008b51148861222e565b5b50505050505050505050565b6000610b58600086868080601f016020809104026020016040519081016040528093929190818152602001838380828437600081840152601f19601f820116905080830192505050505050506127c890919063ffffffff16565b9050600033604051602001610b6d919061450e565b60405160208183030381529060405290508383600860008085604051610b93919061455a565b9081526020016040518091039020600087815260200190815260200160002060009054906101000a900467ffffffffffffffff1667ffffffffffffffff1667ffffffffffffffff16815260200190815260200160002083604051610bf7919061455a565b908152602001604051809103902060008581526020019081526020016000209182610c2392919061478b565b50817f513f61c25d59c9c349ea306b3b9dee9d5c8344dee8cdf0441d1f5fbe7231620a8288888888604051610c5c9594939291906148b5565b60405180910390a2505050505050565b600260205283600052604060002083805160208101820180518482526020830160208501208183528095505050505050602052816000526040600020818051602081018201805184825260208301602085012081835280955050505050506000935093505050508054610cde90614495565b80601f0160208091040260200160405190810160405280929190818152602001828054610d0a90614495565b8015610d575780601f10610d2c57610100808354040283529160200191610d57565b820191906000526020600020905b815481529060010190602001808311610d3a57829003601f168201915b505050505081565b6000610db9600086868080601f016020809104026020016040519081016040528093929190818152602001838380828437600081840152601f19601f820116905080830192505050505050506127c890919063ffffffff16565b9050600033604051602001610dce919061450e565b6040516020818303038152906040529050817ff0b0d242ffa10d1d4bb43131f0c89418f026695502198978526a83cac3600c008288888888604051610e17959493929190614905565b60405180910390a2603c8403610e6e57817fe164bbb35123c72b5d5b113601481520e2e915105077f173771b7a7a31ac0783828888610e558861287e565b604051610e6594939291906149b6565b60405180910390a25b82600160008084604051610e82919061455a565b9081526020016040518091039020600086815260200190815260200160002060009054906101000a900467ffffffffffffffff1667ffffffffffffffff1667ffffffffffffffff16815260200190815260200160002082604051610ee6919061455a565b9081526020016040518091039020600084815260200190815260200160002060008681526020019081526020016000209081610f229190614a58565b50505050505050565b606060066000808888604051610f4292919061444d565b9081526020016040518091039020600087815260200190815260200160002060009054906101000a900467ffffffffffffffff1667ffffffffffffffff1667ffffffffffffffff1681526020019081526020016000208686604051610fa892919061444d565b90815260200160405180910390206000858152602001908152602001600020600084815260200190815260200160002060008361ffff1661ffff1681526020019081526020016000208054610ffc90614495565b80601f016020809104026020016040519081016040528092919081815260200182805461102890614495565b80156110755780601f1061104a57610100808354040283529160200191611075565b820191906000526020600020905b81548152906001019060200180831161105857829003601f168201915b5050505050905095945050505050565b6000828051602081018201805184825260208301602085012081835280955050505050506020528060005260406000206000915091509054906101000a900467ffffffffffffffff1681565b6060600860008086866040516110e892919061444d565b9081526020016040518091039020600085815260200190815260200160002060009054906101000a900467ffffffffffffffff1667ffffffffffffffff1667ffffffffffffffff168152602001908152602001600020848460405161114e92919061444d565b90815260200160405180910390206000838152602001908152602001600020805461117890614495565b80601f01602080910402602001604051908101604052809291908181526020018280546111a490614495565b80156111f15780601f106111c6576101008083540402835291602001916111f1565b820191906000526020600020905b8154815290600101906020018083116111d457829003601f168201915b505050505090509392505050565b60606001600080878760405161121692919061444d565b9081526020016040518091039020600086815260200190815260200160002060009054906101000a900467ffffffffffffffff1667ffffffffffffffff1667ffffffffffffffff168152602001908152602001600020858560405161127c92919061444d565b90815260200160405180910390206000848152602001908152602001600020600083815260200190815260200160002080546112b790614495565b80601f01602080910402602001604051908101604052809291908181526020018280546112e390614495565b80156113305780601f1061130557610100808354040283529160200191611330565b820191906000526020600020905b81548152906001019060200180831161131357829003601f168201915b50505050509050949350505050565b6000806007600080888860405161135792919061444d565b9081526020016040518091039020600087815260200190815260200160002060009054906101000a900467ffffffffffffffff1667ffffffffffffffff1667ffffffffffffffff16815260200190815260200160002086866040516113bd92919061444d565b90815260200160405180910390206000858152602001908152602001600020600084815260200190815260200160002060009054906101000a900461ffff1661ffff1614159050949350505050565b606061141c6000801b84846128a1565b905092915050565b600160205283600052604060002083805160208101820180518482526020830160208501208183528095505050505050602052816000526040600020602052806000526040600020600093509350505050805461148090614495565b80601f01602080910402602001604051908101604052809291908181526020018280546114ac90614495565b80156114f95780601f106114ce576101008083540402835291602001916114f9565b820191906000526020600020905b8154815290600101906020018083116114dc57829003601f168201915b505050505081565b600080611511858585603c6111ff565b90506000815103611526576000915050611533565b61152f8161287e565b9150505b9392505050565b6008602052826000526040600020828051602081018201805184825260208301602085012081835280955050505050506020528060005260406000206000925092505050805461158990614495565b80601f01602080910402602001604051908101604052809291908181526020018280546115b590614495565b80156116025780601f106115d757610100808354040283529160200191611602565b820191906000526020600020905b8154815290600101906020018083116115e557829003601f168201915b505050505081565b60606004600080868660405161162192919061444d565b9081526020016040518091039020600085815260200190815260200160002060009054906101000a900467ffffffffffffffff1667ffffffffffffffff1667ffffffffffffffff168152602001908152602001600020848460405161168792919061444d565b9081526020016040518091039020600083815260200190815260200160002080546116b190614495565b80601f01602080910402602001604051908101604052809291908181526020018280546116dd90614495565b801561172a5780601f106116ff5761010080835404028352916020019161172a565b820191906000526020600020905b81548152906001019060200180831161170d57829003601f168201915b505050505090509392505050565b6000611792600086868080601f016020809104026020016040519081016040528093929190818152602001838380828437600081840152601f19601f820116905080830192505050505050506127c890919063ffffffff16565b90506000336040516020016117a7919061450e565b604051602081830303815290604052905083836004600080856040516117cd919061455a565b9081526020016040518091039020600087815260200190815260200160002060009054906101000a900467ffffffffffffffff1667ffffffffffffffff1667ffffffffffffffff16815260200190815260200160002083604051611831919061455a565b90815260200160405180910390206000858152602001908152602001600020918261185d929190614b35565b50817f36280a525d16c174ebc8e2cefaa0ee2772cba19e1762480e5a97a4f36b369fee8288888888604051611896959493929190614c05565b60405180910390a2505050505050565b6000611900600088888080601f016020809104026020016040519081016040528093929190818152602001838380828437600081840152601f19601f820116905080830192505050505050506127c890919063ffffffff16565b9050600033604051602001611915919061450e565b6040516020818303038152906040529050838360026000808560405161193b919061455a565b9081526020016040518091039020600087815260200190815260200160002060009054906101000a900467ffffffffffffffff1667ffffffffffffffff1667ffffffffffffffff1681526020019081526020016000208360405161199f919061455a565b9081526020016040518091039020600085815260200190815260200160002088886040516119ce929190614c85565b908152602001604051809103902091826119e992919061478b565b5085856040516119fa929190614c85565b6040518091039020827faba60e8c32ab4ec8e4da108fb0927d3bd435d955f0d7f1613ad1c034dc55a1de838b8b8b8b8b8b604051611a3e9796959493929190614c9e565b60405180910390a35050505050505050565b600033604051602001611a63919061450e565b604051602081830303815290604052905060008082604051611a85919061455a565b9081526020016040518091039020600086815260200190815260200160002060009054906101000a900467ffffffffffffffff1690506000600560008367ffffffffffffffff1667ffffffffffffffff16815260200190815260200160002083604051611af2919061455a565b908152602001604051809103902060008781526020019081526020016000208054611b1c90614495565b80601f0160208091040260200160405190810160405280929190818152602001828054611b4890614495565b8015611b955780601f10611b6a57610100808354040283529160200191611b95565b820191906000526020600020905b815481529060010190602001808311611b7857829003601f168201915b505050505090508484600560008567ffffffffffffffff1667ffffffffffffffff16815260200190815260200160002085604051611bd3919061455a565b908152602001604051809103902060008981526020019081526020016000209182611bff929190614b35565b50857fcedc400dcc193ec15f5b42021efe54dea2804ea59d09bac1519f640caf68bf4f84838888604051611c369493929190614d05565b60405180910390a2505050505050565b600083600185611c5691906145a0565b1614611c6157600080fd5b6000611cbb600087878080601f016020809104026020016040519081016040528093929190818152602001838380828437600081840152601f19601f820116905080830192505050505050506127c890919063ffffffff16565b9050600033604051602001611cd0919061450e565b60405160208183030381529060405290508383600360008085604051611cf6919061455a565b9081526020016040518091039020600087815260200190815260200160002060009054906101000a900467ffffffffffffffff1667ffffffffffffffff1667ffffffffffffffff16815260200190815260200160002083604051611d5a919061455a565b9081526020016040518091039020600085815260200190815260200160002060008881526020019081526020016000209182611d97929190614b35565b5084827f333d7bb34009761f4ff7f659a8b796ef6821c2f09927affab6adc5505be116bd838a8a604051611dcd93929190614d53565b60405180910390a350505050505050565b606060026000808888604051611df592919061444d565b9081526020016040518091039020600087815260200190815260200160002060009054906101000a900467ffffffffffffffff1667ffffffffffffffff1667ffffffffffffffff1681526020019081526020016000208686604051611e5b92919061444d565b908152602001604051809103902060008581526020019081526020016000208383604051611e8a929190614c85565b90815260200160405180910390208054611ea390614495565b80601f0160208091040260200160405190810160405280929190818152602001828054611ecf90614495565b8015611f1c5780601f10611ef157610100808354040283529160200191611f1c565b820191906000526020600020905b815481529060010190602001808311611eff57829003601f168201915b5050505050905095945050505050565b6000611f86600084848080601f016020809104026020016040519081016040528093929190818152602001838380828437600081840152601f19601f820116905080830192505050505050506127c890919063ffffffff16565b9050600033604051602001611f9b919061450e565b6040516020818303038152906040529050600081604051611fbc919061455a565b90815260200160405180910390206000838152602001908152602001600020600081819054906101000a900467ffffffffffffffff1680929190611fff90614d8c565b91906101000a81548167ffffffffffffffff021916908367ffffffffffffffff16021790555050817f66b50d7625dfb6f087c9fbbb0b7094393200578cef60691f59652d47c3df9c9782868660008660405161205b919061455a565b9081526020016040518091039020600088815260200190815260200160002060009054906101000a900467ffffffffffffffff1660405161209f9493929190614dbc565b60405180910390a250505050565b60606120ba8484846128a1565b90509392505050565b6120d88383603c6120d385612a70565b610d5f565b505050565b60007f493cf94d000000000000000000000000000000000000000000000000000000007bffffffffffffffffffffffffffffffffffffffffffffffffffffffff1916827bffffffffffffffffffffffffffffffffffffffffffffffffffffffff19161480612150575061214f82612ad4565b5b9050919050565b61215f61329d565b828160000181905250818160c001818152505061217b81612682565b92915050565b6000816000015151826020015110159050919050565b60606121c782602001516121b384600001518560200151612bb6565b8460000151612c329092919063ffffffff16565b9050919050565b60606122008260a001518360a001518460c001516121ec91906145a0565b8460000151612c329092919063ffffffff16565b9050919050565b60008151835114801561222657506122258360008460008751612cc7565b5b905092915050565b600033604051602001612241919061450e565b6040516020818303038152906040529050600088805190602001209050600061227587878a612c329092919063ffffffff16565b90508415612479576000600660008667ffffffffffffffff1667ffffffffffffffff168152602001908152602001600020846040516122b4919061455a565b908152602001604051809103902060008d8152602001908152602001600020600084815260200190815260200160002060008b61ffff1661ffff168152602001908152602001600020805461230890614495565b9050146123ae57600760008567ffffffffffffffff1667ffffffffffffffff16815260200190815260200160002083604051612344919061455a565b908152602001604051809103902060008c81526020019081526020016000206000838152602001908152602001600020600081819054906101000a900461ffff168092919061239290614e03565b91906101000a81548161ffff021916908361ffff160217905550505b600660008567ffffffffffffffff1667ffffffffffffffff168152602001908152602001600020836040516123e3919061455a565b908152602001604051809103902060008c8152602001908152602001600020600083815260200190815260200160002060008a61ffff1661ffff168152602001908152602001600020600061243891906132e8565b8a7fd657e270b9c31ed4b6f845e4e1846fea336de4559633bd886bb4b6c7700f272b848c8c60405161246c93929190614e3b565b60405180910390a2612675565b6000600660008667ffffffffffffffff1667ffffffffffffffff168152602001908152602001600020846040516124b0919061455a565b908152602001604051809103902060008d8152602001908152602001600020600084815260200190815260200160002060008b61ffff1661ffff168152602001908152602001600020805461250490614495565b9050036125aa57600760008567ffffffffffffffff1667ffffffffffffffff16815260200190815260200160002083604051612540919061455a565b908152602001604051809103902060008c81526020019081526020016000206000838152602001908152602001600020600081819054906101000a900461ffff168092919061258e90614e80565b91906101000a81548161ffff021916908361ffff160217905550505b80600660008667ffffffffffffffff1667ffffffffffffffff168152602001908152602001600020846040516125e0919061455a565b908152602001604051809103902060008d8152602001908152602001600020600084815260200190815260200160002060008b61ffff1661ffff16815260200190815260200160002090816126359190614a58565b508a7f3a30e582a6a4515ff923d80aae09c39c75c64bd8c2b127c72c6a3a864665041d848c8c8560405161266c9493929190614eaa565b60405180910390a25b5050505050505050505050565b8060c00151816020018181525050806000015151816020015110156127c55760006126b582600001518360200151612bb6565b82602001516126c49190614f04565b90506126dd818360000151612ceb90919063ffffffff16565b826040019061ffff16908161ffff16815250506002816126fd9190614f04565b9050612716818360000151612ceb90919063ffffffff16565b826060019061ffff16908161ffff16815250506002816127369190614f04565b905061274f818360000151612d1a90919063ffffffff16565b826080019063ffffffff16908163ffffffff16815250506004816127739190614f04565b9050600061278e828460000151612ceb90919063ffffffff16565b61ffff1690506002826127a19190614f04565b9150818360a001818152505080826127b99190614f04565b8360c001818152505050505b50565b60008060006127d78585612d4b565b915091506000801b820361284157600185516127f391906145a0565b8414612834576040517f08c379a000000000000000000000000000000000000000000000000000000000815260040161282b90614f84565b60405180910390fd5b6000801b92505050612878565b61284b85826127c8565b8260405160200161285d929190614fc5565b60405160208183030381529060405280519060200120925050505b92915050565b6000601482511461288e57600080fd5b600c6101000a6020830151049050919050565b60608282905067ffffffffffffffff8111156128c0576128bf613826565b5b6040519080825280602002602001820160405280156128f357816020015b60608152602001906001900390816128de5790505b50905060005b83839050811015612a68576000801b851461299857600084848381811061292357612922614ff1565b5b9050602002810190612935919061502f565b6004906024926129479392919061509c565b9061295291906150d7565b9050858114612996576040517f08c379a000000000000000000000000000000000000000000000000000000000815260040161298d906151a8565b60405180910390fd5b505b6000803073ffffffffffffffffffffffffffffffffffffffff168686858181106129c5576129c4614ff1565b5b90506020028101906129d7919061502f565b6040516129e592919061444d565b600060405180830381855af49150503d8060008114612a20576040519150601f19603f3d011682016040523d82523d6000602084013e612a25565b606091505b509150915081612a3457600080fd5b80848481518110612a4857612a47614ff1565b5b602002602001018190525050508080612a60906151c8565b9150506128f9565b509392505050565b6060601467ffffffffffffffff811115612a8d57612a8c613826565b5b6040519080825280601f01601f191660200182016040528015612abf5781602001600182028036833780820191505090505b509050600c6101000a82026020820152919050565b60007f183f516b000000000000000000000000000000000000000000000000000000007bffffffffffffffffffffffffffffffffffffffffffffffffffffffff1916827bffffffffffffffffffffffffffffffffffffffffffffffffffffffff19161480612b9f57507f09cb2687000000000000000000000000000000000000000000000000000000007bffffffffffffffffffffffffffffffffffffffffffffffffffffffff1916827bffffffffffffffffffffffffffffffffffffffffffffffffffffffff1916145b80612baf5750612bae82612e09565b5b9050919050565b6000808290505b600115612c1d5783518110612bd557612bd4615210565b5b6000612bea8286612e8390919063ffffffff16565b60ff169050600181612bfc9190614f04565b82612c079190614f04565b915060008103612c175750612c1d565b50612bbd565b8281612c2991906145a0565b91505092915050565b606083518284612c429190614f04565b1115612c4d57600080fd5b60008267ffffffffffffffff811115612c6957612c68613826565b5b6040519080825280601f01601f191660200182016040528015612c9b5781602001600182028036833780820191505090505b5090506000806020830191508560208801019050612cba828287612eae565b8293505050509392505050565b6000612cd4848484612f12565b612cdf878785612f12565b14905095945050505050565b60008251600283612cfc9190614f04565b1115612d0757600080fd5b61ffff8260028501015116905092915050565b60008251600483612d2b9190614f04565b1115612d3657600080fd5b63ffffffff8260048501015116905092915050565b60008083518310612d91576040517f08c379a0000000000000000000000000000000000000000000000000000000008152600401612d889061528b565b60405180910390fd5b6000848481518110612da657612da5614ff1565b5b602001015160f81c60f81b60f81c60ff1690506000811115612de057612dd985600186612dd39190614f04565b83612f3e565b9250612de7565b6000801b92505b60018185612df59190614f04565b612dff9190614f04565b9150509250929050565b60007fc4b82906000000000000000000000000000000000000000000000000000000007bffffffffffffffffffffffffffffffffffffffffffffffffffffffff1916827bffffffffffffffffffffffffffffffffffffffffffffffffffffffff19161480612e7c5750612e7b82612f6a565b5b9050919050565b6000828281518110612e9857612e97614ff1565b5b602001015160f81c60f81b60f81c905092915050565b5b60208110612eed5781518352602083612ec89190614f04565b9250602082612ed79190614f04565b9150602081612ee691906145a0565b9050612eaf565b60006001826020036101000a0390508019835116818551168181178652505050505050565b600083518284612f229190614f04565b1115612f2d57600080fd5b818360208601012090509392505050565b600083518284612f4e9190614f04565b1115612f5957600080fd5b818360208601012090509392505050565b60007ebf4001000000000000000000000000000000000000000000000000000000007bffffffffffffffffffffffffffffffffffffffffffffffffffffffff1916827bffffffffffffffffffffffffffffffffffffffffffffffffffffffff19161480612fdc5750612fdb82612fe3565b5b9050919050565b60007fdd1f458c000000000000000000000000000000000000000000000000000000007bffffffffffffffffffffffffffffffffffffffffffffffffffffffff1916827bffffffffffffffffffffffffffffffffffffffffffffffffffffffff1916148061305657506130558261305d565b5b9050919050565b60007fbbf0d758000000000000000000000000000000000000000000000000000000007bffffffffffffffffffffffffffffffffffffffffffffffffffffffff1916827bffffffffffffffffffffffffffffffffffffffffffffffffffffffff1916148061312857507f780a54ba000000000000000000000000000000000000000000000000000000007bffffffffffffffffffffffffffffffffffffffffffffffffffffffff1916827bffffffffffffffffffffffffffffffffffffffffffffffffffffffff1916145b8061313857506131378261313f565b5b9050919050565b60007f4821b72c000000000000000000000000000000000000000000000000000000007bffffffffffffffffffffffffffffffffffffffffffffffffffffffff1916827bffffffffffffffffffffffffffffffffffffffffffffffffffffffff191614806131b257506131b1826131b9565b5b9050919050565b60007f4fbf0433000000000000000000000000000000000000000000000000000000007bffffffffffffffffffffffffffffffffffffffffffffffffffffffff1916827bffffffffffffffffffffffffffffffffffffffffffffffffffffffff1916148061322c575061322b82613233565b5b9050919050565b60007f01ffc9a7000000000000000000000000000000000000000000000000000000007bffffffffffffffffffffffffffffffffffffffffffffffffffffffff1916827bffffffffffffffffffffffffffffffffffffffffffffffffffffffff1916149050919050565b6040518060e001604052806060815260200160008152602001600061ffff168152602001600061ffff168152602001600063ffffffff16815260200160008152602001600081525090565b5080546132f490614495565b6000825580601f106133065750613325565b601f0160209004906000526020600020908101906133249190613328565b5b50565b5b80821115613341576000816000905550600101613329565b5090565b6000604051905090565b600080fd5b600080fd5b600080fd5b600080fd5b600080fd5b60008083601f84011261337e5761337d613359565b5b8235905067ffffffffffffffff81111561339b5761339a61335e565b5b6020830191508360018202830111156133b7576133b6613363565b5b9250929050565b6000819050919050565b6133d1816133be565b81146133dc57600080fd5b50565b6000813590506133ee816133c8565b92915050565b6000819050919050565b613407816133f4565b811461341257600080fd5b50565b600081359050613424816133fe565b92915050565b600080600080606085870312156134445761344361334f565b5b600085013567ffffffffffffffff81111561346257613461613354565b5b61346e87828801613368565b94509450506020613481878288016133df565b925050604061349287828801613415565b91505092959194509250565b6134a7816133f4565b82525050565b600081519050919050565b600082825260208201905092915050565b60005b838110156134e75780820151818401526020810190506134cc565b60008484015250505050565b6000601f19601f8301169050919050565b600061350f826134ad565b61351981856134b8565b93506135298185602086016134c9565b613532816134f3565b840191505092915050565b6000604082019050613552600083018561349e565b81810360208301526135648184613504565b90509392505050565b60007fffffffff0000000000000000000000000000000000000000000000000000000082169050919050565b6135a28161356d565b81146135ad57600080fd5b50565b6000813590506135bf81613599565b92915050565b6000602082840312156135db576135da61334f565b5b60006135e9848285016135b0565b91505092915050565b60008115159050919050565b613607816135f2565b82525050565b600060208201905061362260008301846135fe565b92915050565b6000806000604084860312156136415761364061334f565b5b600084013567ffffffffffffffff81111561365f5761365e613354565b5b61366b86828701613368565b9350935050602061367e868287016133df565b9150509250925092565b600060208201905081810360008301526136a28184613504565b905092915050565b6000806000604084860312156136c3576136c261334f565b5b60006136d1868287016133df565b935050602084013567ffffffffffffffff8111156136f2576136f1613354565b5b6136fe86828701613368565b92509250509250925092565b60008083601f8401126137205761371f613359565b5b8235905067ffffffffffffffff81111561373d5761373c61335e565b5b60208301915083600182028301111561375957613758613363565b5b9250929050565b6000806000806040858703121561377a5761377961334f565b5b600085013567ffffffffffffffff81111561379857613797613354565b5b6137a487828801613368565b9450945050602085013567ffffffffffffffff8111156137c7576137c6613354565b5b6137d38782880161370a565b925092505092959194509250565b600067ffffffffffffffff82169050919050565b6137fe816137e1565b811461380957600080fd5b50565b60008135905061381b816137f5565b92915050565b600080fd5b7f4e487b7100000000000000000000000000000000000000000000000000000000600052604160045260246000fd5b61385e826134f3565b810181811067ffffffffffffffff8211171561387d5761387c613826565b5b80604052505050565b6000613890613345565b905061389c8282613855565b919050565b600067ffffffffffffffff8211156138bc576138bb613826565b5b6138c5826134f3565b9050602081019050919050565b82818337600083830152505050565b60006138f46138ef846138a1565b613886565b9050828152602081018484840111156139105761390f613821565b5b61391b8482856138d2565b509392505050565b600082601f83011261393857613937613359565b5b81356139488482602086016138e1565b91505092915050565b600067ffffffffffffffff82111561396c5761396b613826565b5b613975826134f3565b9050602081019050919050565b600061399561399084613951565b613886565b9050828152602081018484840111156139b1576139b0613821565b5b6139bc8482856138d2565b509392505050565b600082601f8301126139d9576139d8613359565b5b81356139e9848260208601613982565b91505092915050565b60008060008060808587031215613a0c57613a0b61334f565b5b6000613a1a8782880161380c565b945050602085013567ffffffffffffffff811115613a3b57613a3a613354565b5b613a4787828801613923565b9350506040613a58878288016133df565b925050606085013567ffffffffffffffff811115613a7957613a78613354565b5b613a85878288016139c4565b91505092959194509250565b600081519050919050565b600082825260208201905092915050565b6000613ab882613a91565b613ac28185613a9c565b9350613ad28185602086016134c9565b613adb816134f3565b840191505092915050565b60006020820190508181036000830152613b008184613aad565b905092915050565b60008060008060608587031215613b2257613b2161334f565b5b600085013567ffffffffffffffff811115613b4057613b3f613354565b5b613b4c87828801613368565b94509450506020613b5f87828801613415565b925050604085013567ffffffffffffffff811115613b8057613b7f613354565b5b613b8c87828801613923565b91505092959194509250565b600061ffff82169050919050565b613baf81613b98565b8114613bba57600080fd5b50565b600081359050613bcc81613ba6565b92915050565b600080600080600060808688031215613bee57613bed61334f565b5b600086013567ffffffffffffffff811115613c0c57613c0b613354565b5b613c1888828901613368565b95509550506020613c2b888289016133df565b9350506040613c3c888289016133df565b9250506060613c4d88828901613bbd565b9150509295509295909350565b60008060408385031215613c7157613c7061334f565b5b600083013567ffffffffffffffff811115613c8f57613c8e613354565b5b613c9b85828601613923565b9250506020613cac858286016133df565b9150509250929050565b613cbf816137e1565b82525050565b6000602082019050613cda6000830184613cb6565b92915050565b60008060008060608587031215613cfa57613cf961334f565b5b600085013567ffffffffffffffff811115613d1857613d17613354565b5b613d2487828801613368565b94509450506020613d37878288016133df565b9250506040613d48878288016133df565b91505092959194509250565b60008083601f840112613d6a57613d69613359565b5b8235905067ffffffffffffffff811115613d8757613d8661335e565b5b602083019150836020820283011115613da357613da2613363565b5b9250929050565b60008060208385031215613dc157613dc061334f565b5b600083013567ffffffffffffffff811115613ddf57613dde613354565b5b613deb85828601613d54565b92509250509250929050565b600081519050919050565b600082825260208201905092915050565b6000819050602082019050919050565b600082825260208201905092915050565b6000613e3f826134ad565b613e498185613e23565b9350613e598185602086016134c9565b613e62816134f3565b840191505092915050565b6000613e798383613e34565b905092915050565b6000602082019050919050565b6000613e9982613df7565b613ea38185613e02565b935083602082028501613eb585613e13565b8060005b85811015613ef15784840389528151613ed28582613e6d565b9450613edd83613e81565b925060208a01995050600181019050613eb9565b50829750879550505050505092915050565b60006020820190508181036000830152613f1d8184613e8e565b905092915050565b60008060008060808587031215613f3f57613f3e61334f565b5b6000613f4d8782880161380c565b945050602085013567ffffffffffffffff811115613f6e57613f6d613354565b5b613f7a87828801613923565b9350506040613f8b878288016133df565b9250506060613f9c87828801613415565b91505092959194509250565b600073ffffffffffffffffffffffffffffffffffffffff82169050919050565b6000613fd382613fa8565b9050919050565b613fe381613fc8565b82525050565b6000602082019050613ffe6000830184613fda565b92915050565b60008060006060848603121561401d5761401c61334f565b5b600061402b8682870161380c565b935050602084013567ffffffffffffffff81111561404c5761404b613354565b5b61405886828701613923565b9250506040614069868287016133df565b9150509250925092565b6000806000806040858703121561408d5761408c61334f565b5b600085013567ffffffffffffffff8111156140ab576140aa613354565b5b6140b787828801613368565b9450945050602085013567ffffffffffffffff8111156140da576140d9613354565b5b6140e687828801613368565b925092505092959194509250565b600080600080600080606087890312156141115761411061334f565b5b600087013567ffffffffffffffff81111561412f5761412e613354565b5b61413b89828a01613368565b9650965050602087013567ffffffffffffffff81111561415e5761415d613354565b5b61416a89828a0161370a565b9450945050604087013567ffffffffffffffff81111561418d5761418c613354565b5b61419989828a0161370a565b92509250509295509295509295565b6000806000806000606086880312156141c4576141c361334f565b5b600086013567ffffffffffffffff8111156141e2576141e1613354565b5b6141ee88828901613368565b9550955050602061420188828901613415565b935050604086013567ffffffffffffffff81111561422257614221613354565b5b61422e88828901613368565b92509250509295509295909350565b6000806000806000606086880312156142595761425861334f565b5b600086013567ffffffffffffffff81111561427757614276613354565b5b61428388828901613368565b95509550506020614296888289016133df565b935050604086013567ffffffffffffffff8111156142b7576142b6613354565b5b6142c38882890161370a565b92509250509295509295909350565b600080602083850312156142e9576142e861334f565b5b600083013567ffffffffffffffff81111561430757614306613354565b5b61431385828601613368565b92509250509250929050565b6000806000604084860312156143385761433761334f565b5b6000614346868287016133df565b935050602084013567ffffffffffffffff81111561436757614366613354565b5b61437386828701613d54565b92509250509250925092565b600061438a82613fa8565b9050919050565b61439a8161437f565b81146143a557600080fd5b50565b6000813590506143b781614391565b92915050565b6000806000604084860312156143d6576143d561334f565b5b600084013567ffffffffffffffff8111156143f4576143f3613354565b5b61440086828701613368565b93509350506020614413868287016143a8565b9150509250925092565b600081905092915050565b6000614434838561441d565b93506144418385846138d2565b82840190509392505050565b600061445a828486614428565b91508190509392505050565b7f4e487b7100000000000000000000000000000000000000000000000000000000600052602260045260246000fd5b600060028204905060018216806144ad57607f821691505b6020821081036144c0576144bf614466565b5b50919050565b60008160601b9050919050565b60006144de826144c6565b9050919050565b60006144f0826144d3565b9050919050565b6145086145038261437f565b6144e5565b82525050565b600061451a82846144f7565b60148201915081905092915050565b6000614534826134ad565b61453e818561441d565b935061454e8185602086016134c9565b80840191505092915050565b60006145668284614529565b915081905092915050565b7f4e487b7100000000000000000000000000000000000000000000000000000000600052601160045260246000fd5b60006145ab826133f4565b91506145b6836133f4565b92508282039050818111156145ce576145cd614571565b5b92915050565b600082905092915050565b60008190508160005260206000209050919050565b60006020601f8301049050919050565b600082821b905092915050565b6000600883026146417fffffffffffffffffffffffffffffffffffffffffffffffffffffffffffffffff82614604565b61464b8683614604565b95508019841693508086168417925050509392505050565b6000819050919050565b600061468861468361467e846133f4565b614663565b6133f4565b9050919050565b6000819050919050565b6146a28361466d565b6146b66146ae8261468f565b848454614611565b825550505050565b600090565b6146cb6146be565b6146d6818484614699565b505050565b5b818110156146fa576146ef6000826146c3565b6001810190506146dc565b5050565b601f82111561473f57614710816145df565b614719846145f4565b81016020851015614728578190505b61473c614734856145f4565b8301826146db565b50505b505050565b600082821c905092915050565b600061476260001984600802614744565b1980831691505092915050565b600061477b8383614751565b9150826002028217905092915050565b61479583836145d4565b67ffffffffffffffff8111156147ae576147ad613826565b5b6147b88254614495565b6147c38282856146fe565b6000601f8311600181146147f257600084156147e0578287013590505b6147ea858261476f565b865550614852565b601f198416614800866145df565b60005b8281101561482857848901358255600182019150602085019450602081019050614803565b868310156148455784890135614841601f891682614751565b8355505b6001600288020188555050505b50505050505050565b600061486783856134b8565b93506148748385846138d2565b61487d836134f3565b840190509392505050565b60006148948385613a9c565b93506148a18385846138d2565b6148aa836134f3565b840190509392505050565b600060608201905081810360008301526148cf8188613504565b905081810360208301526148e481868861485b565b905081810360408301526148f9818486614888565b90509695505050505050565b6000608082019050818103600083015261491f8188613504565b9050818103602083015261493481868861485b565b9050614943604083018561349e565b81810360608301526149558184613504565b90509695505050505050565b600061497c61497761497284613fa8565b614663565b613fa8565b9050919050565b600061498e82614961565b9050919050565b60006149a082614983565b9050919050565b6149b081614995565b82525050565b600060608201905081810360008301526149d08187613504565b905081810360208301526149e581858761485b565b90506149f460408301846149a7565b95945050505050565b60008190508160005260206000209050919050565b601f821115614a5357614a24816149fd565b614a2d846145f4565b81016020851015614a3c578190505b614a50614a48856145f4565b8301826146db565b50505b505050565b614a61826134ad565b67ffffffffffffffff811115614a7a57614a79613826565b5b614a848254614495565b614a8f828285614a12565b600060209050601f831160018114614ac25760008415614ab0578287015190505b614aba858261476f565b865550614b22565b601f198416614ad0866149fd565b60005b82811015614af857848901518255600182019150602085019450602081019050614ad3565b86831015614b155784890151614b11601f891682614751565b8355505b6001600288020188555050505b505050505050565b600082905092915050565b614b3f8383614b2a565b67ffffffffffffffff811115614b5857614b57613826565b5b614b628254614495565b614b6d828285614a12565b6000601f831160018114614b9c5760008415614b8a578287013590505b614b94858261476f565b865550614bfc565b601f198416614baa866149fd565b60005b82811015614bd257848901358255600182019150602085019450602081019050614bad565b86831015614bef5784890135614beb601f891682614751565b8355505b6001600288020188555050505b50505050505050565b60006060820190508181036000830152614c1f8188613504565b90508181036020830152614c3481868861485b565b90508181036040830152614c4981848661485b565b90509695505050505050565b600081905092915050565b6000614c6c8385614c55565b9350614c798385846138d2565b82840190509392505050565b6000614c92828486614c60565b91508190509392505050565b60006080820190508181036000830152614cb8818a613504565b90508181036020830152614ccd81888a61485b565b90508181036040830152614ce2818688614888565b90508181036060830152614cf7818486614888565b905098975050505050505050565b60006060820190508181036000830152614d1f8187613504565b90508181036020830152614d338186613504565b90508181036040830152614d4881848661485b565b905095945050505050565b60006040820190508181036000830152614d6d8186613504565b90508181036020830152614d8281848661485b565b9050949350505050565b6000614d97826137e1565b915067ffffffffffffffff8203614db157614db0614571565b5b600182019050919050565b60006060820190508181036000830152614dd68187613504565b90508181036020830152614deb81858761485b565b9050614dfa6040830184613cb6565b95945050505050565b6000614e0e82613b98565b915060008203614e2157614e20614571565b5b600182039050919050565b614e3581613b98565b82525050565b60006060820190508181036000830152614e558186613504565b90508181036020830152614e698185613504565b9050614e786040830184614e2c565b949350505050565b6000614e8b82613b98565b915061ffff8203614e9f57614e9e614571565b5b600182019050919050565b60006080820190508181036000830152614ec48187613504565b90508181036020830152614ed88186613504565b9050614ee76040830185614e2c565b8181036060830152614ef98184613504565b905095945050505050565b6000614f0f826133f4565b9150614f1a836133f4565b9250828201905080821115614f3257614f31614571565b5b92915050565b7f6e616d65686173683a204a756e6b20617420656e64206f66206e616d65000000600082015250565b6000614f6e601d83613a9c565b9150614f7982614f38565b602082019050919050565b60006020820190508181036000830152614f9d81614f61565b9050919050565b6000819050919050565b614fbf614fba826133be565b614fa4565b82525050565b6000614fd18285614fae565b602082019150614fe18284614fae565b6020820191508190509392505050565b7f4e487b7100000000000000000000000000000000000000000000000000000000600052603260045260246000fd5b600080fd5b600080fd5b600080fd5b6000808335600160200384360303811261504c5761504b615020565b5b80840192508235915067ffffffffffffffff82111561506e5761506d615025565b5b60208301925060018202360383131561508a5761508961502a565b5b509250929050565b600080fd5b600080fd5b600080858511156150b0576150af615092565b5b838611156150c1576150c0615097565b5b6001850283019150848603905094509492505050565b60006150e38383614b2a565b826150ee81356133be565b9250602082101561512e576151297fffffffffffffffffffffffffffffffffffffffffffffffffffffffffffffffff83602003600802614604565b831692505b505092915050565b7f6d756c746963616c6c3a20416c6c207265636f726473206d757374206861766560008201527f2061206d61746368696e67206e616d6568617368000000000000000000000000602082015250565b6000615192603483613a9c565b915061519d82615136565b604082019050919050565b600060208201905081810360008301526151c181615185565b9050919050565b60006151d3826133f4565b91507fffffffffffffffffffffffffffffffffffffffffffffffffffffffffffffffff820361520557615204614571565b5b600182019050919050565b7f4e487b7100000000000000000000000000000000000000000000000000000000600052600160045260246000fd5b7f726561644c6162656c3a20496e646578206f7574206f6620626f756e64730000600082015250565b6000615275601e83613a9c565b91506152808261523f565b602082019050919050565b600060208201905081810360008301526152a481615268565b905091905056fea2646970667358221220e0e625c61041fd0e02db5ec4c8b5c384e9cf0f214e2cfcfb5a895100fe2db3f864736f6c63430008110033",
  "linkReferences": {},
  "deployedLinkReferences": {}
}